:020000040800F2
:100000000804002045010008230D0008FB0B000830
:10001000210D00088D010008F90D00080000000006
:10002000000000000000000000000000470D000874
:100030008F01000800000000450D0008490D000870
:100040005F0100085F0100085F0100085F01000810
:100050005F0100085F0100085F0100085F01000800
:100060005F0100085F010008910100085F010008BE
:100070005F0100085F0100085F0100085F010008E0
:100080005F0100085F0100085F0100085F010008D0
:100090005F0100085F0100085F0100089701000888
:1000A0005F0100085F0100085F0100085F010008B0
:1000B0005F0100085F0100085F0100085F010008A0
:1000C0005F0100085F0100085F0100085F01000890
:1000D0005F0100085F0100085F0100085F01000880
:1000E0005F0100085F0100085F0100085F01000870
:1000F0005F0100085F0100085F0100085F01000860
:100100005F0100085F0100085F0100085F0100084F
:100110005F0100085F0100085F0100085F0100083F
:100120005F0100085F0100085F0100085F0100082F
:10013000DFF80CD000F018F800480047850E0008E2
:10014000080400200648804706480047FEE7FEE70F
:10015000FEE7FEE7FEE7FEE7FEE7FEE7FEE7FEE777
:10016000B10D000831010008064C074D06E0E068BB
:1001700040F0010394E8070098471034AC42F6D3EE
:10018000FFF7DAFFA80E0008C80E0008FEE7704768
:10019000102000F0DFB810B5202000F0DBF8402080
:1001A00000F0D8F8BDE81040802000F0D3B8014638
:1001B000002041292CD014DC212927D009DC112969
:1001C00022D0122926D014292AD0182900D1312072
:1001D0007047222920D0242924D02829F8D134207E
:1001E0007047812922D007DC422917D044291BD02F
:1001F0004829F5D137207047822919D0842919D090
:100200008829F8D15120704741207047422070471B
:10021000432070473320704736207047392070479D
:10022000322070473520704738207047442070478F
:1002300045207047302070472DE9FF470025234FA8
:10024000A9462A460F21384600F089F90F20009070
:1002500011200190022003906946384600F086F88C
:10026000F020009000200124CDE9010469463846C1
:1002700000F07CF80426B84604FA06F7B9B2404606
:1002800000F068F908B92F43FDB2761CF6B2082ECB
:10029000F2D3A5B100F0B4FC5FF0000604FA06F753
:1002A000B9B2404600F056F908B92F43FDB2761CAA
:1002B000F6B2042EF2D32846FFF779FF814600F00C
:1002C000ABFD04B04846BDE8F087000000080140DF
:1002D00070B5FFF7B1FF1E4C312817D0A515322895
:1002E00021D0332826D0342830D100224021204686
:1002F00000F035F901228021204600F030F901227A
:1003000029462046BDE8704000F029B900220621A8
:10031000204600F024F900220721204600F01FF9B2
:1003200001220821EDE701224021204600F017F9C3
:10033000002205E000224021204600F010F90122B1
:100340008021204600F00BF90022D9E770BD0000A3
:1003500000100140044910B50A68024202D008604A
:10036000FFF7B6FF10BD0000140401402DE9F84F5F
:10037000DFF8B8A100220AF1040B144601274FF060
:100380000F090BF1040E00BF0B6807FA04F52B40B0
:10039000AB4274D1DFF898C14E68A6EB0C086645F5
:1003A0002BD00DDC032E34D005DC36B3012E19D052
:1003B000022E2FD11BE0112E16D0122E2AD119E0B9
:1003C000B8F5881F19D006DCB8F5803F15D0B8F510
:1003D000801F1FD111E0B8F5001F0ED0B8F5041F23
:1003E00018D10AE0CA6815E0CA68121D12E0CA688E
:1003F00008320FE0CA680C320CE08A682AB1012A80
:100400004FF0080203D0456104E0042202E00561D8
:1004100000E00022FF2B01D8064601E000F10406AF
:100420004FEA840501D9A5F12005D6F800C009FAE4
:1004300005F82CEA080C02FA05F54CEA050CC6F89A
:1004400000C04D68ED006AD53A4DAE6946F0010630
:10045000AE61AD6924F0030605F001050095364D47
:1004600006EB050CDCF80850A6074FEA167809FAE7
:1004700008F6B543314EB04202D100261AE04EE0F4
:100480002F4EB04201D1012614E02E4EB04201D1D0
:1004900002260FE02C4EB04201D103260AE02B4E7B
:1004A000B04201D1042605E0294EB04201D1052613
:1004B00000E0062606FA08F62E43CCF808604D68E0
:1004C000DAF80060ED03554601D51E4300E09E4377
:1004D0002E604D68AD0305D5DBF800601E43CBF8F8
:1004E000006004E0DBF800509D43CBF800504D68FD
:1004F000DEF80060ED02754601D51E4300E09E4324
:100500002E604D68AD0205D5084D0C352E681E4392
:100510002E6004E0054E0C3635689D433560641C42
:10052000102CFFF431AFBDE8F88F0000000401404B
:1005300000001110001002400000014000080140BE
:10054000000C01400010014000140140001801405F
:10055000001C01408068084000D0012070470AB1AB
:10056000016170470904FBE701480068704700001B
:100570000000002002480168491C0160704700002B
:1005800000000020074810B5016841F0100101602B
:10059000032000F093F8002000F006F800F018F8AF
:1005A000002010BD0020024010B5044607484FF45B
:1005B0007A710068B0FBF1F000F007FB00222146E1
:1005C000501E00F05BF8002010BD00000400002069
:1005D000224808B5816941F001018161816901F01A
:1005E00001010091C16941F08051C161C06900F011
:1005F00080500090032000F061F8002211466FF057
:100600000B0000F03BF8002211466FF00A0000F0EA
:1006100035F8002211466FF0090000F02FF8002293
:100620001146501F00F02AF800221146101F00F05A
:1006300025F800221146901E00F020F800221146F5
:10064000501E00F01BF80648416821F0E06141604F
:10065000416841F00071416008BD00000010024097
:100660000000014000F01F0201219140400980007C
:1006700000F1E020C0F8001170470000F0B40E4B0C
:100680001B680C46C3F30223C3F10705042D00D9F0
:100690000425191D072901D2002300E0DB1E0126D5
:1006A00006FA05F1491E214099409E40761E1640EB
:1006B0003143F0BC00F036BB0CED00E0064900F021
:1006C000070208684FF6FF03184040EA0220034A79
:1006D00010430860704700000CED00E00000FA05D0
:1006E0002DE9F047DFF83C8105460E46D8F80000BA
:1006F00000F00700B0420CD2D8F8001021F007013A
:100700003143C8F80010D8F8000000F00700B042EC
:1007100063D12878444C800705D56068A96820F02B
:10072000F000084360602878C00745D06868012859
:1007300016D02168022816D0890700294DDA616891
:1007400021F0030101436160FFF70EFF696807466E
:1007500041F2883001290FD00229814619D027E0C3
:1007600021688903E9E78901E7E700BFFFF7FCFE9D
:10077000C11B494501D918E081466068C0F381007A
:100780000128F3D118E000BFFFF7EEFEC11B494579
:100790000BD86068C0F381000228F5D10CE000BFDF
:1007A000FFF7E2FEC11B494502D90320BDE8F087EF
:1007B000606810F00C0FF3D1D8F80010404601F03B
:1007C0000701B1420BD9016821F0070131430160F3
:1007D000006800F00700B04201D00120E6E7287869
:1007E000400705D56068E96820F4E0600843606070
:1007F0002878000706D56068296920F4605040EA2F
:10080000C100606000F01CF86168084AC1F3031180
:10081000515CC840064908600020FFF7C5FE002073
:10082000C4E700000020024000100240960E0008BD
:100830000400002001480068704700000400002008
:1008400010B512A385B00FCB8DE80F0013A0144B89
:10085000006804905A68134802F00C0104290FD074
:1008600008290DD1C2F38344D2031DF8041009D521
:100870005A6804ABC2F340429A5CB0FBF2F04843C2
:1008800005B010BD08484843FAE70000020304051C
:10089000060708090A0B0C0D0E0F101001020000CC
:1008A0000010024000127A0000093D002DE9F84FC7
:1008B00004460078B94DC00748D06868C0F381008D
:1008C000012807D06868C0F38100022809D1686850
:1008D000C00306D52868800338D5606800286FD02B
:1008E00034E06068B0F5803F0BD010B1B0F5A02FB8
:1008F00011D0286820F480302860286820F48020F7
:1009000002E0286840F480302860606888B1FFF712
:100910002BFE064609E0286840F480202860F0E7B6
:10092000FFF722FE801B642875D828688003F7D55E
:100930000CE0FFF719FE064605E000BFFFF714FEC6
:10094000801B6428F0D828688003F7D42078944E60
:1009500080074FF001094FF000083BD5686810F0A0
:100960000C0F07D06868C0F38100022809D16868BD
:10097000C00306D42868800714D5206901281FD138
:1009800010E02069B0B1C6F80090FFF7EDFD074612
:1009900005E000BFFFF7E8FDC01B0228C4D82868A7
:1009A0008007F7D52868616920F0F80040EAC100A7
:1009B00028600FE0C6F80080FFF7D6FD074606E086
:1009C000E9E000BFFFF7D0FDC01B022823D828684C
:1009D0008007F7D4207800072CD57248A169D9B1D7
:1009E000C0F80090FFF7C0FD074604E0FFF7BCFD2C
:1009F000C01B02280FD8686A8007F7D56A484FF4F1
:100A0000FA510068B0FBF1F0009000BF0098411E61
:100A10000091FAD20EE080E0C0F80080FFF7A4FD5C
:100A2000074604E0FFF7A0FDC01B022875D8686ADE
:100A30008007F7D42078400760D5E8690027C00018
:100A400008D4E86940F08050E861E869012700F0C7
:100A50008050009055480168C90513D40168834649
:100A600041F480710160FFF77FFD824606E000BF20
:100A7000FFF77AFDA0EB0A0064284ED8DBF80000EF
:100A8000C005F5D5E06801280AD008B1052813D0C3
:100A9000286A20F001002862286A20F0040002E0A1
:100AA000286A40F001002862E06841F2883B98B172
:100AB000FFF75AFD82460BE0286A40F004002862E6
:100AC000EEE700BFFFF750FDA0EB0A0159455AD8E9
:100AD000286A8007F6D50CE0FFF746FD824605E060
:100AE000FFF742FDA0EB0A0159454CD8286A800760
:100AF000F6D41FB1E86920F08050E861E06988B35E
:100B00006968C1F38101022945D00228C6F86080D6
:100B100004D0FFF729FD044638E034E0FFF724FD58
:100B2000074604E0FFF720FDC01B02282BD82868E9
:100B30008001F7D4206AB0F5803F05D16868A168CC
:100B400020F4003008436860D4E90801084369686C
:100B500021F4741108436860C6F86090FFF704FD43
:100B6000044606E015E000BFFFF7FEFC001B02286C
:100B700009D828688001F7D50BE000BFFFF7F4FC27
:100B8000001B022802D90320BDE8F88F28688001E5
:100B9000F4D40020F8E70120F6E70000001002403E
:100BA00000004242800442420400002000700040E5
:100BB0004FF0E0210428086903D020F00400086108
:100BC000704740F00400FAE7704710B5401EB0F1DE
:100BD000807F01D3012010BD4FF0E02460610F2120
:100BE000601700F09FF80020A0610720206100201E
:100BF00010BD10B5FFF7E8FF10BDFEE700F00CB91F
:100C0000174810B5816986B041F00401816181699E
:100C100001F004010491816941F00801816180695A
:100C2000104C00F0080004900022F0212046FFF74D
:100C300096FCF0200090112001900220039069465C
:100C40002046FFF793FB0F20009000200190012029
:100C5000029069462046FFF789FB06B010BD0000F0
:100C600000100240000801402DE9F043284885B0FB
:100C7000816941F004018161816901F004010491FD
:100C8000816941F0100181618069DFF8888000F09E
:100C90001000049000220F214046FFF760FCDFF8AF
:100CA00078904FF4E077002239464846FFF757FC2A
:100CB0000F20012500240226CDE90005CDE90246DA
:100CC00069464046FFF752FBF02000901348CDE9FB
:100CD000010469464046FFF749FB00970396CDE9BA
:100CE000015469464846FFF741FB002211460A209D
:100CF000FFF7C4FC0A20FFF7B5FC002211461720BD
:100D0000FFF7BCFC1720FFF7ADFC05B0BDE8F08392
:100D100000100240000801400010014000001110C6
:100D2000FEE770470907090E002806DA00F00F00F9
:100D300000F1E02080F8141D704700F1E02080F8F9
:100D4000001470477047704710B5FFF713FCBDE8FB
:100D50001040FFF74EBF10B590B002200090012068
:100D6000049010200024059007946846FFF79EFD2C
:100D700000B1FEE70F20CDE90A040C940D94002188
:100D80000AA80E94FFF7ACFC00B1FEE7FFF752FD96
:100D90004FF47A71B0FBF1F0FFF717FF0420FFF773
:100DA00007FF00221146501EFFF768FC10B010BD6F
:100DB0000D48016841F00101016041680B4A114092
:100DC000416001680A4A11400160016821F48021F4
:100DD0000160416821F4FE0141604FF41F01816010
:100DE0000449C00308607047001002400000FFF88B
:100DF000FFFFF6FE08ED00E0FEE702E008C8121F64
:100E000008C1002AFAD170477047002001E001C1F3
:100E1000121F002AFBD17047174810B5816986B0B0
:100E200041F004018161816901F00401049181694B
:100E300041F0080181618069104C00F008000490C5
:100E400000220F212046FFF78AFB0F20009011207F
:100E500001900220039069462046FFF787FAF020B0
:100E60000090074801900120029069462046FFF754
:100E70007DFA06B010BD00000010024000080140DD
:100E800000002110FFF77EFBFFF7B8FEFFF763FFBE
:100E9000FFF7EAFEFEE7000000000000000001028C
:100EA0000304060708090000C80E0008000000201F
:100EB00008000000FA0D0008D00E0008080000200D
:100EC000000400000A0E00080000000000A24A040E
:0400000508000131BD
:00000001FF
