:020000040800F2
:100000008804002045010008E30B0008DF0B00080E
:10001000E10B0008C10100088D0E0008000000007F
:10002000000000000000000000000000070C0008B5
:10003000C301000800000000050C0008090C0008BE
:100040005F0100085F0100085F0100085F01000810
:100050005F0100085F0100085F0100085F01000800
:100060005F0100085F0100085F0100085F010008F0
:100070005F0100085F0100085F0100085F010008E0
:100080005F0100085F0100085F0100085F010008D0
:100090005F0100085F0100085F0100085F010008C0
:1000A0005F0100085F0100085F0100085F010008B0
:1000B0005F0100085F0100085F0100085F010008A0
:1000C0005F0100085F0100085F0100085F01000890
:1000D0005F0100085F0100085F0100085F01000880
:1000E0005F0100085F0100085F0100085F01000870
:1000F0005F0100085F0100085F0100085F01000860
:100100005F0100085F0100085F0100085F0100084F
:100110005F0100085F0100085F0100085F0100083F
:100120005F0100085F0100085F0100085F0100082F
:10013000DFF80CD000F032F800480047E10F00086B
:10014000880400200648804706480047FEE7FEE78F
:10015000FEE7FEE7FEE7FEE7FEE7FEE7FEE7FEE777
:10016000710C000831010008D2B201E000F8012B47
:10017000491EFBD270470022F6E710B513460A4627
:1001800004461946FFF7F0FF204610BD421C10F848
:10019000011B0029FBD1801A70470000064C074D57
:1001A00006E0E06840F0010394E807009847103447
:1001B000AC42F6D3FFF7C0FFFC1000081C1100088A
:1001C000FEE770472DE9F84FDFF8B8A100220AF1E9
:1001D000040B144601274FF00F090BF1040E00BF6A
:1001E0000B6807FA04F52B40AB4274D1DFF898C1D5
:1001F0004E68A6EB0C0866452BD00DDC032E34D0E0
:1002000005DC36B3012E19D0022E2FD11BE0112EA2
:1002100016D0122E2AD119E0B8F5881F19D006DCA5
:10022000B8F5803F15D0B8F5801F1FD111E0B8F5A3
:10023000001F0ED0B8F5041F18D10AE0CA6815E0F7
:10024000CA68121D12E0CA6808320FE0CA680C3290
:100250000CE08A682AB1012A4FF0080203D04561F8
:1002600004E0042202E0056100E00022FF2B01D837
:10027000064601E000F104064FEA840501D9A5F124
:100280002005D6F800C009FA05F82CEA080C02FA95
:1002900005F54CEA050CC6F800C04D68ED006AD5BE
:1002A0003A4DAE6946F00106AE61AD6924F0030631
:1002B00005F001050095364D06EB050CDCF80850FD
:1002C000A6074FEA167809FA08F6B543314EB04250
:1002D00002D100261AE04EE02F4EB04201D1012695
:1002E00014E02E4EB04201D102260FE02C4EB04257
:1002F00001D103260AE02B4EB04201D1042605E0CD
:10030000294EB04201D1052600E0062606FA08F67D
:100310002E43CCF808604D68DAF80060ED035546CE
:1003200001D51E4300E09E432E604D68AD0305D508
:10033000DBF800601E43CBF8006004E0DBF80050FF
:100340009D43CBF800504D68DEF80060ED02754625
:1003500001D51E4300E09E432E604D68AD0205D5D9
:10036000084D0C352E681E432E6004E0054E0C36F9
:1003700035689D433560641C102CFFF431AFBDE837
:10038000F88F00000004014000001110001002402E
:100390000000014000080140000C01400010014035
:1003A0000014014000180140001C01400148006891
:1003B000704700000000002002480168491C0160ED
:1003C0007047000000000020074810B5016841F0A8
:1003D00010010160032000F087F8002000F006F80B
:1003E00000F018F8002010BD0020024010B50446AF
:1003F00007484FF47A710068B0FBF1F000F01BFB86
:1004000000222146501E00F04FF8002010BD0000D1
:1004100004000020224808B5816941F00101816192
:10042000816901F001010091C16941F08051C16110
:10043000C06900F080500090032000F055F80022C1
:1004400011466FF00B0000F02FF8002211466FF0FC
:100450000A0000F029F8002211466FF0090000F0B0
:1004600023F800221146501F00F01EF8002211460A
:10047000101F00F019F800221146901E00F014F829
:1004800000221146501E00F00FF80648416821F086
:10049000E0614160416841F00071416008BD0000C9
:1004A0000010024000000140F0B40E4B1B680C46E7
:1004B000C3F30223C3F10705042D00D90425191D38
:1004C000072901D2002300E0DB1E012606FA05F110
:1004D000491E214099409E40761E16403143F0BC93
:1004E00000F080BB0CED00E0064900F00702086850
:1004F0004FF6FF03184040EA0220034A1043086009
:10050000704700000CED00E00000FA052DE9F0470F
:10051000DFF83C8105460E46D8F8000000F00700E1
:10052000B0420CD2D8F8001021F007013143C8F8CE
:100530000010D8F8000000F00700B04263D128781E
:10054000444C800705D56068A96820F0F000084396
:1005500060602878C00745D06868012816D02168F7
:10056000022816D0890700294DDA616821F00301BD
:1005700001436160FFF71AFF6968074641F288305E
:1005800001290FD00229814619D027E0216889036B
:10059000E9E78901E7E700BFFFF708FFC11B49450D
:1005A00001D918E081466068C0F381000128F3D1C9
:1005B00018E000BFFFF7FAFEC11B49450BD8606881
:1005C000C0F381000228F5D10CE000BFFFF7EEFE7A
:1005D000C11B494502D90320BDE8F087606810F0CF
:1005E0000C0FF3D1D8F80010404601F00701B142DA
:1005F0000BD9016821F0070131430160006800F068
:100600000700B04201D00120E6E72878400705D571
:100610006068E96820F4E0600843606028780007BB
:1006200006D56068296920F4605040EAC100606026
:1006300000F03CF86168084AC1F30311515CC840FE
:10064000064908600020FFF7D1FE0020C4E7000043
:100650000020024000100240E410000804000020C6
:100660000148006870470000040000200448054964
:1006700000684968044AC1F30221515CC8407047D0
:100680000400002000100240F4100008044805494E
:1006900000684968044AC1F3C221515CC8407047F0
:1006A0000400002000100240F410000810B512A34E
:1006B00085B00FCB8DE80F0013A0144B0068049099
:1006C0005A68134802F00C0104290FD008290DD1F3
:1006D000C2F38344D2031DF8041009D55A6804AB51
:1006E000C2F340429A5CB0FBF2F0484305B010BD43
:1006F00008484843FAE70000020304050607080912
:100700000A0B0C0D0E0F1010010200000010024029
:1007100000127A0000093D002DE9F84F04460078E8
:10072000B94DC00748D06868C0F38100012807D0E0
:100730006868C0F38100022809D16868C00306D543
:100740002868800338D5606800286FD034E060687E
:10075000B0F5803F0BD010B1B0F5A02F11D02868B4
:1007600020F480302860286820F4802002E0286887
:1007700040F480302860606888B1FFF717FE0646B5
:1007800009E0286840F480202860F0E7FFF70EFEBB
:10079000801B642875D828688003F7D50CE0FFF724
:1007A00005FE064605E000BFFFF700FE801B64283B
:1007B000F0D828688003F7D42078944E80074FF053
:1007C00001094FF000083BD5686810F00C0F07D006
:1007D0006868C0F38100022809D16868C00306D4A4
:1007E0002868800714D5206901281FD110E02069EE
:1007F000B0B1C6F80090FFF7D9FD074605E000BF8D
:10080000FFF7D4FDC01B0228C4D828688007F7D59D
:100810002868616920F0F80040EAC10028600FE014
:10082000C6F80080FFF7C2FD074606E0E9E000BF1A
:10083000FFF7BCFDC01B022823D828688007F7D427
:10084000207800072CD57248A169D9B1C0F8009072
:10085000FFF7ACFD074604E0FFF7A8FDC01B022828
:100860000FD8686A8007F7D56A484FF4FA510068D4
:10087000B0FBF1F0009000BF0098411E0091FAD249
:100880000EE080E0C0F80080FFF790FD074604E02E
:10089000FFF78CFDC01B022875D8686A8007F7D463
:1008A0002078400760D5E8690027C00008D4E869CF
:1008B00040F08050E861E869012700F08050009026
:1008C00055480168C90513D40168834641F4807115
:1008D0000160FFF76BFD824606E000BFFFF766FD93
:1008E000A0EB0A0064284ED8DBF80000C005F5D55F
:1008F000E06801280AD008B1052813D0286A20F042
:1009000001002862286A20F0040002E0286A40F012
:1009100001002862E06841F2883B98B1FFF746FD8C
:1009200082460BE0286A40F004002862EEE700BF30
:10093000FFF73CFDA0EB0A0159455AD8286A800709
:10094000F6D50CE0FFF732FD824605E0FFF72EFDFD
:10095000A0EB0A0159454CD8286A8007F6D41FB18C
:10096000E86920F08050E861E06988B36968C1F304
:100970008101022945D00228C6F8608004D0FFF723
:1009800015FD044638E034E0FFF710FD074604E0AB
:10099000FFF70CFDC01B02282BD828688001F7D474
:1009A000206AB0F5803F05D16868A16820F4003066
:1009B00008436860D4E908010843696821F47411A8
:1009C00008436860C6F86090FFF7F0FC044606E054
:1009D00015E000BFFFF7EAFC001B022809D82868D1
:1009E0008001F7D50BE000BFFFF7E0FC001B0228F9
:1009F00002D90320BDE8F88F28688001F4D40020D4
:100A0000F8E70120F6E70000001002400000424233
:100A10008004424204000020007000404FF0E021BA
:100A20000428086903D020F004000861704740F0F2
:100A30000400FAE7704710B5401EB0F1807F01D383
:100A4000012010BD4FF0E02460610F21601700F01D
:100A5000C9F80020A06107202061002010BD10B55A
:100A6000FFF7E8FF10BD70B5040004D094F839001A
:100A7000002510B106E0012070BD84F838502046F2
:100A800000F022F8242084F839002068C16821F49D
:100A90000051C160204600F00FF92068016921F47F
:100AA000904101612068416921F02A01416120687B
:100AB000C16841F40051C160E563202084F8390029
:100AC00084F83A00002070BD00B50068114985B077
:100AD00088421CD11048C16941F48011C161C069CC
:100AE000694600F4801004904FF48050009002207A
:100AF0000190032003900948FFF764FB0420009055
:100B000000200190029069460548FFF75BFB05B0A5
:100B100000BD0000005000400010024000100140E5
:100B2000001401402DE9F843044690F839001F46AF
:100B300016460D46202850D1A5B19EB194F8380034
:100B400001284AD0012084F838004FF00008C4F88A
:100B50003C80212084F83900FFF728FCA6848146D8
:100B6000E68426E00120BDE8F883E08C401EE084A6
:100B7000A0684B46B0F5805F4FF000024FF0800157
:100B80002046009703D000F04FF9E8B90DE000F0DF
:100B90004BF9C8B928882168C0F30800486020696B
:100BA00008B16D1C05E0AD1C03E0216815F8010BD0
:100BB0004860E08C0028D8D14B46002240212046D6
:100BC000009700F031F908B10320CCE7202084F829
:100BD000390084F838800020C5E70220C3E7FEE72B
:100BE000FEE770470907090E002806DA00F00F003B
:100BF00000F1E02080F8141D704700F1E02080F83B
:100C0000001470477047704710B5FFF7D5FBBDE87B
:100C10001040FFF724BF10B590B0022000900120D3
:100C2000049010200024059007946846FFF774FD97
:100C300000B1FEE70F20CDE90A040C940D940021C9
:100C40000AA80E94FFF762FC00B1FEE7FFF708FD6B
:100C50004FF47A71B0FBF1F0FFF7EDFE0420FFF7DF
:100C6000DDFE00221146501EFFF71EFC10B010BD25
:100C70000D48016841F00101016041680B4A1140D3
:100C8000416001680A4A11400160016821F4802135
:100C90000160416821F4FE0141604FF41F01816051
:100CA0000449C00308607047001002400000FFF8CC
:100CB000FFFFF6FE08ED00E02DE9F0410446006874
:100CC0000169E26821F44051114301612169A06882
:100CD0000843616908432168CA6841F20C639A437A
:100CE0000243CA6020684169A26921F4407111433E
:100CF00041614C4920686425322688423CD1FFF787
:100D0000C5FC00EBC00101EB001061688900B0FB7D
:100D1000F1F7FFF7BBFC00EBC00101EB00106168CD
:100D2000B0468900B0FBF1F0B0FBF5F06FF01801B0
:100D3000484307EB800106EB0110B0FBF5F000F033
:100D4000F006FFF7A3FC00EBC00101EB00106168A7
:100D50008900B0FBF1F0B0FBF5F006EB0016FFF7F1
:100D600095FC00EBC00101EB001061688900B0FB4D
:100D7000F1F7FFF78BFC3BE0FFF778FC00EBC001DD
:100D800001EB001061688900B0FBF1F7FFF76EFC22
:100D900000EBC00101EB00106168B0468900B0FBB8
:100DA000F1F0B0FBF5F06FF01801484307EB80015C
:100DB00006EB0110B0FBF5F000F0F006FFF756FC73
:100DC00000EBC00101EB001061688900B0FBF1F09D
:100DD000B0FBF5F006EB0016FFF748FC00EBC00196
:100DE00001EB001061688900B0FBF1F7FFF73EFCF2
:100DF00000EBC00101EB001061688900B0FBF1F06D
:100E0000B0FBF5F06FF01801484307EB800108EBE9
:100E10000110B0FBF5F0216800F00F00304488604D
:100E2000BDE8F081003801402DE9F04198461746B1
:100E30000E460446069D1DE0681C1BD02DB1FFF731
:100E4000B5FAA0EB0800A84214D92068C16821F4C3
:100E5000D071C1602068416921F001014161202009
:100E600084F8390084F83A00002084F83800032020
:100E7000BDE8F0812068006836EA000004D0002058
:100E8000B842D9D00020F3E70120F9E7FEE70000DF
:100E90000FB41CB50246002007AC00290BD0491E38
:100EA000CDE90021054B6A462146069800F017F867
:100EB000009A002111701CBC5DF814FBB50F0008EE
:100EC00002E008C8121F08C1002AFAD17047704713
:100ED000002001E001C1121F002AFBD170472DE95B
:100EE000F84F9946924688460546002706E0252891
:100EF0000AD051464A4690476D1C7F1C287800282E
:100F0000F5D13846BDE8F88F002315F8011F1846C3
:100F10002E2915D115F8011F04232A290DD06FF0B1
:100F20002F022978A1F13004092C09D800EB8000A8
:100F300002EB400008446D1CF3E758F8040B6D1CED
:100F40002A78002ADDD0632A07D0732A0FD01046F2
:100F500051464A4690477F1C2AE018F8042B8DF82A
:100F6000002000218DF801106E46012103E058F8A1
:100F7000046B4FF0FF315A074FF0000401D409E031
:100F8000641C84420BDA8C42FADB325D002AF7D112
:100F900005E0641C8C42FCDB305D0028F9D127445D
:100FA00004E016F8010B51464A469047641EF8D2F9
:100FB0006D1CA3E74A68002A06D00A68531C0B6020
:100FC00010704868401E4860704710B5002302E06A
:100FD000C45CCC545B1C9342FADB002010BD0000C3
:100FE000A4B0FFF7F1F9FFF716FE2B48816941F035
:100FF00004018161816901F004010091816941F07E
:1010000010018161816901F010010091816941F055
:10101000200181618069214900F020000090204872
:101020000C2201604FF4E131416000218160C16018
:10103000C0E904128161C161FFF715FD00B1FEE74F
:101040006423052217A11648FFF76CFD14484021C0
:101050004038FFF790F81249402240391348FFF713
:10106000B4FF0F491039A1F11000A0F11002CDE931
:101070000020A0F1200302910DA2802103A8FFF718
:1010800007FF03A8FFF782F882B2642303A904488C
:10109000FFF748FDF5E70000001002400050004057
:1010A0004800002068656C6C6F00000000D00308E9
:1010B00075736572696E666F2C6E616D653A257326
:1010C0002C70617373776F72643A25732C7769663D
:1010D000693A25732C77696669706173733A257371
:1010E00000000000000000000000000001020304F6
:1010F0000607080900000000010203041C11000893
:101100000000002008000000C00E000824110008A4
:101110000800002080040000D00E0008000000003D
:0411200000A24A04DB
:0400000508000131BD
:00000001FF
