:020000040800F2
:100000005004002045010008D30D00087B0D0008B6
:10001000D10D00088D010008B70F00080000000096
:10002000000000000000000000000000F70D0008C4
:100030008F01000800000000F50D0008F90D000810
:100040005F0100085F0100085F0100085F01000810
:100050005F0100085F0100085F0100085F01000800
:100060005F0100085F0100085F0100085F010008F0
:100070005F0100085F0100085F0100085F010008E0
:100080005F0100085F0100085F0100085F010008D0
:100090005F0100085F0100085F0100085F010008C0
:1000A0005F0100085F0100085F0100085F010008B0
:1000B0005F0100085F0100085F0100085F010008A0
:1000C0005F0100085F0100085F0100085F01000890
:1000D0005F0100085F0100085F0100085F01000880
:1000E0005F0100085F0100085F0100085F01000870
:1000F0005F0100085F0100085F0100085F01000860
:100100005F0100085F010008B50E00085F010008EC
:100110005F0100085F0100085F0100085F0100083F
:100120005F0100085F0100085F0100085F0100082F
:10013000DFF80CD000F018F800480047D90F00088D
:10014000500400200648804706480047FEE7FEE7C7
:10015000FEE7FEE7FEE7FEE7FEE7FEE7FEE7FEE777
:100160006D0E000831010008064C074D06E0E068FE
:1001700040F0010394E8070098471034AC42F6D3EE
:10018000FFF7DAFF5010000870100008FEE7704714
:100190002DE9F84FDFF8B8A100220AF1040B14464C
:1001A00001274FF00F090BF1040E00BF0B6807FA8F
:1001B00004F52B40AB4274D1DFF898C14E68A6EB32
:1001C0000C0866452BD00DDC032E34D005DC36B38D
:1001D000012E19D0022E2FD11BE0112E16D0122E77
:1001E0002AD119E0B8F5881F19D006DCB8F5803F90
:1001F00015D0B8F5801F1FD111E0B8F5001F0ED043
:10020000B8F5041F18D10AE0CA6815E0CA68121DC3
:1002100012E0CA6808320FE0CA680C320CE08A6843
:100220002AB1012A4FF0080203D0456104E00422FC
:1002300002E0056100E00022FF2B01D8064601E044
:1002400000F104064FEA840501D9A5F12005D6F88E
:1002500000C009FA05F82CEA080C02FA05F54CEA88
:10026000050CC6F800C04D68ED006AD53A4DAE6980
:1002700046F00106AE61AD6924F0030605F0010504
:100280000095364D06EB050CDCF80850A6074FEA42
:10029000167809FA08F6B543314EB04202D100266D
:1002A0001AE04EE02F4EB04201D1012614E02E4E4E
:1002B000B04201D102260FE02C4EB04201D10326FC
:1002C0000AE02B4EB04201D1042605E0294EB0428F
:1002D00001D1052600E0062606FA08F62E43CCF8E2
:1002E00008604D68DAF80060ED03554601D51E43FD
:1002F00000E09E432E604D68AD0305D5DBF800603D
:100300001E43CBF8006004E0DBF800509D43CBF8BF
:1003100000504D68DEF80060ED02754601D51E43C1
:1003200000E09E432E604D68AD0205D5084D0C35AA
:100330002E681E432E6004E0054E0C3635689D4342
:100340003560641C102CFFF431AFBDE8F88F00005D
:1003500000040140000011100010024000000140A4
:1003600000080140000C0140001001400014014051
:1003700000180140001C01400AB1016170470904E6
:10038000FBE70000014800687047000004000020FF
:1003900002480168491C0160704700000400002009
:1003A000074810B5016841F010010160032000F01A
:1003B00093F8002000F006F800F018F8002010BDB7
:1003C0000020024010B5044607484FF47A710068D7
:1003D000B0FBF1F000F007FB00222146501E00F0B8
:1003E0005BF8002010BD000008000020224808B57E
:1003F000816941F001018161816901F00101009190
:10040000C16941F08051C161C06900F08050009025
:10041000032000F061F8002211466FF00B0000F09D
:100420003BF8002211466FF00A0000F035F8002278
:1004300011466FF0090000F02FF800221146501FFE
:1004400000F02AF800221146101F00F025F80022C3
:100450001146901E00F020F800221146501E00F0B8
:100460001BF80648416821F0E0614160416841F0B5
:100470000071416008BD0000001002400000014012
:1004800000F01F02012191404009800000F1E020AE
:10049000C0F8001170470000F0B40E4B1B680C460A
:1004A000C3F30223C3F10705042D00D90425191D48
:1004B000072901D2002300E0DB1E012606FA05F120
:1004C000491E214099409E40761E16403143F0BCA3
:1004D00000F080BC0CED00E0064900F0070208685F
:1004E0004FF6FF03184040EA0220034A1043086019
:1004F000704700000CED00E00000FA052DE9F04720
:10050000DFF83C8105460E46D8F8000000F00700F1
:10051000B0420CD2D8F8001021F007013143C8F8DE
:100520000010D8F8000000F00700B04263D128782E
:10053000444C800705D56068A96820F0F0000843A6
:1005400060602878C00745D06868012816D0216807
:10055000022816D0890700294DDA616821F00301CD
:1005600001436160FFF70EFF6968074641F288307A
:1005700001290FD00229814619D027E0216889037B
:10058000E9E78901E7E700BFFFF7FCFEC11B49452A
:1005900001D918E081466068C0F381000128F3D1D9
:1005A00018E000BFFFF7EEFEC11B49450BD860689D
:1005B000C0F381000228F5D10CE000BFFFF7E2FE96
:1005C000C11B494502D90320BDE8F087606810F0DF
:1005D0000C0FF3D1D8F80010404601F00701B142EA
:1005E0000BD9016821F0070131430160006800F078
:1005F0000700B04201D00120E6E72878400705D582
:100600006068E96820F4E0600843606028780007CB
:1006100006D56068296920F4605040EAC100606036
:1006200000F01CF86168084AC1F30311515CC8402E
:10063000064908600020FFF7C5FE0020C4E700005F
:100640000020024000100240401000080800002076
:1006500001480068704700000800002010B512A390
:1006600085B00FCB8DE80F0013A0144B00680490E9
:100670005A68134802F00C0104290FD008290DD143
:10068000C2F38344D2031DF8041009D55A6804ABA1
:10069000C2F340429A5CB0FBF2F0484305B010BD93
:1006A00008484843FAE70000020304050607080962
:1006B0000A0B0C0D0E0F101001020000001002407A
:1006C00000127A0000093D002DE9F84F0446007839
:1006D000B94DC00748D06868C0F38100012807D031
:1006E0006868C0F38100022809D16868C00306D594
:1006F0002868800338D5606800286FD034E06068CF
:10070000B0F5803F0BD010B1B0F5A02F11D0286804
:1007100020F480302860286820F4802002E02868D7
:1007200040F480302860606888B1FFF72BFE0646F1
:1007300009E0286840F480202860F0E7FFF722FEF7
:10074000801B642875D828688003F7D50CE0FFF774
:1007500019FE064605E000BFFFF714FE801B642863
:10076000F0D828688003F7D42078944E80074FF0A3
:1007700001094FF000083BD5686810F00C0F07D056
:100780006868C0F38100022809D16868C00306D4F4
:100790002868800714D5206901281FD110E020693E
:1007A000B0B1C6F80090FFF7EDFD074605E000BFC9
:1007B000FFF7E8FDC01B0228C4D828688007F7D5DA
:1007C0002868616920F0F80040EAC10028600FE065
:1007D000C6F80080FFF7D6FD074606E0E9E000BF57
:1007E000FFF7D0FDC01B022823D828688007F7D464
:1007F000207800072CD57248A169D9B1C0F80090C3
:10080000FFF7C0FD074604E0FFF7BCFDC01B022850
:100810000FD8686A8007F7D56A484FF4FA51006824
:10082000B0FBF1F0009000BF0098411E0091FAD299
:100830000EE080E0C0F80080FFF7A4FD074604E06A
:10084000FFF7A0FDC01B022875D8686A8007F7D49F
:100850002078400760D5E8690027C00008D4E8691F
:1008600040F08050E861E869012700F08050009076
:1008700055480168C90513D40168834641F4807165
:100880000160FFF77FFD824606E000BFFFF77AFDBB
:10089000A0EB0A0064284ED8DBF80000C005F5D5AF
:1008A000E06801280AD008B1052813D0286A20F092
:1008B00001002862286A20F0040002E0286A40F063
:1008C00001002862E06841F2883B98B1FFF75AFDC9
:1008D00082460BE0286A40F004002862EEE700BF81
:1008E000FFF750FDA0EB0A0159455AD8286A800746
:1008F000F6D50CE0FFF746FD824605E0FFF742FD26
:10090000A0EB0A0159454CD8286A8007F6D41FB1DC
:10091000E86920F08050E861E06988B36968C1F354
:100920008101022945D00228C6F8608004D0FFF773
:1009300029FD044638E034E0FFF724FD074604E0D3
:10094000FFF720FDC01B02282BD828688001F7D4B0
:10095000206AB0F5803F05D16868A16820F40030B6
:1009600008436860D4E908010843696821F47411F8
:1009700008436860C6F86090FFF704FD044606E08F
:1009800015E000BFFFF7FEFC001B022809D828680D
:100990008001F7D50BE000BFFFF7F4FC001B022835
:1009A00002D90320BDE8F88F28688001F4D4002024
:1009B000F8E70120F6E70000001002400000424284
:1009C0008004424208000020007000404FF0E02107
:1009D0000428086903D020F004000861704740F043
:1009E0000400FAE7704710B5401EB0F1807F01D3D4
:1009F000012010BD4FF0E02460610F21601700F06E
:100A0000E9F90020A06107202061002010BD10B589
:100A1000FFF7E8FF10BD7047704730B590F83C20F5
:100A2000012A20D0012280F83C20022380F83D30AA
:100A300003685C6824F070045C6003685C680D689F
:100A40002C435C6003689C6824F080049C6003680D
:100A50009C6849680C439C6080F83D20002180F828
:100A60003C10084630BD022030BD10B5040003D054
:100A700094F83D0010B107E0012010BD002084F87B
:100A80003C00204600F00CF8022084F83D00211DB7
:100A9000206800F015FA012084F83D00002010BD08
:100AA00008B500680B49884212D10B48C16941F072
:100AB0000801C161C069002200F0080000901146E1
:100AC0003220FFF7E9FCBDE808403220FFF7D8BC30
:100AD00008BD0000000C0040001002400168CA6818
:100AE00042F00102CA600068016841F00101016042
:100AF0000020704770B5044690F83C00012817D0DC
:100B0000012584F83C50022084F83D00206882686A
:100B100022F0770222F47F4282600868502837D0A2
:100B20000DDC202859D005DC88B3102841D151E0D4
:100B3000022070BD302853D040283AD13FE06028D1
:100B40002ED070280BD0B0F5805F03D0B0F5005FD9
:100B50002FD110E02068816821F0070115E0CB68F3
:100B6000D1E90121206800F0F1F92168886840F09E
:100B7000770088601DE0CB68D1E90121206800F092
:100B8000E5F92068816841F48041816011E01EE050
:100B9000CA684968206800F0EBF95021206806E037
:100BA000CA684968206800F0F4F96021206800F004
:100BB000D7F984F83D50002084F83C0070BDCA6825
:100BC0004968206800F0D4F940212068EFE700214F
:100BD0002068ECE710212068E9E720212068E6E79B
:100BE00030212068E3E7704770B50446006801696A
:100BF0004FF00005C943890715D4C168C943890767
:100C000011D4E91E016101202077206880698007E6
:100C1000204602D0FFF7E7FF04E000F098F82046F6
:100C200000F096F8257720680169C943490717D471
:100C3000C168C943490713D46FF004010161022060
:100C400020772068806910F4407F204602D0FFF7AB
:100C5000CAFF04E000F07BF8204600F079F8257721
:100C600020680169C943090716D4C168C943090747
:100C700012D46FF008010161042020772068C06958
:100C80008007204602D0FFF7AEFF04E000F05FF8D7
:100C9000204600F05DF8257720680169C943C90640
:100CA00017D4C168C943C90613D46FF0100101619C
:100CB000082020772068C06910F4407F204602D0C9
:100CC000FFF791FF04E000F042F8204600F040F802
:100CD000257720680169C943C90708D1C168C9439C
:100CE000C90704D1891E0161204600F033F820684D
:100CF0000169C943090609D4C168C943090605D475
:100D00006FF0800101612046FFF785FE20680169D0
:100D1000C943490609D4C168C943490605D46FF0DF
:100D200040010161204600F027F820680169C943AD
:100D300089060BD4C168C943890607D46FF0200126
:100D400001612046BDE87040FFF766BE70BD704788
:100D50007047000006490868401C0860C107054844
:100D600003D001224021FFF707BB0022FAE7000071
:100D700000000020001001407047FEE710B5134846
:100D800086B0114901604FF47A410024C0E9011492
:100D90003221C0E903148461FFF767FE00B1FEE76A
:100DA0004FF48050009069460848FFF7A3FE00B159
:100DB000FEE7049404A905480594FFF72EFE0028D9
:100DC00000D0FEE706B010BD000C00400C00002073
:100DD000FEE770470907090E002806DA00F00F0049
:100DE00000F1E02080F8141D704700F1E02080F849
:100DF000001470477047704710B5FFF7C9FABDE897
:100E00001040FFF704BE30B58FB0022501200490DA
:100E100000951020059000244FF46010CDE90840A3
:100E200007956846FFF750FC00B1FEE70F20CDE9BB
:100E30000A054FF48060CDE90C4002210AA80E9407
:100E4000FFF75CFB00B1FEE7FFF702FC4FF47A719D
:100E5000B0FBF1F0FFF7C7FD0420FFF7B7FD00225C
:100E60001146501EFFF718FB0FB030BD0D4801684A
:100E700041F00101016041680B4A11404160016885
:100E80000A4A11400160016821F480210160416833
:100E900021F4FE0141604FF41F0181600449C00349
:100EA00008607047001002400000FFF8FFFFF6FEE8
:100EB00008ED00E00148FFF797BE00000C0000209D
:100EC000F0B502681C4B1D4D1D4E1E4F1E4C4FF0C1
:100ED000804C984209D0A04207D0604505D0A84276
:100EE00003D0B04201D0B84204D122F0700E4A685B
:100EF00042EA0E02984209D0A04207D0604505D0D0
:100F0000A84203D0B04201D0B84203D122F44075C8
:100F1000CA682A4322F080054A692A4302608A6827
:100F2000C2620A688262984201D0A04201D1096976
:100F3000016301214161F0BD002C0140000400402B
:100F400000080040000C00400034014010B58468E7
:100F500042EA032224F47F440A432243826010BD04
:100F6000826822F070020A4342F0070181607047F4
:100F700010B5036A046A24F001040462846924F051
:100F8000F00444EA021423F00A020A438461026274
:100F900010BD10B5036A23F0100303628369046A6D
:100FA00023F4704343EA023224F0A00343EA011120
:100FB0008261016210BDFEE702E008C8121F08C18D
:100FC000002AFAD170477047002001E001C1121FCA
:100FD000002AFBD17047000086B0FFF7E1F9FFF768
:100FE00012FF1448816941F010018161816901F0AB
:100FF00010010491816941F00401816180690E4C06
:1010000000F004000490002240212046FFF7B4F9CC
:1010100040200090012001900020029002200390C7
:1010200069462046FFF7B4F8FFF7A8FE0348FFF72C
:1010300055FDFEE700100240001001400C000020AA
:101040000000000000000000010203040607080978
:1010500070100008000000200C000000B80F00080D
:101060007C1000080C00002044040000C80F000899
:0C107000000000000000000000A24A0484
:0400000508000131BD
:00000001FF
