:020000040800F2
:100000009004002045010008F10E0008ED0E0008E4
:10001000EF0E0008C1010008DB120008000000001C
:10002000000000000000000000000000150F0008A4
:10003000C301000800000000130F0008170F00089C
:100040005F0100085F0100085F0100085F01000810
:100050005F0100085F0100085F0100085F01000800
:100060005F0100085F0100085F0100085F010008F0
:100070005F0100085F0100085F0100085F010008E0
:100080005F0100085F0100085F0100085F010008D0
:100090005F0100085F0100085F0100085F010008C0
:1000A0005F0100085F0100085F0100085F010008B0
:1000B0005F0100085F0100085F0100085F010008A0
:1000C0005F0100085F0100085F0100085F01000890
:1000D0005F0100085F0100085F0100085F01000880
:1000E0005F0100085F0100085F0100085F01000870
:1000F0005F0100085F0100085F0100085F01000860
:100100005F0100085F0100085F0100085F0100084F
:10011000D50F00085F0100085F0100085F010008BB
:100120005F0100085F0100085F0100085F0100082F
:10013000DFF80CD000F032F800480047FD1200084C
:10014000900400200648804706480047FEE7FEE787
:10015000FEE7FEE7FEE7FEE7FEE7FEE7FEE7FEE777
:100160008D0F000831010008D2B201E000F8012B28
:10017000491EFBD270470022F6E710B513460A4627
:1001800004461946FFF7F0FF204610BD421C10F848
:10019000011B0029FBD1801A70470000064C074D57
:1001A00006E0E06840F0010394E807009847103447
:1001B000AC42F6D3FFF7C0FF80130008A01300087D
:1001C000FEE770472DE9F05F90F821100024022926
:1001D00003D004218163012485E001680A6822F0CC
:1001E0000E020A6001680A6822F001020A603F4EAE
:1001F0003E4FB215DFF8F4C0DFF8F090DFF8ECA066
:10020000DFF8E8B0DFF8E4E00168783F1301150299
:10021000ACF1640CA9F15009AAF13C0AABF1280B2E
:10022000AEF1140E4FF48018B14227D9B9420ED066
:10023000614512D049451DD0514518D0594518D0B7
:10024000714501D1424615E0294EB14201D101224A
:1002500010E0274E1436B14201D110220AE0244E9C
:100260002836B14206D0224A3C32914201D11A4688
:1002700000E02A461E49091F0A602BE0B94213D04C
:10028000614517D0494522D051451DD059451DD053
:10029000714501D142461AE0B14202D14FF080725D
:1002A00015E0134EB14201D1012210E0104E143678
:1002B000B14201D110220AE00D4E2836B14206D0DB
:1002C0000B4A3C32914201D11A4600E02A460749C6
:1002D00080394A60012180F82110002180F8201027
:1002E000416B01B188472046BDE8F09F8000024085
:1002F000080402402DE9F84FDFF8B8A100220AF106
:10030000040B144601274FF00F090BF1040E00BF38
:100310000B6807FA04F52B40AB4274D1DFF898C1A3
:100320004E68A6EB0C0866452BD00DDC032E34D0AE
:1003300005DC36B3012E19D0022E2FD11BE0112E71
:1003400016D0122E2AD119E0B8F5881F19D006DC74
:10035000B8F5803F15D0B8F5801F1FD111E0B8F572
:10036000001F0ED0B8F5041F18D10AE0CA6815E0C6
:10037000CA68121D12E0CA6808320FE0CA680C325F
:100380000CE08A682AB1012A4FF0080203D04561C7
:1003900004E0042202E0056100E00022FF2B01D806
:1003A000064601E000F104064FEA840501D9A5F1F3
:1003B0002005D6F800C009FA05F82CEA080C02FA64
:1003C00005F54CEA050CC6F800C04D68ED006AD58D
:1003D0003A4DAE6946F00106AE61AD6924F0030600
:1003E00005F001050095364D06EB050CDCF80850CC
:1003F000A6074FEA167809FA08F6B543314EB0421F
:1004000002D100261AE04EE02F4EB04201D1012663
:1004100014E02E4EB04201D102260FE02C4EB04225
:1004200001D103260AE02B4EB04201D1042605E09B
:10043000294EB04201D1052600E0062606FA08F64C
:100440002E43CCF808604D68DAF80060ED0355469D
:1004500001D51E4300E09E432E604D68AD0305D5D7
:10046000DBF800601E43CBF8006004E0DBF80050CE
:100470009D43CBF800504D68DEF80060ED027546F4
:1004800001D51E4300E09E432E604D68AD0205D5A8
:10049000084D0C352E681E432E6004E0054E0C36C8
:1004A00035689D433560641C102CFFF431AFBDE806
:1004B000F88F0000000401400000111000100240FD
:1004C0000000014000080140000C01400010014004
:1004D0000014014000180140001C01400148006860
:1004E000704700000800002002480168491C0160B4
:1004F0007047000008000020074810B5016841F06F
:1005000010010160032000F093F8002000F006F8CD
:1005100000F018F8002010BD0020024010B504467D
:1005200007484FF47A710068B0FBF1F000F027FB48
:1005300000222146501E00F05BF8002010BD000094
:100540000C000020224808B5816941F00101816159
:10055000816901F001010091C16941F08051C161DF
:10056000C06900F080500090032000F061F8002284
:1005700011466FF00B0000F03BF8002211466FF0BF
:100580000A0000F035F8002211466FF0090000F073
:100590002FF800221146501F00F02AF800221146C1
:1005A000101F00F025F800221146901E00F020F8E0
:1005B00000221146501E00F01BF80648416821F049
:1005C000E0614160416841F00071416008BD000098
:1005D000001002400000014000F01F020121914084
:1005E0004009800000F1E020C0F8001170470000D1
:1005F000F0B40E4B1B680C46C3F30223C3F107058E
:10060000042D00D90425191D072901D2002300E07B
:10061000DB1E012606FA05F1491E214099409E4045
:10062000761E16403143F0BC00F063BC0CED00E0D8
:10063000064900F0070208684FF6FF03184040EA39
:100640000220034A10430860704700000CED00E0F0
:100650000000FA052DE9F047DFF83C8105460E461B
:10066000D8F8000000F00700B0420CD2D8F8001013
:1006700021F007013143C8F80010D8F8000000F05D
:100680000700B04263D12878444C800705D56068E4
:10069000A96820F0F000084360602878C00745D0C2
:1006A0006868012816D02168022816D08907002919
:1006B0004DDA616821F0030101436160FFF70EFF2D
:1006C0006968074641F2883001290FD00229814626
:1006D00019D027E021688903E9E78901E7E700BF2E
:1006E000FFF7FCFEC11B494501D918E0814660684F
:1006F000C0F381000128F3D118E000BFFFF7EEFE40
:10070000C11B49450BD86068C0F381000228F5D1B0
:100710000CE000BFFFF7E2FEC11B494502D90320F0
:10072000BDE8F087606810F00C0FF3D1D8F8001026
:10073000404601F00701B1420BD9016821F00701E1
:1007400031430160006800F00700B04201D0012091
:10075000E6E72878400705D56068E96820F4E0609E
:10076000084360602878000706D56068296920F48E
:10077000605040EAC100606000F03CF86168084ADF
:10078000C1F30311515CC840064908600020FFF71F
:10079000C5FE0020C4E70000002002400010024017
:1007A000681300080C000020014800687047000032
:1007B0000C0000200448054900684968044AC1F358
:1007C0000221515CC84070470C000020001002401C
:1007D000781300080448054900684968044AC1F3D1
:1007E000C221515CC84070470C000020001002403C
:1007F0007813000810B512A385B00FCB8DE80F0059
:1008000013A0144B006804905A68134802F00C01BE
:1008100004290FD008290DD1C2F38344D2031DF857
:10082000041009D55A6804ABC2F340429A5CB0FB8D
:10083000F2F0484305B010BD08484843FAE700000D
:1008400002030405060708090A0B0C0D0E0F101011
:10085000010200000010024000127A0000093D0071
:100860002DE9F84F04460078B94DC00748D06868B4
:10087000C0F38100012807D06868C0F38100022816
:1008800009D16868C00306D52868800338D5606838
:1008900000286FD034E06068B0F5803F0BD010B115
:1008A000B0F5A02F11D0286820F480302860286887
:1008B00020F4802002E0286840F4803028606068DE
:1008C00088B1FFF70BFE064609E0286840F4802057
:1008D0002860F0E7FFF702FE801B642875D82868BF
:1008E0008003F7D50CE0FFF7F9FD064605E000BFF1
:1008F000FFF7F4FD801B6428F0D828688003F7D444
:100900002078944E80074FF001094FF000083BD546
:10091000686810F00C0F07D06868C0F381000228E7
:1009200009D16868C00306D42868800714D52069F7
:1009300001281FD110E02069B0B1C6F80090FFF780
:10094000CDFD074605E000BFFFF7C8FDC01B02282C
:10095000C4D828688007F7D52868616920F0F800B6
:1009600040EAC10028600FE0C6F80080FFF7B6FD3E
:10097000074606E0E9E000BFFFF7B0FDC01B022814
:1009800023D828688007F7D4207800072CD5724830
:10099000A169D9B1C0F80090FFF7A0FD074604E0B7
:1009A000FFF79CFDC01B02280FD8686A8007F7D5A7
:1009B0006A484FF4FA510068B0FBF1F0009000BFB4
:1009C0000098411E0091FAD20EE080E0C0F800804D
:1009D000FFF784FD074604E0FFF780FDC01B0228F7
:1009E00075D8686A8007F7D42078400760D5E86931
:1009F0000027C00008D4E86940F08050E861E86949
:100A0000012700F08050009055480168C90513D4B3
:100A10000168834641F480710160FFF75FFD824603
:100A200006E000BFFFF75AFDA0EB0A0064284ED88D
:100A3000DBF80000C005F5D5E06801280AD008B150
:100A4000052813D0286A20F001002862286A20F0C7
:100A5000040002E0286A40F001002862E06841F2E8
:100A6000883B98B1FFF73AFD82460BE0286A40F0D8
:100A700004002862EEE700BFFFF730FDA0EB0A019B
:100A800059455AD8286A8007F6D50CE0FFF726FDAD
:100A9000824605E0FFF722FDA0EB0A0159454CD83C
:100AA000286A8007F6D41FB1E86920F08050E86119
:100AB000E06988B36968C1F38101022945D0022841
:100AC000C6F8608004D0FFF709FD044638E034E042
:100AD000FFF704FD074604E0FFF700FDC01B0228F6
:100AE0002BD828688001F7D4206AB0F5803F05D163
:100AF0006868A16820F4003008436860D4E9080100
:100B00000843696821F4741108436860C6F860906E
:100B1000FFF7E4FC044606E015E000BFFFF7DEFC4B
:100B2000001B022809D828688001F7D50BE000BF18
:100B3000FFF7D4FC001B022802D90320BDE8F88F80
:100B400028688001F4D40020F8E70120F6E70000CF
:100B50000010024000004242800442420C0000208B
:100B6000007000404FF0E0210428086903D020F015
:100B700004000861704740F00400FAE7704710B5C0
:100B8000401EB0F1807F01D3012010BD4FF0E02462
:100B900060610F21601700F0ACF90020A061072010
:100BA0002061002010BD10B5FFF7E8FF10BD7047B1
:100BB00070B5026804461068D168536910F00F0FD1
:100BC00050D003F0010501F4907635435DD0C207A3
:100BD00005D0CA0503D5E26B42F00102E263420789
:100BE00005D5DA0703D0E26B42F00202E263820726
:100BF00005D5DA0703D0E26B42F00402E263020794
:100C000005D5DA0703D0E26B42F00802E263E26B3B
:100C1000002A33D0800604D5880602D5204600F08D
:100C2000F5F920684069E16BC0F38010090700D432
:100C300028B3204600F0DCF92068416949061AD53E
:100C4000416921F040014161606BA0B11B494163E2
:100C5000606BFFF7B7FA002810D0606B416BBDE8FE
:100C600070400847830610D58B060ED52046BDE898
:100C7000704000F0CBB92046FFF799FF70BD2046C9
:100C8000FFF795FF0020E06370BD030606D50B0655
:100C900004D52046BDE8704000F0BCBA4006F3D54C
:100CA0004806F1D5D168204621F04001D1602021CD
:100CB00084F8391000F019F970BD0000E10F000848
:100CC00070B5040004D094F83900002510B106E096
:100CD000012070BD84F83850204600F023F824200D
:100CE00084F839002068C16821F40051C1602046B1
:100CF00000F0D8F92068016921F490410161206871
:100D0000416921F02A0141612068C16841F4005124
:100D1000C160E563202084F8390084F83A0000209F
:100D200070BD000010B50068154986B0884225D115
:100D30001448C16941F40021C161C069124C00F43A
:100D4000002004904FF48060009002200190032066
:100D5000039069462046FFF7CDFA0021E014CDE963
:100D60000001029169462046FFF7C4FA00221146AD
:100D70003420FFF73DFC3420FFF72EFC06B010BDF9
:100D8000004C0040001002400010014090F83A3042
:100D9000202B22D1F9B1F2B190F83830012B1CD0C0
:100DA00081628285C2850021C163222280F83A20B7
:100DB00080F838100168CA6842F48072CA6001681D
:100DC0004A6942F001024A610068C16841F02001AD
:100DD000C16000207047012070470220704700006A
:100DE00010B51148114A0446017860681154401C3E
:100DF00060603B290FD11046FFF7C8F90B4982B25A
:100E00006423A1F1400000F013F80020606040214D
:100E10000648FFF7B0F905480122BDE81040024935
:100E20004038FFF7B3BF0000000000205000002052
:100E30002DE9F843044690F839001F4616460D4642
:100E4000202850D1A5B19EB194F8380001284AD08D
:100E5000012084F838004FF00008C4F83C802120BD
:100E600084F83900FFF73AFBA6848146E68426E041
:100E70000120BDE8F883E08C401EE084A0684B466A
:100E8000B0F5805F4FF000024FF0800120460097E0
:100E900003D000F0F0F9E8B90DE000F0ECF9C8B9C2
:100EA00028882168C0F308004860206908B16D1CDB
:100EB00005E0AD1C03E0216815F8010B4860E08CEB
:100EC0000028D8D14B46002240212046009700F050
:100ED000D2F908B10320CCE7202084F8390084F847
:100EE00038800020C5E70220C3E77047FEE7FEE731
:100EF00070470907090E002806DA00F00F0000F11C
:100F0000E02080F8141D704700F1E02080F8001404
:100F100070477047704710B5FFF7E6FABDE810401C
:100F2000FFF741BE30B58FB0022501200490009537
:100F30001020059000244FF46010CDE9084007957B
:100F40006846FFF78DFC00B1FEE70F20CDE90A05EA
:100F50004FF48060CDE90C4002210AA80E94FFF7FF
:100F600079FB00B1FEE7FFF71FFC4FF47A71B0FB8D
:100F7000F1F0FFF704FE0420FFF7F4FD0022114614
:100F8000501EFFF735FB0FB030BD00000D48016863
:100F900041F00101016041680B4A11404160016864
:100FA0000A4A11400160016821F480210160416812
:100FB00021F4FE0141604FF41F0181600449C00328
:100FC00008607047001002400000FFF8FFFFF6FEC7
:100FD00008ED00E00148FFF7EBBD00001000002025
:100FE00010B5406A0021C185C184FFF7E0FD10BD46
:100FF0000168CA6822F49072CA6001684A6922F0E6
:1010000001024A61202180F83A10704710B590F82B
:101010003A10222901D0022010BD8168B1F5805F0D
:1010200011D00169002901681FD0496801F07F03D0
:10103000816A4A1C82620B70C18D491E0904090C29
:10104000C18518D02BE00269816A002A02685268C3
:1010500005D0D2B20A80816A491C8162ECE7C2F3F2
:1010600008020A80816A891CF7E74A68816A4B1C7A
:1010700083620A70E0E70168CA6822F02002CA6051
:101080000168CA6822F48072CA6001684A6922F065
:1010900001024A61202180F83A10FFF7A1FE0020EA
:1010A00010BD00002DE9F041044600680169E268C6
:1010B00021F44051114301612169A068084361692D
:1010C00008432168CA6841F20C639A430243CA602C
:1010D00020684169A26921F44071114341614C4982
:1010E00020686425322688423CD1FFF773FB00EB71
:1010F000C00101EB001061688900B0FBF1F7FFF758
:1011000069FB00EBC00101EB00106168B04689008B
:10111000B0FBF1F0B0FBF5F06FF01801484307EBBE
:10112000800106EB0110B0FBF5F000F0F006FFF7D0
:1011300051FB00EBC00101EB001061688900B0FBBE
:10114000F1F0B0FBF5F006EB0016FFF743FB00EB08
:10115000C00101EB001061688900B0FBF1F7FFF7F7
:1011600039FB3BE0FFF726FB00EBC00101EB001071
:1011700061688900B0FBF1F7FFF71CFB00EBC001D1
:1011800001EB00106168B0468900B0FBF1F0B0FBE4
:10119000F5F06FF01801484307EB800106EB0110F2
:1011A000B0FBF5F000F0F006FFF704FB00EBC00128
:1011B00001EB001061688900B0FBF1F0B0FBF5F0C5
:1011C00006EB0016FFF7F6FA00EBC00101EB00108A
:1011D00061688900B0FBF1F7FFF7ECFA00EBC001A2
:1011E00001EB001061688900B0FBF1F0B0FBF5F095
:1011F0006FF01801484307EB800108EB0110B0FBCA
:10120000F5F0216800F00F0030448860BDE8F081FF
:101210000038014090F83910212901D00220704790
:101220008168B1F5805F016A0BD04A1C02620268D6
:1012300009785160C18C491E0904090CC1840ED083
:1012400017E009880268C1F30801516001690029AB
:10125000016A02D0491C0162ECE7891CFBE70168C6
:10126000CA6822F08002CA600068C16841F040018B
:10127000C160002070472DE9F041984617460E46A0
:101280000446069D1DE0681C1BD02DB1FFF726F912
:10129000A0EB0800A84214D92068C16821F4D071DD
:1012A000C1602068416921F001014161202084F87A
:1012B000390084F83A00002084F838000320BDE8A3
:1012C000F0812068006836EA000004D00020B842AF
:1012D000D9D00020F3E70120F9E7FEE702E008C8D3
:1012E000121F08C1002AFAD170477047002001E0A0
:1012F00001C1121F002AFBD17047000008B5FFF79B
:10130000FBF8FFF70FFE1448816941F00401816189
:10131000816901F004010091816941F0100181614E
:1013200080690E4900F0100000900D480C22016009
:101330004FF4E131416000218160C160C0E90412D5
:101340008161C161FFF7BCFC00B1FEE701220549E4
:101350000348FFF71BFDFEE700100240004C004071
:10136000100000200000002000000000000000002D
:10137000010203040607080900000000010203043B
:10138000A01300080000002010000000DC1200087C
:10139000B01300081000002080040000EC120008C8
:1013A00000000000000000000000000000A24A044D
:0400000508000131BD
:00000001FF
