:020000040800F2
:1000000078080020450100086F120008C30E0008A0
:100010006D120008B9010008451500080000000035
:100020000000000000000000000000009314000821
:10003000BB0100080000000091140008951400089E
:100040005F0100085F0100085F0100085F01000810
:100050005F0100085F0100085F0100085F01000800
:100060005F0100085F010008BD0100085F01000892
:100070005F0100085F0100085F0100085F010008E0
:100080005F0100085F0100085F0100085F010008D0
:100090005F0100085F0100085F010008C30100085C
:1000A0005F0100085F0100085F0100085F010008B0
:1000B0005F0100085F0100085F0100085F010008A0
:1000C0005F0100085F0100085F0100085F01000890
:1000D0005F0100085F0100085F0100085F01000880
:1000E0005F0100085F0100085F0100085F01000870
:1000F0005F0100085F0100085F0100085F01000860
:100100005F0100085F0100085F0100085F0100084F
:100110005F0100085F0100085F0100085F0100083F
:100120005F0100085F0100085F0100085F0100082F
:10013000DFF80CD000F02EF8004800471518000832
:10014000780800200648804706480047FEE7FEE79B
:10015000FEE7FEE7FEE7FEE7FEE7FEE7FEE7FEE777
:10016000FD1400083101000830B50B46014600209F
:100170002022012409E021FA02F59D4205D303FA69
:1001800002F5491B04FA02F52844151EA2F10102EA
:10019000F1DC30BD064C074D06E0E06840F001039D
:1001A00094E8070098471034AC42F6D3FFF7C4FF39
:1001B00088200008A8200008FEE77047102000F003
:1001C000DBB810B5202000F0D7F8402000F0D4F8BC
:1001D000BDE81040802000F0CFB801460020412942
:1001E0002CD014DC212927D009DC112922D0122996
:1001F00026D014292AD0182900D13120704722296D
:1002000020D0242924D02829F8D1342070478129EE
:1002100022D007DC422917D044291BD04829F5D128
:1002200037207047822919D0842919D08829F8D11C
:10023000512070474120704742207047432070474B
:10024000332070473620704739207047322070477E
:10025000352070473820704744207047452070474C
:10026000302070472DE9FF470025234FA9462A4635
:100270000F21384600F085F90F20009011200190E1
:10028000022003906946384600F082F8F020009082
:1002900000200124CDE901046946384600F078F8D1
:1002A0000426B84604FA06F7B9B2404600F064F9ED
:1002B00008B92F43FDB2761CF6B2082EF2D3A5B1D1
:1002C00000F036FF5FF0000604FA06F7B9B24046C8
:1002D00000F052F908B92F43FDB2761CF6B2042E95
:1002E000F2D32846FFF779FF814601F05DFA04B0AA
:1002F0004846BDE8F08700000008014031B500F035
:1003000045F9009C0546601C00D0641C00F03EF9D5
:10031000401BA042FAD338BD70B5054600F036F94F
:100320000E4C6168411AC82916DB60602068401CC9
:1003300020602846FFF796FF024609A10D48236872
:1003400001F00AF9002102230A4A084601F05EF88A
:10035000BDE8704001F006BA70BD0000000000204A
:10036000552070726573732025632025642074699D
:100370006D65730064000020044910B50A680242EC
:1003800002D00860FFF7C8FF10BD00001404014050
:100390002DE9F84FDFF8B8A100220AF1040B14464A
:1003A00001274FF00F090BF1040E00BF0B6807FA8D
:1003B00004F52B40AB4274D1DFF898C14E68A6EB30
:1003C0000C0866452BD00DDC032E34D005DC36B38B
:1003D000012E19D0022E2FD11BE0112E16D0122E75
:1003E0002AD119E0B8F5881F19D006DCB8F5803F8E
:1003F00015D0B8F5801F1FD111E0B8F5001F0ED041
:10040000B8F5041F18D10AE0CA6815E0CA68121DC1
:1004100012E0CA6808320FE0CA680C320CE08A6841
:100420002AB1012A4FF0080203D0456104E00422FA
:1004300002E0056100E00022FF2B01D8064601E042
:1004400000F104064FEA840501D9A5F12005D6F88C
:1004500000C009FA05F82CEA080C02FA05F54CEA86
:10046000050CC6F800C04D68ED006AD53A4DAE697E
:1004700046F00106AE61AD6924F0030605F0010502
:100480000095364D06EB050CDCF80850A6074FEA40
:10049000167809FA08F6B543314EB04202D100266B
:1004A0001AE04EE02F4EB04201D1012614E02E4E4C
:1004B000B04201D102260FE02C4EB04201D10326FA
:1004C0000AE02B4EB04201D1042605E0294EB0428D
:1004D00001D1052600E0062606FA08F62E43CCF8E0
:1004E00008604D68DAF80060ED03554601D51E43FB
:1004F00000E09E432E604D68AD0305D5DBF800603B
:100500001E43CBF8006004E0DBF800509D43CBF8BD
:1005100000504D68DEF80060ED02754601D51E43BF
:1005200000E09E432E604D68AD0205D5084D0C35A8
:100530002E681E432E6004E0054E0C3635689D4340
:100540003560641C102CFFF431AFBDE8F88F00005B
:1005500000040140000011100010024000000140A2
:1005600000080140000C014000100140001401404F
:1005700000180140001C01408068084000D00120A4
:1005800070470AB1016170470904FBE70148006840
:10059000704700000800002070B5040004D094F8F3
:1005A0003D00002510B106E0012070BD84F83C50EC
:1005B000204600F011F9242084F83D0020680168ED
:1005C00021F00101016000F08FFA33492268B0FB8D
:1005D000F1F15160314A6368934206D94FF4967342
:1005E00059434FF47A73B1FBF3F12368491C196244
:1005F000616891420BD84900B0FBF1F2C2F30B02E3
:10060000042A01D2042019E0B0FBF1F016E0A3683F
:100610009BB301EBC10202EB0112B0FBF2F242F418
:100620008042120530D04BB301EBC10202EB011145
:10063000B0FBF1F040F4804040F400402168C86114
:10064000D4E90701084321680860D4E9031008438E
:1006500021688860D4E9050108432168C8602068E2
:10066000016841F0010101602564202084F83D000B
:10067000256384F83E50002070BD00E006E001EBE9
:100680004102B0FBF2F2CCE70120D7E701EB4101D8
:10069000B0FBF1F0D0E7000040420F00A08601005F
:1006A0002DE9F84F1F4690468A460446DDF828900B
:1006B000FFF76CFF064694F83D0020287ED11923F1
:1006C000012243492046009600F081FC00287DD19C
:1006D00094F83C00012879D0012084F83C0020687F
:1006E0000168C90703D1016841F001010160206878
:1006F000016821F400610160212084F83D00102090
:1007000084F83E0000252564C4F8248067853148BC
:10071000E062608D208533464A465146204600F00F
:10072000E5FB28B1206C84F83C5004284CD00DE047
:10073000206841698069009030E032464946204691
:1007400000F0BAFC28B1206C042838D00320BDE8A2
:10075000F88F606A411C6162216800780861608DD1
:10076000401E6085208D401E80B2208521684A6928
:10077000D24352070BD450B1606A421C62620078C7
:100780000861608D401E6085208D401E20853246A8
:100790004946204600F0F4FB0028D4D1208D0028E3
:1007A000CBD154F83D0B016841F400710160202069
:1007B00004F81E09E57765770020C8E706E02068A1
:1007C000016841F4007101600120C0E70220BEE72A
:1007D000020010000000FFFF00B500680C4985B062
:1007E000884212D1C0200090122001900320039073
:1007F00069460848FFF7CCFD0748C16941F400117C
:10080000C161C06900F40010049005B000BD000093
:1008100000540040000C01400010024002480168F2
:10082000491C01607047000008000020074810B50F
:10083000016841F010010160032000F093F80020EE
:1008400000F006F800F018F8002010BD002002406B
:1008500010B5044607484FF47A710068B0FBF1F018
:1008600000F017FB00222146501E00F05BF800202C
:1008700010BD00000C000020224808B5816941F03D
:1008800001018161816901F001010091C16941F0BB
:100890008051C161C06900F080500090032000F0D9
:1008A00061F8002211466FF00B0000F03BF80022C7
:1008B00011466FF00A0000F035F8002211466FF083
:1008C000090000F02FF800221146501F00F02AF80E
:1008D00000221146101F00F025F800221146901E3C
:1008E00000F020F800221146501E00F01BF80648C8
:1008F000416821F0E0614160416841F00071416070
:1009000008BD0000001002400000014000F01F027E
:10091000012191404009800000F1E020C0F8001161
:1009200070470000F0B40E4B1B680C46C3F3022363
:10093000C3F10705042D00D90425191D072901D28B
:10094000002300E0DB1E012606FA05F1491E2140C6
:1009500099409E40761E16403143F0BC00F088BCA2
:100960000CED00E0064900F0070208684FF6FF03AF
:10097000184040EA0220034A104308607047000014
:100980000CED00E00000FA052DE9F047DFF83C81AE
:1009900005460E46D8F8000000F00700B0420CD221
:1009A000D8F8001021F007013143C8F80010D8F83A
:1009B000000000F00700B04263D12878444C800763
:1009C00005D56068A96820F0F000084360602878C9
:1009D000C00745D06868012816D02168022816D0C3
:1009E000890700294DDA616821F003010143616044
:1009F000FFF7CCFD6968074641F2883001290FD026
:100A00000229814619D027E021688903E9E7890195
:100A1000E7E700BFFFF7BAFDC11B494501D918E060
:100A200081466068C0F381000128F3D118E000BF5F
:100A3000FFF7ACFDC11B49450BD86068C0F38100CE
:100A40000228F5D10CE000BFFFF7A0FDC11B49450E
:100A500002D90320BDE8F087606810F00C0FF3D1D5
:100A6000D8F80010404601F00701B1420BD90168E7
:100A700021F0070131430160006800F00700B04237
:100A800001D00120E6E72878400705D56068E968CD
:100A900020F4E060084360602878000706D56068AD
:100AA000296920F4605040EAC100606000F02CF831
:100AB0006168084AC1F30311515CC84006490860E7
:100AC0000020FFF7C5FE0020C4E700000020024020
:100AD00000100240702000080C000020014800684F
:100AE000704700000C000020044805490068496870
:100AF000044AC1F30221515CC84070470C00002039
:100B0000001002408020000810B512A385B00FCB62
:100B10008DE80F0013A0144B006804905A68134826
:100B200002F00C0104290FD008290DD1C2F383442F
:100B3000D2031DF8041009D55A6804ABC2F3404231
:100B40009A5CB0FBF2F0484305B010BD084848433A
:100B5000FAE7000002030405060708090A0B0C0D5A
:100B60000E0F1010010200000010024000127A0067
:100B700000093D002DE9F84F04460078B94DC00743
:100B800048D06868C0F38100012807D06868C0F3C6
:100B90008100022809D16868C00306D5286880034F
:100BA00038D5606800286FD034E06068B0F5803FC9
:100BB0000BD010B1B0F5A02F11D0286820F48030F0
:100BC0002860286820F4802002E0286840F4803003
:100BD0002860606888B1FFF7D9FC064609E02868FC
:100BE00040F480202860F0E7FFF7D0FC801B6428E9
:100BF00075D828688003F7D50CE0FFF7C7FC0646D8
:100C000005E000BFFFF7C2FC801B6428F0D828680D
:100C10008003F7D42078944E80074FF001094FF0FD
:100C200000083BD5686810F00C0F07D06868C0F367
:100C30008100022809D16868C00306D428688007AB
:100C400014D5206901281FD110E02069B0B1C6F881
:100C50000090FFF79BFC074605E000BFFFF796FCFE
:100C6000C01B0228C4D828688007F7D528686169A6
:100C700020F0F80040EAC10028600FE0C6F80080CC
:100C8000FFF784FC074606E0E9E000BFFFF77EFCC3
:100C9000C01B022823D828688007F7D420780007D3
:100CA0002CD57248A169D9B1C0F80090FFF76EFC4D
:100CB000074604E0FFF76AFCC01B02280FD8686AE9
:100CC0008007F7D56A484FF4FA510068B0FBF1F09D
:100CD000009000BF0098411E0091FAD20EE080E023
:100CE000C0F80080FFF752FC074604E0FFF74EFC17
:100CF000C01B022875D8686A8007F7D4207840079F
:100D000060D5E8690027C00008D4E86940F0805049
:100D1000E861E869012700F08050009055480168BB
:100D2000C90513D40168834641F480710160FFF75F
:100D30002DFC824606E000BFFFF728FCA0EB0A006E
:100D400064284ED8DBF80000C005F5D5E06801281E
:100D50000AD008B1052813D0286A20F001002862C3
:100D6000286A20F0040002E0286A40F001002862AE
:100D7000E06841F2883B98B1FFF708FC82460BE03F
:100D8000286A40F004002862EEE700BFFFF7FEFB90
:100D9000A0EB0A0159455AD8286A8007F6D50CE01D
:100DA000FFF7F4FB824605E0FFF7F0FBA0EB0A013A
:100DB00059454CD8286A8007F6D41FB1E86920F05D
:100DC0008050E861E06988B36968C1F38101022954
:100DD00045D00228C6F8608004D0FFF7D7FB044650
:100DE00038E034E0FFF7D2FB074604E0FFF7CEFB24
:100DF000C01B02282BD828688001F7D4206AB0F5E0
:100E0000803F05D16868A16820F40030084368601D
:100E1000D4E908010843696821F474110843686043
:100E2000C6F86090FFF7B2FB044606E015E000BF8D
:100E3000FFF7ACFB001B022809D828688001F7D512
:100E40000BE000BFFFF7A2FB001B022802D9032022
:100E5000BDE8F88F28688001F4D40020F8E701206D
:100E6000F6E70000001002400000424280044242C7
:100E70000C000020007000404FF0E02104280869B9
:100E800003D020F004000861704740F00400FAE746
:100E9000704710B5401EB0F1807F01D3012010BD16
:100EA0004FF0E02460610F21601700F0E1F90020AD
:100EB000A06107202061002010BD10B5FFF7E8FFFA
:100EC00010BDFEE701684A69D24352050CD46FF4A5
:100ED00080624A6104210164002140F8301F202211
:100EE000427301730120704700207047F8B5044633
:100EF000C06A1E460D461746042807D0012805D0B3
:100F000010F5803F02D0206B122804D120680168C0
:100F100041F480710160134600224FF00111204618
:100F2000009600F054F8A0B92069B0F5804F12D0B7
:100F30000620216800EAD51040F0F0000861334631
:100F40003A460E49204600F073F838B1206C042868
:100F500011D00320F8BD05F0FE0000E0E8B22168E2
:100F60000861064933463A46891F204600F060F87A
:100F70000028EBD1F8BD0120F8BD000008000100F9
:100F800070B516460D4604461AE02046FFF79AFF54
:100F900008B1012070BD681C12D025B1FFF7F6FA28
:100FA000801BA8420CD954F8400F40F0200044F8B0
:100FB000100900202060202161732073032070BD80
:100FC00020684069C0434007DFD4002070BD2DE990
:100FD000F0471E4690460D460446C1F30747DDF82C
:100FE000209012E0701C10D02EB1FFF7CFFAA0EBCA
:100FF0000900B04209D9002044F8300F2021617364
:10100000A07320730320BDE8F0872068012F0AD069
:10101000806925EA00000004000C06D0002141454B
:10102000E0D00020EFE74069F3E70121F7E7000097
:101030002DE9F0479A4691460D46044600264FF0AA
:101040002008C1F307472AE020684069C0434005F3
:1010500012D42068016841F40071016021686FF4C6
:101060008060486104202064266384F83D8084F811
:101070003C600120BDE8F087B9F1FF3F0FD0B9F126
:10108000000F05D0FFF782FAA0EB0A01494506D907
:1010900044F8306F84F80D8026730320EAE7206857
:1010A000012F07D0D0F8180025EA00000004000C3A
:1010B000E0D0C9E74069F7E770B516460D4604462B
:1010C0001AE02046FFF7FEFE08B1012070BD681C43
:1010D00012D025B1FFF75AFA801BA8420CD954F858
:1010E000400F40F0200044F810090020206020212B
:1010F00061732073032070BD20684069C0430006FF
:10110000DFD4002070BD00001CB502238DF8040060
:101110004FF47A708DF80510009001AA78210248EA
:10112000FFF7BEFA1CBD00001000002000F03CBB21
:10113000174810B5816986B041F004018161816969
:1011400001F004010491816941F008018161806925
:10115000104C00F0080004900022F0212046FFF718
:1011600010FAF020009011200190022003906946AF
:101170002046FFF70DF90F2000900020019001207C
:10118000029069462046FFF703F906B010BD000043
:10119000001002400008014030B5234885B0816945
:1011A00041F004018161816901F0040104918169C8
:1011B00041F00801816180691C4D00F00800049035
:1011C00000220E212846FFF7DCF901240320CDE997
:1011D000004069462846FFF7DBF80E20CDE9000401
:1011E00000240220CDE9024069462846FFF7D0F8E6
:1011F000F02000900E48CDE9010469462846FFF72B
:10120000C7F8002211460A20FFF78CFB0A20FFF7DF
:101210007DFB002211461720FFF784FB1720FFF704
:1012200075FB05B030BD0000001002400008014011
:10123000000011100B4810B5094901600A494160CE
:1012400000214FF480428160C0E903124161816155
:10125000C1610162FFF7A0F9002800D0FEE710BDD0
:101260000054004010000020801A0600FEE770477E
:101270000907090E002806DA00F00F0000F1E0204F
:1012800080F8141D704700F1E02080F800147047CA
:1012900010B500F005F8BDE8104000F063BA00009A
:1012A00010B50021074C0A46002004EBC1131A5464
:1012B000401CC0B28028FAD3491CC9B20829F3D314
:1012C00010BD0000740000202DE9FF4F92468146BA
:1012D000002624E001984C4600EBC6070AEB040800
:1012E00019E006FB0A400025A0EB090B802C0CD26C
:1012F000402F0AD20D9911F80B00E84000F00102CE
:101300007819C1B2204600F069F86D1CEDB2082DC5
:10131000ECD3641CE4B2A045E3D8761CF6B2039883
:101320008642D7D3BDE8FF8F10B56420FEF7E6FFF5
:10133000AE2000F008F9202000F005F9102000F0A0
:1013400002F9B02000F0FFF8C82000F0FCF80020FF
:1013500000F0F9F8102000F0F6F8402000F0F3F863
:10136000812000F0F0F8FF2000F0EDF8A12000F05F
:10137000EAF8A62000F0E7F8A82000F0E4F83F2003
:1013800000F0E1F8A42000F0DEF8D32000F0DBF854
:10139000002000F0D8F8D52000F0D5F8F02000F0BB
:1013A000D2F8D92000F0CFF8222000F0CCF8DA20D3
:1013B00000F0C9F8122000F0C6F8DB2000F0C3F8F6
:1013C000202000F0C0F88D2000F0BDF8142000F0BF
:1013D000BAF8BDE81040AF2000F0B5B830B54029EC
:1013E00010D880280ED801F007040123064DA34031
:1013F000C90805EBC111002A0A5C01D01A4300E0BC
:101400009A430A5430BD0000740000202DE9F841D1
:101410000024164688460546802833D8B8F13F0F89
:1014200030D8012B2AD0022B2CD1174F305D002849
:1014300028D020280AD307EB0010A0F500700090F8
:101440000223082241462846FFF73EFF641C083568
:10145000E4B2EDB2EAE720280BD300EB400007EB43
:101460004000C03800900123062241462846FFF77D
:101470002BFF641CAD1DE4B2EDB200E0034F305D04
:101480000028E8D1BDE8F881801A00085818000843
:101490007047704710B5FFF7C1F9BDE81040FFF77E
:1014A0000CBD10B590B002200090012004901020D7
:1014B0000024059007946846FFF75CFB00B1FEE747
:1014C0000F20CDE90A040C940D9400210AA80E9473
:1014D000FFF75AFA00B1FEE7FFF700FB4FF47A710D
:1014E000B0FBF1F0FFF7D5FC0420FFF7C5FC0022AC
:1014F0001146501EFFF716FA10B010BD0D480168D6
:1015000041F00101016041680B4A114041600168EE
:101510000A4A11400160016821F48021016041689C
:1015200021F4FE0141604FF41F0181600449C003B2
:1015300008607047001002400000FFF8FFFFF6FE51
:1015400008ED00E0FEE701460020FFF7DDBD0146A3
:101550004020FFF7D9BD00000FB4084B10B504A917
:1015600002AA039800F01CF8044602A9002000F02B
:10157000F3F8204610BC5DF814FB00005917000872
:1015800002E008C8121F08C1002AFAD1704770474C
:10159000002001E001C1121F002AFBD170470000AA
:1015A0002DE9FF4F8BB09A460F460546002606E010
:1015B00025280BD052460D9990476D1C761C287833
:1015C0000028F5D10FB03046BDE8F08F0024A046CA
:1015D0000122604900E0044315F8013F203B02FA74
:1015E00003F00842F7D128782E2817D115F8010FFB
:1015F00044F004042A280ED06FF02F022878A0F1BE
:10160000300109290AD808EB880102EB410100EBFF
:1016100001086D1CF2E757F8048B6D1C28786928C7
:101620003ED006DC0028CDD063280BD0642804D13E
:1016300036E0732810D075284BD052460D9990474C
:10164000761C85E017F8040B8DF8000000208DF85B
:101650000100E946012003E057F8049B4FF0FF30FA
:1016600061074FF0000401D40AE0641C44450DDA20
:101670008442FADB19F804100029F6D106E0641C54
:101680008442FCDB19F804100029F8D1264404E058
:1016900019F8010B52460D999047641EF8D257E095
:1016A00001CF4FF00A0B002802DA40422D2102E060
:1016B000210504D52B218DF82410012103E0E10739
:1016C00005D02021F7E70DF1200908910CE0002159
:1016D000F9E701CF4FF00A0BF9E75946FEF744FD51
:1016E00001F1300209F8012D0028F6D1ADEB090017
:1016F00000F1200B600701D44FF00108D84502DD4E
:10170000A8EB0B0000E000208046002406E009A8BA
:101710005246005D0D999047641C761C08988442DF
:10172000F5DB04E0302052460D999047761CB8F165
:101730000001A8F10108F5DC05E019F8010B52469B
:101740000D999047761CBBF10001ABF1010BF4DC65
:101750006D1C34E7092801000A68531C0B601070E7
:10176000704700002DE9F0410E4F002404F1B00055
:10177000C0B2FFF7E8FE0020FFF7E5FE1020FFF7FC
:10178000E2FE002507EBC416705DFFF7E0FE6D1C5E
:10179000EDB2802DF8D3641CE4B2082CE6D3BDE88A
:1017A000F081000074000020174810B5816986B0F0
:1017B00041F004018161816901F0040104918169B2
:1017C00041F0080181618069104C00F0080004902C
:1017D00000220F212046FEF7D4FE0F20009011209A
:1017E00001900220039069462046FEF7D1FDF020CB
:1017F0000090074801900120029069462046FEF7BC
:10180000C7FD06B010BD00000010024000080140F6
:1018100000002110FFF70AF8FFF743FEFFF7BCFCBA
:10182000FFF708FDFFF780FDFFF732FD022308A256
:1018300010210020FFF7EAFDFFF794FF41F2883006
:10184000FEF75CFDFFF724FDFFF770FCFEE70000EC
:1018500057656C636F6D65000000000000000000BC
:10186000002F000000000700070000147F147F1401
:1018700000242A7F2A120062640813230036495587
:10188000225000000503000000001C22410000005F
:1018900041221C000014083E08140008083E0808F5
:1018A000000000A060000008080808080000606050
:1018B0000000002010080402003E5149453E00008F
:1018C000427F4000004261514946002141454B3171
:1018D000001814127F10002745454539003C4A493D
:1018E00049300001710905030036494949360006AF
:1018F0004949291E00003636000000005636000017
:101900000008142241000014141414140000412291
:10191000140800020151090600324959513E007C69
:101920001211127C007F49494936003E4141412253
:10193000007F4141221C007F49494941007F09093C
:101940000901003E4149497A007F0808087F0000EC
:10195000417F4100002040413F01007F08142241A7
:10196000007F40404040007F020C027F007F04085F
:10197000107F003E4141413E007F09090906003EBB
:101980004151215E007F09192946004649494931E4
:101990000001017F0101003F4040403F001F204007
:1019A000201F003F4038403F0063140814630007C5
:1019B0000870080700615149454300007F4141001C
:1019C00000552A552A55000041417F0000040201BC
:1019D000020400404040404000000102040000209A
:1019E00054545478007F48444438003844444420D8
:1019F00000384444487F00385454541800087E0985
:101A000001020018A4A4A47C007F0804047800004C
:101A1000447D4000004080847D00007F1028440009
:101A20000000417F4000007C04180478007C08041A
:101A3000047800384444443800FC24242418001856
:101A4000242418FC007C0804040800485454542042
:101A500000043F444020003C4040207C001C2040CB
:101A6000201C003C4030403C004428102844001C0E
:101A7000A0A0A07C004464544C4414141414141406
:101A80000000000000000000000000000000000056
:101A9000000000F8000000000000003330000000EB
:101AA00000100C06100C06000000000000000000F2
:101AB00040C07840C0784000043F04043F04040064
:101AC000007088FC08300000001820FF211E000074
:101AD000F008F000E018000000211C031E211E0089
:101AE00000F00888700000001E212324192721100F
:101AF00010160E00000000000000000000000000B2
:101B0000000000E018040200000000071820400058
:101B100000020418E0000000004020180700000048
:101B2000404080F0804040000202010F01020200AC
:101B3000000000F0000000000101011F0101010090
:101B4000000000000000000080B0700000000000F5
:101B5000000000000000000000010101010101017E
:101B60000000000000000000003030000000000015
:101B700000000000806018040060180601000000EA
:101B800000E010080810E000000F102020100F00E7
:101B9000001010F8000000000020203F202000006E
:101BA00000700808088870000030282422213000C6
:101BB00000300888884830000018202020110E00CE
:101BC0000000C02010F8000000070424243F240077
:101BD00000F80888880808000019212020110E004C
:101BE00000E0108888180000000F112020110E005E
:101BF00000380808C83808000000003F0000000056
:101C00000070880808887000001C222121221C0016
:101C100000E010080810E0000000312222110F003F
:101C2000000000C0C00000000000003030000000D4
:101C30000000008000000000000080600000000044
:101C4000000080402010080000010204081020005D
:101C500040404040404040000404040404040400A8
:101C6000000810204080000000201008040201003D
:101C7000007048080808F00000000030360100003D
:101C8000C030C828E810E0000718272423140B00F0
:101C90000000C038E0000000203C2302022738206A
:101CA00008F8888888700000203F202020110E004E
:101CB000C030080808083800071820202010080045
:101CC00008F808080810E000203F202020100F002E
:101CD00008F88888E8081000203F202023201800FA
:101CE00008F88888E8081000203F20000300000062
:101CF000C03008080838000007182020221E020003
:101D000008F808000008F808203F210101213F20C1
:101D1000000808F8080800000020203F20200000EC
:101D200000000808F8080800C08080807F000000DC
:101D300008F888C028180800203F20012638200015
:101D400008F8080000000000203F2020202030007C
:101D500008F8F800F8F80800203F003F003F200096
:101D600008F830C00008F808203F200007183F009E
:101D7000E01008080810E0000F10202020100F00CD
:101D800008F808080808F000203F210101010000C0
:101D9000E01008080810E0000F18242438504F0005
:101DA00008F8888888887000203F2000030C3020C5
:101DB00000708808080838000038202121221C0003
:101DC000180808F8080818000000203F200000004C
:101DD00008F808000008F808001F202020201F0035
:101DE0000878880000C83808000007380E01000095
:101DF000F80800F80008F800033C0700073C03005F
:101E0000081868808068180820302C03032C3020C4
:101E10000838C800C83808000000203F2000000033
:101E200010080808C838080020382621202018008B
:101E3000000000FE020202000000007F404040005F
:101E4000000C30C000000000000000010638C00097
:101E500000020202FE000000004040407F0000003F
:101E60000000040202020400000000000000000064
:101E70000000000000000000808080808080808062
:101E8000000202040000000000000000000000004A
:101E900000008080808000000019242222223F2040
:101EA00008F8008080000000003F112020110E0083
:101EB0000000008080800000000E11202020110012
:101EC000000000808088F800000E112020103F20C4
:101ED0000000808080800000001F22222222130048
:101EE000008080F0888888180020203F2020000093
:101EF0000000808080808000006B94949493600048
:101F000008F8008080800000203F210000203F2052
:101F100000809898000000000020203F2020000052
:101F2000000000809898000000C08080807F000042
:101F300008F8000080808000203F24022D3020001F
:101F4000000808F8000000000020203F20200000CA
:101F50008080808080808000203F20003F20003FE4
:101F60008080008080800000203F210000203F20F2
:101F70000000808080800000001F202020201F00A3
:101F8000808000808000000080FFA12020110E00D2
:101F90000000008080808000000E112020A0FF80C3
:101FA000808080008080800020203F212000010070
:101FB00000008080808080000033242424241900C5
:101FC000008080E0808000000000001F20200000D2
:101FD0008080000000808000001F202020103F2013
:101FE000808080000080808000010E3008060100A3
:101FF00080800080008080800F300C030C300F0048
:1020000000808000808080000020312E0E31200072
:10201000808080000080808080818E7018060100A2
:1020200000808080808080000021302C22213000C0
:1020300000000000807C020200000000003F4040E1
:1020400000000000FF00000000000000FF00000092
:102050000002027C800000000040403F00000000C1
:10206000000601010202040400000000000000005C
:102070000000000000000000010203040607080938
:102080000000000001020304A82000080000002056
:102090001000000080150008B82000081000002083
:1020A0006808000090150008000000000000000013
:0820B0000000000000A24A0438
:0400000508000131BD
:00000001FF
