:020000040800F2
:10000000B8050020450100084718000843180008FB
:1000100045180008C1030008151D00080000000075
:100020000000000000000000000000006B18000845
:10003000FB03000800000000691800086D180008A4
:100040005F0100085F0100085F0100085F01000810
:100050005F0100085F0100085F0100085F01000800
:100060005F0100085F0100085F0100085F010008F0
:100070005F010008C50300085F0100085F01000878
:100080005F0100085F0100085F0100085F010008D0
:100090005F0100085F0100085F0100085F010008C0
:1000A0005F0100085F0100085F0100085F010008B0
:1000B0005F0100085F0100085F0100085F010008A0
:1000C0005F0100085F0100085F0100085F01000890
:1000D0005F0100085F0100085F010008C51C0008FF
:1000E0005F0100085F0100085F0100085F01000870
:1000F0005F0100085F0100085F0100085F01000860
:100100005F0100085F0100085F0100085F0100084F
:100110005F0100085F0100085F0100085F0100083F
:100120005F0100085F0100085F0100085F0100082F
:10013000DFF80CD000F0CAF8004800477D20000826
:10014000B80500200648804706480047FEE7FEE75E
:10015000FEE7FEE7FEE7FEE7FEE7FEE7FEE7FEE777
:10016000E118000831010008202A04DB203A21FAB6
:1001700002F00021704721FA02F3D040C2F12002C0
:10018000914008431946704740EA01039B0703D09A
:1001900009E008C9121F08C0042AFAD203E011F8C6
:1001A000013B00F8013B521EF9D27047D2B201E088
:1001B00000F8012B491EFBD270470022F6E710B56C
:1001C00013460A4604461946FFF7F0FF204610BDC5
:1001D00030B505462A460B4612F8010B13F8014BC1
:1001E00008B1A042F8D01CB1002802D06D1CF1E784
:1001F000284630BD421C10F8011B0029FBD1801A93
:100200007047034611F8012B00F8012B002AF9D1A1
:100210001846704770B5064601F096FD046805461D
:100220000A220021304600F018F82C6070BD30B56D
:100230000B46014600202022012409E021FA02F5A4
:100240009D4205D303FA02F5491B04FA02F528443E
:10025000151EA2F10102F1DC30BD2DE9F0479146F7
:100260000F4680460446002614F8015B2DB100F0CD
:100270003FF80068405DC007F6D12B2D02D02D2D30
:1002800018D0641E4A463946204600F035F827B19A
:100290003968A14201D1C7F8008071054FF002040E
:1002A0000BD54042002803DD01F04EFD0460A0079D
:1002B000BDE8F08746F48066E4E70028F8DA01F04C
:1002C00043FD04606FF00040F2E70000064C074D6C
:1002D00006E0E06840F0010394E807009847103416
:1002E000AC42F6D3FFF728FFF026000810270008DD
:1002F00000487047EC2600082DE9F05F8246007840
:10030000002715468B460AF10104B946302801D072
:100310009DB113E014F8010B0127782803D0582869
:1003200001D045B10AE00DB1102D07D100271025ED
:1003300014F8010B02E0082500E00A250026B0466B
:100340000EE005FB080005FB06F1012701EB104656
:100350001FFA80F8B6F5803F00D3B94614F8010BB8
:10036000294600F018F80028EBDABBF1000F05D0A1
:100370000FB1641E00E05446CBF80040B9F1000F05
:1003800006D001F0E1FC02210160C81EBDE8F09F2B
:1003900048EA0640FAE73A2800D2303820F0200236
:1003A000412A01D3A2F13700884201D34FF0FF3038
:1003B00070470000014901200870704700000020CC
:1003C000FEE70000014800F053B9000010010020D2
:1003D00030B590F840500124AC40C56B6C600468A7
:1003E00063604368102B036803D099600068C260A3
:1003F00030BD9A600068C16030BD7047064900207A
:10040000C8610648016941F004010161016941F0D8
:100410004001016170470000980100200020024067
:10042000064A0021D16106490A6942F002020A61C6
:100430004861086940F04000086170479801002059
:1004400000200240044B0022DA61044A136943F0A1
:1004500001031361018070479801002000200240D1
:1004600014480022C168CB06134904D5CA6942F07A
:100470000202CA611022C3685B0705D5CB6943F04D
:100480000103CB6142F00402C369DB0707D0CB69EB
:1004900043F00403CB61C16921F00101C161A2F500
:1004A0008071013901D0C2607047C16921F001013A
:1004B000C1617047002002409801002070B50546D8
:1004C00000F026FC0646114C09E0681C07D025B157
:1004D00000F01EFC801BA84201D9032070BDE0681B
:1004E000C007F2D1E068800601D52020E060E06816
:1004F000C00605D4E069C00702D1E068400703D513
:10050000FFF7AEFF012070BD002070BD002002404B
:1005100001680A6822F00E020A6001680A6822F087
:1005200001020A6090F84020C36B012101FA02F237
:100530005A6080F82110002180F82010084670478A
:100540002DE9F05F90F821100024022903D0042146
:100550008163012485E001680A6822F00E020A60C6
:1005600001680A6822F001020A603F4E3E4FB21550
:10057000DFF8F4C0DFF8F090DFF8ECA0DFF8E8B0C7
:10058000DFF8E4E00168783F13011502ACF1640C78
:10059000A9F15009AAF13C0AABF1280BAEF1140EF7
:1005A0004FF48018B14227D9B9420ED0614512D01C
:1005B00049451DD0514518D0594518D0714501D134
:1005C000424615E0294EB14201D1012210E0274EEA
:1005D0001436B14201D110220AE0244E2836B1422D
:1005E00006D0224A3C32914201D11A4600E02A4606
:1005F0001E49091F0A602BE0B94213D0614517D08C
:10060000494522D051451DD059451DD0714501D1D4
:1006100042461AE0B14202D14FF0807215E0134E0B
:10062000B14201D1012210E0104E1436B14201D185
:1006300010220AE00D4E2836B14206D00B4A3C3259
:10064000914201D11A4600E02A46074980394A60A2
:10065000012180F82110002180F82010416B01B1A8
:1006600088472046BDE8F09F800002400804024011
:100670002DE9F05FC16B0A6801680B68046C4FF0EC
:10068000040808FA04F8844D844E854FDFF814C23C
:10069000DFF81492DFF814A2DFF814B2DFF814E2E6
:1006A00018EA020F65D05FEA437862D50A689206BD
:1006B00003D40A6822F004020A60DFF8F0814FF4E4
:1006C0008062016808F1140813011402414524D91D
:1006D000A9420DD0B1420FD0B9421AD0614515D010
:1006E000494515D0514501D1120312E0594501D1B8
:1006F00004220EE0714501D140220AE06D4D14350F
:10070000A94206D06B4A2832914201D11A4600E034
:1007100022466749091F0A6029E0A94213D0B14265
:1007200015D0B94220D061451BD049451BD0514559
:1007300002D14FF4800217E0414502D14FF08062B0
:1007400012E0594501D104220EE0714501D1402249
:100750000AE0584D1435A94206D0564A2832914233
:1007600001D11A4600E022464B4908394A60C16A65
:1007700071E04FF0020808FA04F818EA020F70D08E
:100780005FEA83786DD50A68920606D40A6822F07B
:100790000A020A60012180F82110DFF810814FF46D
:1007A0000072016808F1140813011402414524D9AC
:1007B000A9420DD0B1420FD0B9421AD0614515D02F
:1007C000494515D0514501D1120312E0594501D1D7
:1007D00002220EE0714501D120220AE0354D143588
:1007E000A94206D0334A2832914201D11A4600E08C
:1007F00022462F49091F0A6029E0A94213D0B142BD
:1008000015D0B94220D061451BD049451BD0514578
:1008100002D14FF4001217E0414502D14FF00072AF
:1008200012E0594501D102220EE0714501D120228A
:100830000AE0204D1435A94206D01E4A28329142C2
:1008400001D11A4600E02246134908394A600021C6
:1008500080F82010816A00291CD0BDE8F05F0847AD
:10086000FFE70825A540154214D01A0712D50A68DB
:1008700022F00E020A6090F84020C36B012101FAB9
:1008800002F25A60816380F82110002180F8201064
:10089000016BE0E7BDE8F09F080002401C00024049
:1008A0003000024044000240580002406C00024008
:1008B000080402401C04024030B560B11C4A0368C1
:1008C0001421934209D21B4A1A44B2FBF1F1890068
:1008D000016419490AE0012030BD154A52421A4408
:1008E000B2FBF1F18900016411490839C1630221A9
:1008F00080F821101A6843F6F0718A43F0E9011478
:100900002143D0E902452C43214304692143446932
:1009100021438469214311431960002141628162AE
:10092000C16201634163012242770177084630BD0D
:1009300008040240F8FFFDBF0000024070B5044605
:1009400090F82000002501280CD0012084F8200018
:1009500094F821600020012E06D084F820000225A2
:10096000284670BD022070BD022684F82160A06375
:100970002068066826F0010606602046FFF728FD7D
:10098000E06A00282068016802D041F00E0106E00C
:1009900021F0040101602068016841F00A01016052
:1009A0002068016841F001010160D9E731B500F02C
:1009B000AFF9009C0546601C00D0641C00F0A8F94B
:1009C000401BA042FAD338BD2DE9F0470546264822
:1009D0000F460126017E01290FD0012181460176B3
:1009E0002868DFF888804CF25034022808D0A246EC
:1009F0002046FFF763FDA8B131E00220BDE8F08793
:100A00002046FFF75BFD08BB0120FFF7F7FC2046FF
:100A1000FFF754FDD8F81010064621F00401C8F87D
:100A200010101CE04FF0FF303860AC6811E0204639
:100A3000FFF7F6FC5046FFF741FDD8F8101006000E
:100A400021F00201C8F8101001D03C6007E004F565
:100A50000064D5E9020100EBC120A042E7D80021E3
:100A600089F818103046C9E798010020002002409C
:100A70000348016941F080010161002070470000D6
:100A8000002002402DE9F05F07461C4888460024FC
:100A9000017E15461E46012909D0012181460176B5
:100AA0004CF2503A5046FFF709FD18B122E00220FF
:100AB000BDE8F09F012F02D0022F00D00427D346BB
:100AC000DFF83CA0220128463146FFF74DFB81B2FA
:100AD00008EB4400FFF7B6FC5846FFF7EFFCDAF8E6
:100AE000102022F00102CAF8102018B9641CE4B2E8
:100AF000BC42E7D3002289F81820D9E798010020EA
:100B00000020024005480169090605D504494160F5
:100B100004494160002070470120704700200240D6
:100B200023016745AB89EFCD2DE9F84FDFF8B8A178
:100B300000220AF1040B144601274FF00F090BF1B4
:100B4000040E00BF0B6807FA04F52B40AB4274D1CA
:100B5000DFF898C14E68A6EB0C0866452BD00DDC7B
:100B6000032E34D005DC36B3012E19D0022E2FD13E
:100B70001BE0112E16D0122E2AD119E0B8F5881FCD
:100B800019D006DCB8F5803F15D0B8F5801F1FD10D
:100B900011E0B8F5001F0ED0B8F5041F18D10AE017
:100BA000CA6815E0CA68121D12E0CA6808320FE070
:100BB000CA680C320CE08A682AB1012A4FF0080298
:100BC00003D0456104E0042202E0056100E0002258
:100BD000FF2B01D8064601E000F104064FEA840528
:100BE00001D9A5F12005D6F800C009FA05F82CEACC
:100BF000080C02FA05F54CEA050CC6F800C04D6871
:100C0000ED006AD53A4DAE6946F00106AE61AD69B8
:100C100024F0030605F001050095364D06EB050CA2
:100C2000DCF80850A6074FEA167809FA08F6B5432B
:100C3000314EB04202D100261AE04EE02F4EB042B3
:100C400001D1012614E02E4EB04201D102260FE060
:100C50002C4EB04201D103260AE02B4EB04201D106
:100C6000042605E0294EB04201D1052600E0062603
:100C700006FA08F62E43CCF808604D68DAF80060F2
:100C8000ED03554601D51E4300E09E432E604D689E
:100C9000AD0305D5DBF800601E43CBF8006004E02F
:100CA000DBF800509D43CBF800504D68DEF8006043
:100CB000ED02754601D51E4300E09E432E604D684F
:100CC000AD0205D5084D0C352E681E432E6004E09C
:100CD000054E0C3635689D433560641C102CFFF4BE
:100CE00031AFBDE8F88F0000000401400000111092
:100CF000001002400000014000080140000C0140CB
:100D0000001001400014014000180140001C014087
:100D10000148006870470000040000200248016894
:100D2000491C01607047000004000020074810B50E
:100D3000016841F010010160032000F093F80020E9
:100D400000F006F800F018F8002010BD0020024066
:100D500010B5044607484FF47A710068B0FBF1F013
:100D600000F027FB00222146501E00F05BF8002017
:100D700010BD000008000020224808B5816941F03C
:100D800001018161816901F001010091C16941F0B6
:100D90008051C161C06900F080500090032000F0D4
:100DA00061F8002211466FF00B0000F03BF80022C2
:100DB00011466FF00A0000F035F8002211466FF07E
:100DC000090000F02FF800221146501F00F02AF809
:100DD00000221146101F00F025F800221146901E37
:100DE00000F020F800221146501E00F01BF80648C3
:100DF000416821F0E0614160416841F0007141606B
:100E000008BD0000001002400000014000F01F0279
:100E1000012191404009800000F1E020C0F800115C
:100E200070470000F0B40E4B1B680C46C3F302235E
:100E3000C3F10705042D00D90425191D072901D286
:100E4000002300E0DB1E012606FA05F1491E2140C1
:100E500099409E40761E16403143F0BC00F0F4BC31
:100E60000CED00E0064900F0070208684FF6FF03AA
:100E7000184040EA0220034A10430860704700000F
:100E80000CED00E00000FA052DE9F047DFF83C81A9
:100E900005460E46D8F8000000F00700B0420CD21C
:100EA000D8F8001021F007013143C8F80010D8F835
:100EB000000000F00700B04263D12878444C80075E
:100EC00005D56068A96820F0F000084360602878C4
:100ED000C00745D06868012816D02168022816D0BE
:100EE000890700294DDA616821F00301014361603F
:100EF000FFF70EFF6968074641F2883001290FD0DD
:100F00000229814619D027E021688903E9E7890190
:100F1000E7E700BFFFF7FCFEC11B494501D918E018
:100F200081466068C0F381000128F3D118E000BF5A
:100F3000FFF7EEFEC11B49450BD86068C0F3810086
:100F40000228F5D10CE000BFFFF7E2FEC11B4945C6
:100F500002D90320BDE8F087606810F00C0FF3D1D0
:100F6000D8F80010404601F00701B1420BD90168E2
:100F700021F0070131430160006800F00700B04232
:100F800001D00120E6E72878400705D56068E968C8
:100F900020F4E060084360602878000706D56068A8
:100FA000296920F4605040EAC100606000F03CF81C
:100FB0006168084AC1F30311515CC84006490860E2
:100FC0000020FFF7C5FE0020C4E70000002002401B
:100FD0000010024050260008080000200148006868
:100FE000704700000800002004480549006849686F
:100FF000044AC1F30221515CC84070470800002038
:10100000001002406026000804480549006849684D
:10101000044AC1F3C221515CC84070470800002057
:10102000001002406026000810B512A385B00FCB57
:101030008DE80F0013A0144B006804905A68134801
:1010400002F00C0104290FD008290DD1C2F383440A
:10105000D2031DF8041009D55A6804ABC2F340420C
:101060009A5CB0FBF2F0484305B010BD0848484315
:10107000FAE7000002030405060708090A0B0C0D35
:101080000E0F1010010200000010024000127A0042
:1010900000093D002DE9F84F04460078B94DC0071E
:1010A00048D06868C0F38100012807D06868C0F3A1
:1010B0008100022809D16868C00306D5286880032A
:1010C00038D5606800286FD034E06068B0F5803FA4
:1010D0000BD010B1B0F5A02F11D0286820F48030CB
:1010E0002860286820F4802002E0286840F48030DE
:1010F0002860606888B1FFF70BFE064609E02868A3
:1011000040F480202860F0E7FFF702FE801B64288F
:1011100075D828688003F7D50CE0FFF7F9FD06467F
:1011200005E000BFFFF7F4FD801B6428F0D82868B5
:101130008003F7D42078944E80074FF001094FF0D8
:1011400000083BD5686810F00C0F07D06868C0F342
:101150008100022809D16868C00306D42868800786
:1011600014D5206901281FD110E02069B0B1C6F85C
:101170000090FFF7CDFD074605E000BFFFF7C8FD73
:10118000C01B0228C4D828688007F7D52868616981
:1011900020F0F80040EAC10028600FE0C6F80080A7
:1011A000FFF7B6FD074606E0E9E000BFFFF7B0FD38
:1011B000C01B022823D828688007F7D420780007AE
:1011C0002CD57248A169D9B1C0F80090FFF7A0FDF5
:1011D000074604E0FFF79CFDC01B02280FD8686A91
:1011E0008007F7D56A484FF4FA510068B0FBF1F078
:1011F000009000BF0098411E0091FAD20EE080E0FE
:10120000C0F80080FFF784FD074604E0FFF780FD8B
:10121000C01B022875D8686A8007F7D42078400779
:1012200060D5E8690027C00008D4E86940F0805024
:10123000E861E869012700F0805000905548016896
:10124000C90513D40168834641F480710160FFF73A
:101250005FFD824606E000BFFFF75AFDA0EB0A00E3
:1012600064284ED8DBF80000C005F5D5E0680128F9
:101270000AD008B1052813D0286A20F0010028629E
:10128000286A20F0040002E0286A40F00100286289
:10129000E06841F2883B98B1FFF73AFD82460BE0E7
:1012A000286A40F004002862EEE700BFFFF730FD37
:1012B000A0EB0A0159455AD8286A8007F6D50CE0F8
:1012C000FFF726FD824605E0FFF722FDA0EB0A01AD
:1012D00059454CD8286A8007F6D41FB1E86920F038
:1012E0008050E861E06988B36968C1F3810102292F
:1012F00045D00228C6F8608004D0FFF709FD0446F7
:1013000038E034E0FFF704FD074604E0FFF700FD96
:10131000C01B02282BD828688001F7D4206AB0F5BA
:10132000803F05D16868A16820F4003008436860F8
:10133000D4E908010843696821F47411084368601E
:10134000C6F86090FFF7E4FC044606E015E000BF35
:10135000FFF7DEFC001B022809D828688001F7D5BA
:101360000BE000BFFFF7D4FC001B022802D90320CA
:10137000BDE8F88F28688001F4D40020F8E7012048
:10138000F6E70000001002400000424280044242A2
:1013900008000020007000404FF0E0210428086998
:1013A00003D020F004000861704740F00400FAE721
:1013B000704710B5401EB0F1807F01D3012010BDF1
:1013C0004FF0E02460610F21601700F03DFA00202B
:1013D000A06107202061002010BD10B5FFF7E8FFD5
:1013E00010BD10B504460068416994F83920C1F376
:1013F000C011212A0BD151B1416921F08001416115
:10140000206B08B1FFF784F8204600F0EBFA206863
:10141000416994F83A20C1F38011222A0BD151B1CD
:10142000416921F040014161606B08B1FFF770F83C
:10143000204600F0C9FA002010BD704770B5026860
:1014400004461068D168536910F00F0F50D003F0B4
:10145000010501F4907635435DD0C20705D0CA0579
:1014600003D5E26B42F00102E263420705D5DA07D9
:1014700003D0E26B42F00202E263820705D5DA078D
:1014800003D0E26B42F00402E263020705D5DA07FB
:1014900003D0E26B42F00802E263E26B002A33D031
:1014A000800604D5880602D5204600F0A4FA2068FC
:1014B0004069E16BC0F38010090700D428B32046CF
:1014C00000F082FA2068416949061AD5416921F085
:1014D00040014161606BA0B11B494163606BFFF744
:1014E0002FF8002810D0606B416BBDE870400847B2
:1014F000830610D58B060ED52046BDE8704000F05F
:101500007ABA2046FFF799FF70BD2046FFF795FF96
:101510000020E06370BD030606D50B0604D5204607
:10152000BDE8704000F06ABB4006F3D54806F1D52F
:10153000D168204621F04001D160202184F8391083
:1015400000F07EF970BD00002919000870B5040094
:1015500004D094F83900002510B106E0012070BDD8
:1015600084F83850204600F023F8242084F839000D
:101570002068C16821F40051C160204600F086FA5D
:101580002068016921F4904101612068416921F0DE
:101590002A0141612068C16841F40051C160E563DE
:1015A000202084F8390084F83A00002070BD000043
:1015B00070B506462E4D036800242E4902200322F2
:1015C00086B0AB4219D1CB6943F48013CB61C969B2
:1015D000039201F480110491C102CDE90010694623
:1015E0002548FFF7A1FA0420CDE900046946234805
:1015F0000294FFF799FA06B070BD214DAB42FAD1C3
:10160000CB6943F48023CB61C969039201F4802143
:1016100004912915CDE900101A4D69462846FFF7B7
:1016200083FAE814CDE90004694628460294FFF7DE
:101630007BFA164D1448C5E900048020C5E9024034
:101640002C616C61AC612846EC61FFF735F918B18B
:1016500096210FA000F05FFB756300221146272042
:101660006E62FFF7DFFB2720FFF7D0FBC3E7000028
:1016700000500040001002400010014000140140E2
:1016800000480040000C01403000024010010020E2
:101690002E2E2F5372632F73746D33326631787828
:1016A0005F68616C5F6D73702E630000F8B504466F
:1016B00090F83A0020283CD1C1B3BAB394F838006E
:1016C000012836D0012084F83800A162A2850025C7
:1016D000E563222084F83A00636B17489862636BD5
:1016E0001648D862636B16481863606B13464563EF
:1016F0000846666B216802463046091DFFF71EF951
:10170000206801684168009184F83850C16841F44C
:101710008071C1602068416941F001014161206828
:10172000416941F0400141610020F8BDFFE701201F
:10173000FBE70220F9E7000083190008BF19000841
:1017400039190008704770472DE9F843044690F8AE
:1017500039001F4616460D46202850D1A5B19EB12E
:1017600094F8380001284AD0012084F838004FF05E
:101770000008C4F83C80212084F83900FFF7C8FA3B
:10178000A6848146E68426E00120BDE8F883E08C4B
:10179000401EE084A0684B46B0F5805F4FF0000229
:1017A0004FF080012046009703D000F058FAE8B9C6
:1017B0000DE000F054FAC8B928882168C0F3080089
:1017C0004860206908B16D1C05E0AD1C03E021688C
:1017D00015F8010B4860E08C0028D8D14B46002258
:1017E00040212046009700F03AFA08B10320CCE7E8
:1017F000202084F8390084F838800020C5E70220D2
:10180000C3E790F83930202B18D1A9B1A2B190F8D4
:101810003830012B12D001628284C2840021C1635E
:10182000212280F8392080F838100068C16841F022
:101830008001C1600020704701207047022070477E
:101840007047FEE7FEE770470907090E002806DA31
:1018500000F00F0000F1E02080F8141D704700F147
:10186000E02080F8001470477047704710B5FFF70C
:1018700055FABDE81040FFF7B0BD30B58FB0022576
:101880000120049000951020059000244FF4601072
:10189000CDE9084007956846FFF7FCFB00B1FEE77D
:1018A0000F20CDE90A054FF48060CDE90C400221FC
:1018B0000AA80E94FFF7E8FA00B1FEE7FFF78EFBE7
:1018C0004FF47A71B0FBF1F0FFF773FD0420FFF7DE
:1018D00063FD00221146501EFFF7A4FA0FB030BD81
:1018E0000D48016841F00101016041680B4A114057
:1018F000416001680A4A11400160016821F48021B9
:101900000160416821F4FE0141604FF41F018160D4
:101910000449C00308607047001002400000FFF84F
:10192000FFFFF6FE08ED00E010B5406A0021C1851A
:10193000C184FFF782FD10BD70B5446A206840691C
:1019400094F83910C0F3C0100025212904D118B132
:10195000E584204600F046F82068406994F83A1083
:10196000C0F38010222904D118B1E585204600F08B
:101970002BF8E06B40F01000E0632046FFF75DFDC0
:1019800070BD10B50146406A09680968890613D41C
:101990000021C1850168CA6822F48072CA600168AA
:1019A0004A6922F001024A6101684A6922F0400254
:1019B0004A61202180F83A10FFF7C4FE10BD10B52F
:1019C000406AFFF7C0FE10BD0168CA6822F4907239
:1019D000CA6001684A6922F001024A61202180F848
:1019E0003A1070470168CA6822F0C002CA6020211C
:1019F00080F83910704710B590F83A10222901D0BC
:101A0000022010BD8168B1F5805F11D00169002905
:101A100001681FD0496801F07F03816A4A1C826215
:101A20000B70C18D491E0904090CC18518D02BE02B
:101A30000269816A002A0268526805D0D2B20A801F
:101A4000816A491C8162ECE7C2F308020A80816A5C
:101A5000891CF7E74A68816A4B1C83620A70E0E7D9
:101A60000168CA6822F02002CA600168CA6822F4CC
:101A70008072CA6001684A6922F001024A6120212D
:101A800080F83A10FFF75EFE002010BD2DE9F0410E
:101A9000044600680169E26821F440511143016184
:101AA0002169A0680843616908432168CA6841F256
:101AB0000C639A430243CA6020684169A26921F419
:101AC0004071114341614C492068642532268842A7
:101AD0003CD1FFF799FA00EBC00101EB00106168FF
:101AE0008900B0FBF1F7FFF78FFA00EBC00101EBC3
:101AF00000106168B0468900B0FBF1F0B0FBF5F072
:101B00006FF01801484307EB800106EB0110B0FBB2
:101B1000F5F000F0F006FFF777FA00EBC00101EBFB
:101B2000001061688900B0FBF1F0B0FBF5F006EB46
:101B30000016FFF769FA00EBC00101EB00106168C5
:101B40008900B0FBF1F7FFF75FFA3BE0FFF74CFAD3
:101B500000EBC00101EB001061688900B0FBF1F7F8
:101B6000FFF742FA00EBC00101EB00106168B046DC
:101B70008900B0FBF1F0B0FBF5F06FF018014843BD
:101B800007EB800106EB0110B0FBF5F000F0F0066A
:101B9000FFF72AFA00EBC00101EB00106168890031
:101BA000B0FBF1F0B0FBF5F006EB0016FFF71CFA06
:101BB00000EBC00101EB001061688900B0FBF1F798
:101BC000FFF712FA00EBC00101EB00106168890019
:101BD000B0FBF1F0B0FBF5F06FF01801484307EBF4
:101BE000800108EB0110B0FBF5F0216800F00F0058
:101BF00030448860BDE8F0810038014090F8391029
:101C0000212901D0022070478168B1F5805F016A07
:101C10000BD04A1C0262026809785160C18C491ECF
:101C20000904090CC1840ED017E009880268C1F3C9
:101C30000801516001690029016A02D0491C016252
:101C4000ECE7891CFBE70168CA6822F08002CA60E1
:101C50000068C16841F04001C160002070472DE973
:101C6000F041984617460E460446069D1DE0681C46
:101C70001BD02DB1FFF74CF8A0EB0800A84214D9F7
:101C80002068C16821F4D071C1602068416921F0E9
:101C900001014161202084F8390084F83A000020D5
:101CA00084F838000320BDE8F0812068006836EA37
:101CB000000004D00020B842D9D00020F3E7012072
:101CC000F9E70000114808B500680168C943C90672
:101CD00016D40168406800900C48FFF782FB00F0C2
:101CE0002FF940220A49FEF74FFAFEF763FB402125
:101CF0000748FEF762FA402205490448FFF7D6FC80
:101D0000BDE808400148FFF799BB000050000020E3
:101D1000D0000020FEE7FEE70FB41CB5024600200D
:101D200007AC00290BD0491ECDE90021054B6A46BE
:101D30002146069800F01CF8009A002111701CBC86
:101D40005DF814FB291F0008004870470C000020B4
:101D500002E008C8121F08C1002AFAD17047704774
:101D6000002001E001C1121F002AFBD170470000D2
:101D70002DE9FF4F8BB09A460F460546002606E038
:101D800025280BD052460D9990476D1C761C28785B
:101D90000028F5D10FB03046BDE8F08F0024A046F2
:101DA0000122604900E0044315F8013F203B02FA9C
:101DB00003F00842F7D128782E2817D115F8010F23
:101DC00044F004042A280ED06FF02F022878A0F1E6
:101DD000300109290AD808EB880102EB410100EB28
:101DE00001086D1CF2E757F8048B6D1C28786928F0
:101DF0003ED006DC0028CDD063280BD0642804D167
:101E000036E0732810D075284BD052460D99904774
:101E1000761C85E017F8040B8DF8000000208DF883
:101E20000100E946012003E057F8049B4FF0FF3022
:101E300061074FF0000401D40AE0641C44450DDA48
:101E40008442FADB19F804100029F6D106E0641C7C
:101E50008442FCDB19F804100029F8D1264404E080
:101E600019F8010B52460D999047641EF8D257E0BD
:101E700001CF4FF00A0B002802DA40422D2102E088
:101E8000210504D52B218DF82410012103E0E10761
:101E900005D02021F7E70DF1200908910CE0002181
:101EA000F9E701CF4FF00A0BF9E75946FEF7BFF902
:101EB00001F1300209F8012D0028F6D1ADEB09003F
:101EC00000F1200B600701D44FF00108D84502DD76
:101ED000A8EB0B0000E000208046002406E009A8E3
:101EE0005246005D0D999047641C761C0898844208
:101EF000F5DB04E0302052460D999047761CB8F18E
:101F00000001A8F10108F5DC05E019F8010B5246C3
:101F10000D999047761CBBF10001ABF1010BF4DC8D
:101F20006D1C34E7092801004A68002A06D00A68B7
:101F3000531C0B6010704868401E486070470000DA
:101F400000487047540100202DE9FF5F9B46109E1A
:101F50000E9D0098002458B169B1002A0BDD92B2A1
:101F6000FFF74FFC38B16FF0350004B0BDE8F09FCB
:101F70006FF03600F9E7BBF1000F14D0002D12DD31
:101F8000002E10DB0F9870B1DFF868904FF000085A
:101F900089F8008040273A4617490098FFF786FBEA
:101FA000C246B84615E00020DFE799F800004F462A
:101FB00058B111480F99FEF70BF960B987F800A0E6
:101FC00042460D490098FFF771FB0120FEF7EEFC39
:101FD000641CB442E9DBB44202D16FF03200C4E7C2
:101FE000402D00D940252A4603495846FEF7CCF833
:101FF0002046BAE7000000205401002010B500235D
:1020000002E0C45CCC545B1C9342FADB002010BDA0
:10201000F0B5064685B00F461446900707D0E01786
:1020200004EB907020F00300201A141A241DFEF710
:1020300069FD0020019000900121CDE9036169460E
:1020400001A8FEF7C1FC10B16FF00B0411E00025F0
:10205000E01704EB907408E057F8252006EB8501A3
:10206000D3170220FEF70EFD6D1CB5EBA40FF3DBBA
:102070000024FEF7FDFC05B02046F0BDF0B599B098
:10208000FEF754FEFFF7F9FB7848816941F008013B
:102090008161816901F008010091816941F00401C9
:1020A0008161816901F004010091816941F01001B1
:1020B0008161816901F010010091816941F0200185
:1020C0008161816901F020010091416941F00101C4
:1020D00041614069002200F00100009011460D208E
:1020E000FEF7A0FE0D20FEF791FE624860494FF416
:1020F000E13600240160C0E901640C27C460C0E936
:1021000004478461C461FFF721FA00B1FEE7594D2D
:10211000594840352860C5E90164EC60C5E90447C9
:10212000AC612846EC61FFF711FA00B1FEE72868C0
:10213000C16841F01001C1604E494022C031A1F197
:102140008000FFF7B3FA4DA011AB07C883E8070082
:102150004DA014AB07C883E807004648403000F0A4
:10216000F9F86FF00B0600284FF0640302DA15222D
:1021700048A15EE016224DA13E48FFF7E5FA3D4832
:1021800040218030FEF719F83A494E4F4022803105
:102190003846FFF733FF37488030FEF72BF8354CD1
:1021A000903448B9A4F11005287828B92046FEF7E4
:1021B00021F808B9287C98B16423122242A12D4845
:1021C000FFF7C2FA2B4922468031A1F1400000F00E
:1021D00091F900284FF0640318DA19223FA128E092
:1021E0006423162244A12348FFF7AEFA214811A91F
:1021F0008030FEF706F814A92046FEF702F81D49C4
:10220000402280313846FFF703FFDBE71A2240A166
:102210001848FFF799FA17484EF660252A4642F209
:102220001171403000F006FA040008D5642326221C
:102230003EA11048FFF788FA19B03046F0BD4021A2
:1022400001A8FDF7BAFF0B4817AB01AA21464030A1
:10225000009500F09BF90028F1DB064801AA214611
:102260004030179B00F0FEF8E9E700000010024044
:1022700000500040100000200048004062616F6A7A
:10228000696E6D696E67000031323333323131323D
:1022900033343500776966695F61705F696E6974B0
:1022A000206661696C6564210A00000077696669CF
:1022B0005F61705F696E69742073756363657373C2
:1022C000210A000000D00308776966695F61705FCA
:1022D0007374617274696E67210A000077696669B8
:1022E0005F61705F7365745F6172677320666169B7
:1022F0006C6564210A000000776966695F61705F40
:10230000737461727420636F6E666967210A0000DE
:10231000776966695F61705F7365745F6172677327
:102320002073756363657373210A000077696669BA
:102330005F6C697374656E5F616E645F7761697409
:102340005F636F6E6E6563745F74696D656F7574DE
:10235000210A00002DE9F04180461BA694B03046CA
:10236000FDF748FF0246402532241BA00095CDE929
:10237000010403AB31464046FFF7E6FD00281FDAB3
:1023800018A71CA63846FDF735FF02461CA000958D
:10239000CDE9010403AB39464046FFF7D5FD304691
:1023A000FDF728FF024616A00095CDE9010403AB16
:1023B00031464046FFF7C8FD40F6B830FEF7F6FA62
:1023C00014B00020BDE8F08141542B43574D4F44D9
:1023D000453F0D0A000000002B43574D4F44453A3E
:1023E0003200000041542B43574D4F44453D320DC0
:1023F0000A00000041542B5253540D0A0000000003
:102400004F4B000010B5A4B0040001D0002903DC3C
:102410006FF00B0024B010BD0B460CA2402103A8A6
:10242000FFF77AFC03A8FDF7E5FE02464FF4FA63D6
:102430000BA140208DE80B0013AB03A92046FFF74A
:1024400083FD0028E6DB0020E4E7000041542B4335
:1024500049505345525645523D312C25640D0A00D2
:102460004F4B0000F0B5A3B01C461546070004D042
:102470001DB1002C01DD002903DA6FF00B0023B041
:10248000F0BD0B4613A2402103A80094FFF744FCC3
:1024900003A8FDF7AFFE02464026142012A10096C5
:1024A000CDE9011013AB03A93846FFF74DFD002815
:1024B000E5DB4FF4FA700DA10096CDE9011013ABE6
:1024C000224629463846FFF73FFD0028D7DB00208B
:1024D000D5E7000041542B43495053454E443D2518
:1024E000642C25640D0A00003E00000053454E4454
:1024F000204F4B0070B5A4B0050018A42BD051B3E9
:102500004AB30B46009219A2402103A8FFF704FC2E
:1025100003A8FDF76FFE0246402640F6B8301AA128
:102520000096CDE9011013AB03A92846FFF70CFD77
:1025300000280EDB2046FDF75DFE0246322012A188
:102540000096CDE9011013AB21462846FFF7FCFCAD
:10255000002024B070BD6FF00B00FAE741542B430C
:1025600049504D55583D310D0A00000041542B4350
:10257000575341503D222573222C222573222C369D
:102580002C320D0A000000004F4B000070B594B0D3
:102590001D461899144610B315A24023CDE9003208
:1025A0000291002203AB1146FFF7CEFC002814DB9A
:1025B00010A103A8FDF70CFEA0B1C01CFDF72AFE78
:1025C000064628600CA103A8FDF702FE68B1411C75
:1025D00032462046FDF7D8FD002014B070BD6FF0E4
:1025E0000B00FAE76FF00D00F7E76FF00F00F4E76C
:1025F0002B4950442C0000003A00000000B593B075
:1026000080B10AA24023CDE900320291002203AB3F
:102610001146FFF799FC002802DB9DF80C003038CA
:1026200013B000BD6FF00B00FAE70000434F4E4EB1
:102630004543540070B514460546FFF7E3FE0028F5
:1026400005DB21462846BDE87040FFF7D7BF70BDC7
:102650000000000000000000010203040607080952
:1026600000000000010203040040404040404040A0
:102670004040414141414140404040404040404055
:1026800040404040404040404005020202020202F9
:102690000202020202020202022020202020202048
:1026A000202020020202020202029090909090905C
:1026B000101010101010101010101010101010101A
:1026C000101010100202020202028888888888888E
:1026D000080808080808080808080808080808087A
:1026E00008080808020202024000000069260008EB
:1026F000102700080000002010000000501D0008F6
:102700002027000810000020A8050000601D000818
:10271000000000000000000000A24A0400000000C9
:0400000508000131BD
:00000001FF
