:020000040800F2
:100000004804002045010008A70D0008290D00083C
:10001000A50D00088D0100081B110008000000005C
:10002000000000000000000000000000CB0D0008F0
:100030008F01000800000000C90D0008CD0D000868
:100040005F0100085F0100085F0100085F01000810
:100050005F0100085F0100085F0100085F01000800
:100060005F0100085F0100085F0100085F010008F0
:100070005F0100085F0100085F0100085F010008E0
:100080005F0100085F0100085F0100085F010008D0
:100090005F0100085F0100085F0100085F010008C0
:1000A0005F0100085F0100085F0100085F010008B0
:1000B0005F0100085F0100085F0100085F010008A0
:1000C0005F0100085F0100085F0100085F01000890
:1000D0005F0100085F0100085F0100085F01000880
:1000E0005F0100085F0100085F0100085F01000870
:1000F0005F0100085F0100085F0100085F01000860
:100100005F0100085F0100085F0100085F0100084F
:100110005F0100085F0100085F0100085F0100083F
:100120005F0100085F0100085F0100085F0100082F
:10013000DFF80CD000F018F8004800473D11000827
:10014000480400200648804706480047FEE7FEE7CF
:10015000FEE7FEE7FEE7FEE7FEE7FEE7FEE7FEE777
:10016000410E000831010008064C074D06E0E0682A
:1001700040F0010394E8070098471034AC42F6D3EE
:10018000FFF7DAFFA0110008C0110008FEE7704772
:1001900031B500F0FFF8009C0546601C00D0641CDF
:1001A00000F0F8F8401BA042FAD338BD2DE9F84F13
:1001B000DFF8B8A100220AF1040B144601274FF022
:1001C0000F090BF1040E00BF0B6807FA04F52B4072
:1001D000AB4274D1DFF898C14E68A6EB0C086645B7
:1001E0002BD00DDC032E34D005DC36B3012E19D014
:1001F000022E2FD11BE0112E16D0122E2AD119E07B
:10020000B8F5881F19D006DCB8F5803F15D0B8F5D1
:10021000801F1FD111E0B8F5001F0ED0B8F5041FE4
:1002200018D10AE0CA6815E0CA68121D12E0CA684F
:1002300008320FE0CA680C320CE08A682AB1012A41
:100240004FF0080203D0456104E0042202E005619A
:1002500000E00022FF2B01D8064601E000F1040671
:100260004FEA840501D9A5F12005D6F800C009FAA6
:1002700005F82CEA080C02FA05F54CEA050CC6F85C
:1002800000C04D68ED006AD53A4DAE6946F00106F2
:10029000AE61AD6924F0030605F001050095364D09
:1002A00006EB050CDCF80850A6074FEA167809FAA9
:1002B00008F6B543314EB04202D100261AE04EE0B6
:1002C0002F4EB04201D1012614E02E4EB04201D192
:1002D00002260FE02C4EB04201D103260AE02B4E3D
:1002E000B04201D1042605E0294EB04201D10526D5
:1002F00000E0062606FA08F62E43CCF808604D68A2
:10030000DAF80060ED03554601D51E4300E09E4338
:100310002E604D68AD0305D5DBF800601E43CBF8B9
:10032000006004E0DBF800509D43CBF800504D68BE
:10033000DEF80060ED02754601D51E4300E09E43E5
:100340002E604D68AD0205D5084D0C352E681E4354
:100350002E6004E0054E0C3635689D433560641C04
:10036000102CFFF431AFBDE8F88F0000000401400D
:100370000000111000100240000001400008014080
:10038000000C014000100140001401400018014021
:10039000001C014001480068704700000000002078
:1003A00002480168491C01607047000000000020FD
:1003B000074810B5016841F010010160032000F00A
:1003C00087F8002000F006F800F018F8002010BDB3
:1003D0000020024010B5044607484FF47A710068C7
:1003E000B0FBF1F000F0FBFA00222146501E00F0B5
:1003F0004FF8002010BD000004000020224808B57E
:10040000816941F001018161816901F0010100917F
:10041000C16941F08051C161C06900F08050009015
:10042000032000F055F8002211466FF00B0000F099
:100430002FF8002211466FF00A0000F029F8002280
:1004400011466FF0090000F023F800221146501FFA
:1004500000F01EF800221146101F00F019F80022CB
:100460001146901E00F014F800221146501E00F0B4
:100470000FF80648416821F0E0614160416841F0B1
:100480000071416008BD0000001002400000014002
:10049000F0B40E4B1B680C46C3F30223C3F10705EF
:1004A000042D00D90425191D072901D2002300E0DD
:1004B000DB1E012606FA05F1491E214099409E40A7
:1004C000761E16403143F0BC00F06EBC0CED00E02F
:1004D000064900F0070208684FF6FF03184040EA9B
:1004E0000220034A10430860704700000CED00E052
:1004F0000000FA052DE9F047DFF83C8105460E467D
:10050000D8F8000000F00700B0420CD2D8F8001074
:1005100021F007013143C8F80010D8F8000000F0BE
:100520000700B04263D12878444C800705D5606845
:10053000A96820F0F000084360602878C00745D023
:100540006868012816D02168022816D0890700297A
:100550004DDA616821F0030101436160FFF71AFF82
:100560006968074641F2883001290FD00229814687
:1005700019D027E021688903E9E78901E7E700BF8F
:10058000FFF708FFC11B494501D918E081466068A3
:10059000C0F381000128F3D118E000BFFFF7FAFE95
:1005A000C11B49450BD86068C0F381000228F5D112
:1005B0000CE000BFFFF7EEFEC11B494502D9032046
:1005C000BDE8F087606810F00C0FF3D1D8F8001088
:1005D000404601F00701B1420BD9016821F0070143
:1005E00031430160006800F00700B04201D00120F3
:1005F000E6E72878400705D56068E96820F4E06000
:10060000084360602878000706D56068296920F4EF
:10061000605040EAC100606000F01CF86168084A60
:10062000C1F30311515CC840064908600020FFF780
:10063000D1FE0020C4E7000000200240001002406C
:100640009011000804000020014800687047000075
:100650000400002010B512A385B00FCB8DE80F0069
:1006600013A0144B006804905A68134802F00C0160
:1006700004290FD008290DD1C2F38344D2031DF8F9
:10068000041009D55A6804ABC2F340429A5CB0FB2F
:10069000F2F0484305B010BD08484843FAE70000AF
:1006A00002030405060708090A0B0C0D0E0F1010B3
:1006B000010200000010024000127A0000093D0013
:1006C0002DE9F84F04460078B94DC00748D0686856
:1006D000C0F38100012807D06868C0F381000228B8
:1006E00009D16868C00306D52868800338D56068DA
:1006F00000286FD034E06068B0F5803F0BD010B1B7
:10070000B0F5A02F11D0286820F480302860286828
:1007100020F4802002E0286840F48030286060687F
:1007200088B1FFF737FE064609E0286840F48020CC
:100730002860F0E7FFF72EFE801B642875D8286834
:100740008003F7D50CE0FFF725FE064605E000BF65
:10075000FFF720FE801B6428F0D828688003F7D4B8
:100760002078944E80074FF001094FF000083BD5E8
:10077000686810F00C0F07D06868C0F38100022889
:1007800009D16868C00306D42868800714D5206999
:1007900001281FD110E02069B0B1C6F80090FFF722
:1007A000F9FD074605E000BFFFF7F4FDC01B022876
:1007B000C4D828688007F7D52868616920F0F80058
:1007C00040EAC10028600FE0C6F80080FFF7E2FDB4
:1007D000074606E0E9E000BFFFF7DCFDC01B02288A
:1007E00023D828688007F7D4207800072CD57248D2
:1007F000A169D9B1C0F80090FFF7CCFD074604E02D
:10080000FFF7C8FDC01B02280FD8686A8007F7D51C
:100810006A484FF4FA510068B0FBF1F0009000BF55
:100820000098411E0091FAD20EE080E0C0F80080EE
:10083000FFF7B0FD074604E0FFF7ACFDC01B022840
:1008400075D8686A8007F7D42078400760D5E869D2
:100850000027C00008D4E86940F08050E861E869EA
:10086000012700F08050009055480168C90513D455
:100870000168834641F480710160FFF78BFD824679
:1008800006E000BFFFF786FDA0EB0A0064284ED803
:10089000DBF80000C005F5D5E06801280AD008B1F2
:1008A000052813D0286A20F001002862286A20F069
:1008B000040002E0286A40F001002862E06841F28A
:1008C000883B98B1FFF766FD82460BE0286A40F04E
:1008D00004002862EEE700BFFFF75CFDA0EB0A0111
:1008E00059455AD8286A8007F6D50CE0FFF752FD23
:1008F000824605E0FFF74EFDA0EB0A0159454CD8B2
:10090000286A8007F6D41FB1E86920F08050E861BA
:10091000E06988B36968C1F38101022945D00228E2
:10092000C6F8608004D0FFF735FD044638E034E0B7
:10093000FFF730FD074604E0FFF72CFDC01B02283F
:100940002BD828688001F7D4206AB0F5803F05D104
:100950006868A16820F4003008436860D4E90801A1
:100960000843696821F4741108436860C6F8609010
:10097000FFF710FD044606E015E000BFFFF70AFD93
:10098000001B022809D828688001F7D50BE000BFBA
:10099000FFF700FD001B022802D90320BDE8F88FF5
:1009A00028688001F4D40020F8E70120F6E7000071
:1009B0000010024000004242800442420400002035
:1009C000007000404FF0E0210428086903D020F0B7
:1009D00004000861704740F00400FAE7704710B562
:1009E000401EB0F1807F01D3012010BD4FF0E02404
:1009F00060610F21601700F0D7F90020A061072087
:100A00002061002010BD10B5FFF7E8FF10BD30B524
:100A100090F83C20012A20D0012280F83C200223BB
:100A200080F83D3003685C6824F070045C60036803
:100A30005C680D682C435C6003689C6824F080044B
:100A40009C6003689C6849680C439C6080F83D206A
:100A5000002180F83C10084630BD022030BD10B5A2
:100A6000040003D094F83D0010B107E0012010BD50
:100A7000002084F83C00204600F00CF8022084F8A6
:100A80003D00211D206800F0FFF9012084F83D00A1
:100A9000002010BD08B50068B0F1804F08D10548AE
:100AA000C16941F00101C161C06900F0010000901D
:100AB00008BD00000010024070B5044690F83C00EC
:100AC000012817D0012584F83C50022084F83D000D
:100AD0002068826822F0770222F47F4282600868F0
:100AE000502837D00DDC202859D005DC88B31028D9
:100AF00041D151E0022070BD302853D040283AD176
:100B00003FE060282ED070280BD0B0F5805F03D076
:100B1000B0F5005F2FD110E02068816821F0070157
:100B200015E0CB68D1E90121206800F0FEF92168C9
:100B3000886840F0770088601DE0CB68D1E901212A
:100B4000206800F0F2F92068816841F480418160FA
:100B500011E01EE0CA684968206800F0BBFA502125
:100B6000206806E0CA684968206800F0C4FA60217D
:100B7000206800F0E4F984F83D50002084F83C003F
:100B800070BDCA684968206800F0A4FA4021206856
:100B9000EFE700212068ECE710212068E9E7202139
:100BA0002068E6E730212068E3E700001FB5006811
:100BB000B0F1804F12D14FF400400090022001901C
:100BC000039069460648FFF7F1FA0648416821F4A8
:100BD00040714160416841F4807141601FBD000077
:100BE000000801400000014070B5044690F83C0048
:100BF0000D4601280DD0012684F83C60022084F8BF
:100C00003D0042B1042A18D0082A2AD00C2A4DD11E
:100C100039E0022070BD206800F09AF920688169EF
:100C200041F0080181612068816921F0040181613E
:100C3000206881692A69114311E0206800F0B8F941
:100C40002068816941F4006181612068816921F433
:100C500080618161206881692A6941EA022181619C
:100C600024E0206800F0DAF92068C16941F0080149
:100C7000C1612068C16921F00401C1612068C169B6
:100C80002A69114311E0206800F0FCF92068C1696D
:100C900041F40061C1612068C16921F48061C161D2
:100CA0002068C1692A6941EA0221C16184F83D6076
:100CB000002084F83C0070BD10B5040003D094F807
:100CC0003D0010B107E0012010BD002084F83C0079
:100CD000204600F00CF8022084F83D00211D206819
:100CE00000F0D2F8012084F83D00002010BD7047CC
:100CF00010B504460068012200F00CF9084920688C
:100D0000884202D00749884203D1416C41F4004136
:100D100041642068016841F001010160002010BDBC
:100D2000002C014000340140FEE7000010B51C48D3
:100D30008EB04FF0804101604FF4C8510024C0E9EB
:100D40000114C46004618461FFF789FE00B1FEE70D
:100D50004FF48050079007A91148FFF7ADFE00B18E
:100D6000FEE70F48FFF7A8FF00B1FEE70B940BA9C1
:100D70000B480C94FFF74BFE00B1FEE76020CDE975
:100D8000000402940022694605480494FFF72CFFF2
:100D900000B1FEE70248FFF709FF0EB010BD0000EA
:100DA00008000020FEE770470907090E002806DA50
:100DB00000F00F0000F1E02080F8141D704700F1F2
:100DC000E02080F8001470477047704710B5FFF7B7
:100DD000E7FABDE81040FFF716BE30B58FB0022528
:100DE0000120049000951020059000244FF460101D
:100DF000CDE9084007956846FFF762FC00B1FEE7C1
:100E00000F20CDE90A054FF48060CDE90C400221A6
:100E10000AA80E94FFF76EFB00B1FEE7FFF714FC83
:100E20004FF47A71B0FBF1F0FFF7D9FD0420FFF722
:100E3000C9FD00221146501EFFF72AFB0FB030BD3E
:100E40000D48016841F00101016041680B4A114001
:100E5000416001680A4A11400160016821F4802163
:100E60000160416821F4FE0141604FF41F0181607F
:100E70000449C00308607047001002400000FFF8FA
:100E8000FFFFF6FE08ED00E0F0B502681C4B1D4DBB
:100E90001D4E1E4F1E4C4FF0804C984209D0A04270
:100EA00007D0604505D0A84203D0B04201D0B84277
:100EB00004D122F0700E4A6842EA0E02984209D02C
:100EC000A04207D0604505D0A84203D0B04201D06F
:100ED000B84203D122F44075CA682A4322F0800543
:100EE0004A692A4302608A68C2620A68826298423A
:100EF00001D0A04201D10969016301214161F0BD26
:100F0000002C01400004004000080040000C00409C
:100F10000034014010B50123046A8B409C430462F5
:100F2000036A8A401343036210BD10B5846842EA25
:100F3000032224F47F440A432243826010BD826866
:100F400022F070020A4342F00701816070470000FE
:100F5000F0B5026A22F001020262036A4268846903
:100F6000124E24F073050C682C4323F002058B68A5
:100F70002B430D4DA84201D0B04205D123F0080704
:100F8000CB683B4323F00403A84201D0B04205D113
:100F90004D6922F4407215438A692A434260846194
:100FA000496841630362F0BD002C014000340140F8
:100FB000F0B5026A22F010020262026A4368846994
:100FC0000D6824F4E64444EA05248D6822F02002EA
:100FD00042EA05120F4D104EA84201D0B04206D190
:100FE000CF6822F0800242EA071222F04002A842B3
:100FF00001D0B04207D14D6923F4406343EA850331
:101000008D6943EA850343608461496881630262B4
:10101000F0BD0000002C014000340140F0B5026A30
:1010200022F480720262026A4368C46922F4007288
:1010300024F073050C68124E2C438D6842EA052299
:101040000E4DA84201D0B04206D1CF6822F4006212
:1010500042EA072222F48062A84201D0B04207D1BE
:101060004D6923F4405343EA05138D6943EA0513A0
:101070004360C4614968C1630262F0BD002C014055
:101080000034014030B5026A22F480520262046AE0
:101090004268C3690D6823F4E64343EA05238D687B
:1010A00024F4005444EA0534084DA84202D0084D07
:1010B000A84204D14D6922F4804242EA851242607E
:1010C000C36149680164046230BD0000002C014026
:1010D0000034014010B5036A046A24F0010404627C
:1010E000846924F0F00444EA021423F00A020A435B
:1010F0008461026210BD10B5036A23F0100303621D
:101100008369046A23F4704343EA023224F0A003A3
:1011100043EA01118261016210BDFEE702E008C8E6
:10112000121F08C1002AFAD170477047002001E061
:1011300001C1121F002AFBD17047000008B5FFF75C
:1011400037F9FFF74AFE1048816941F004018161D7
:10115000806900F004000090FFF7E8FD28240021DA
:101160000A48FFF7C5FD094D4FF4FA6604EBD47049
:101170002968401048632868C462EC603046323405
:10118000FFF706F8F2E70000001002400800002018
:101190000000000000000000010203040607080927
:1011A000C011000800000020080000001C11000809
:1011B000C811000808000020400400002C1100089D
:0811C0000000000000A24A0437
:0400000508000131BD
:00000001FF
