:020000040800F2
:1000000070090020450100087319000875150008E3
:100010007119000841020008CD220008000000000C
:10002000000000000000000000000000CD1C0008DF
:100030004302000800000000951B00085D1E000838
:100040005F0100085F0100085F0100085F01000810
:100050005F0100085F0100085F0100085F01000800
:100060005F0100085F010008450200085F01000809
:100070005F0100085F0100085F0100085F010008E0
:100080005F0100085F0100085F0100085F010008D0
:100090005F0100085F0100085F0100084B020008D3
:1000A0005F0100085F0100085F0100085F010008B0
:1000B0005F0100085F0100085F0100085F010008A0
:1000C0005F0100085F0100085F0100085F01000890
:1000D0005F0100085F0100085F0100085F01000880
:1000E0005F0100085F0100085F0100085F01000870
:1000F0005F0100085F0100085F0100085F01000860
:100100005F0100085F0100085F0100085F0100084F
:10011000191F00085F0100085F0100085F01000867
:100120005F0100085F0100085F0100085F0100082F
:10013000DFF80CD000F072F8004800477125000885
:10014000700900200648804706480047FEE7FEE7A2
:10015000FEE7FEE7FEE7FEE7FEE7FEE7FEE7FEE777
:10016000D11E000831010008D2B201E000F8012BD5
:10017000491EFBD270470022F6E710B513460A4627
:1001800004461946FFF7F0FF204610BD30B505467E
:100190002A460B4612F8010B13F8014B08B1A04296
:1001A000F8D01CB1002802D06D1CF1E7284630BD04
:1001B000421C10F8011B0029FBD1801A704703462E
:1001C00011F8012B00F8012B002AF9D118467047CD
:1001D00030B505460020034600E05B1C934205D283
:1001E000EC5CC85C201A01D1002CF6D130BD30B5D2
:1001F0000B46014600202022012409E021FA02F5E5
:100200009D4205D303FA02F5491B04FA02F528447E
:10021000151EA2F10102F1DC30BD0000064C074DB5
:1002200006E0E06840F0010394E8070098471034C6
:10023000AC42F6D3FFF780FFB02F0008D02F0008A4
:10024000FEE77047102000F0FFB910B5202000F045
:10025000FBF9402000F0F8F9BDE81040802000F0E4
:10026000F3B90146002041292CD014DC212927D0E4
:1002700009DC112922D0122926D014292AD01829C4
:1002800000D131207047222920D0242924D02829C8
:10029000F8D134207047812922D007DC422917D0B9
:1002A00044291BD04829F5D137207047822919D01D
:1002B000842919D08829F8D15120704741207047EE
:1002C00042207047432070473320704736207047E4
:1002D00039207047322070473520704738207047EA
:1002E0004420704745207047302070472DE9FF4774
:1002F0000025234FA9462A460F21384600F0A9FAC7
:100300000F2000901120019002200390694638468A
:1003100000F0A6F9F020009000200124CDE90104AE
:100320006946384600F09CF90426B84604FA06F7F8
:10033000B9B2404600F088FA08B92F43FDB2761CE6
:10034000F6B2082EF2D3A5B101F04CFA5FF0000628
:1003500004FA06F7B9B2404600F076FA08B92F431E
:10036000FDB2761CF6B2042EF2D32846FFF779FFD1
:10037000814602F0C7F804B04846BDE8F0870000A7
:10038000000801402DE9F05F90F8211000240229B7
:1003900003D004218163012485E001680A6822F00A
:1003A0000E020A6001680A6822F001020A603F4EEC
:1003B0003E4FB215DFF8F4C0DFF8F090DFF8ECA0A4
:1003C000DFF8E8B0DFF8E4E00168783F13011502D8
:1003D000ACF1640CA9F15009AAF13C0AABF1280B6D
:1003E000AEF1140E4FF48018B14227D9B9420ED0A5
:1003F000614512D049451DD0514518D0594518D0F6
:10040000714501D1424615E0294EB14201D1012288
:1004100010E0274E1436B14201D110220AE0244EDA
:100420002836B14206D0224A3C32914201D11A46C6
:1004300000E02A461E49091F0A602BE0B94213D08A
:10044000614517D0494522D051451DD059451DD091
:10045000714501D142461AE0B14202D14FF080729B
:1004600015E0134EB14201D1012210E0104E1436B6
:10047000B14201D110220AE00D4E2836B14206D019
:100480000B4A3C32914201D11A4600E02A46074904
:1004900080394A60012180F82110002180F8201065
:1004A000416B01B188472046BDE8F09F80000240C3
:1004B0000804024031B500F0D1F9009C0546601CEB
:1004C00000D0641C00F0CAF9401BA042FAD338BD2A
:1004D0002DE9F047054600F0C1F94B4C616A411A1D
:1004E000B1F5967F7ADB60622846FFF7FFFE607009
:1004F000303809280DD801F04DFA01202062434A16
:10050000E0692A21115404F1330261781154401C2E
:10051000E0613E4F6078DFF8F8A000253D4E543F83
:100520004FF4805945283BD101F034FA3648333036
:10053000FFF73EFE4FF0020806280DD000224021B2
:10054000304600F086F901228021304600F081F922
:1005500031A1C4F8208016E02B4906223331881FD0
:10056000FFF736FE0004000C608039D001228021A4
:10057000304600F06EF900224021304600F069F963
:100580002AA1C4F8208021481030FFF718FE7D65AD
:10059000BD65FD653D66C4F83350A4F83750E5618C
:1005A000607851281AD101F0F5F9012249465046E8
:1005B00000F04FF901228021304600F04AF9012273
:1005C0004021304600F045F925627D65BD65FD6539
:1005D0003D66C4F83350A4F83750E561BDE8F087B4
:1005E00000224946504600F034F9012240213046AD
:1005F00000F02FF900228021304600F02AF90EA1E8
:10060000C4F82080BFE70000000000201C0100208B
:10061000000C01400010014036206E756D6265725D
:100620007320526571756972656400006C6F636B4D
:10063000206661696C6564006C6F636B2073756321
:100640006365737300000000044910B50A68024234
:1006500002D00860FFF73CFF10BD00001404014009
:100660002DE9F84FDFF8B8A100220AF1040B144677
:1006700001274FF00F090BF1040E00BF0B6807FABA
:1006800004F52B40AB4274D1DFF898C14E68A6EB5D
:100690000C0866452BD00DDC032E34D005DC36B3B8
:1006A000012E19D0022E2FD11BE0112E16D0122EA2
:1006B0002AD119E0B8F5881F19D006DCB8F5803FBB
:1006C00015D0B8F5801F1FD111E0B8F5001F0ED06E
:1006D000B8F5041F18D10AE0CA6815E0CA68121DEF
:1006E00012E0CA6808320FE0CA680C320CE08A686F
:1006F0002AB1012A4FF0080203D0456104E0042228
:1007000002E0056100E00022FF2B01D8064601E06F
:1007100000F104064FEA840501D9A5F12005D6F8B9
:1007200000C009FA05F82CEA080C02FA05F54CEAB3
:10073000050CC6F800C04D68ED006AD53A4DAE69AB
:1007400046F00106AE61AD6924F0030605F001052F
:100750000095364D06EB050CDCF80850A6074FEA6D
:10076000167809FA08F6B543314EB04202D1002698
:100770001AE04EE02F4EB04201D1012614E02E4E79
:10078000B04201D102260FE02C4EB04201D1032627
:100790000AE02B4EB04201D1042605E0294EB042BA
:1007A00001D1052600E0062606FA08F62E43CCF80D
:1007B00008604D68DAF80060ED03554601D51E4328
:1007C00000E09E432E604D68AD0305D5DBF8006068
:1007D0001E43CBF8006004E0DBF800509D43CBF8EB
:1007E00000504D68DEF80060ED02754601D51E43ED
:1007F00000E09E432E604D68AD0205D5084D0C35D6
:100800002E681E432E6004E0054E0C3635689D436D
:100810003560641C102CFFF431AFBDE8F88F000088
:1008200000040140000011100010024000000140CF
:1008300000080140000C014000100140001401407C
:1008400000180140001C01408068084000D00120D1
:1008500070470AB1016170470904FBE7014800686D
:10086000704700004000002070B5040004D094F8E8
:100870003D00002510B106E0012070BD84F83C5019
:10088000204600F011F9242084F83D00206801681A
:1008900021F00101016000F08FFA33492268B0FBBA
:1008A000F1F15160314A6368934206D94FF496736F
:1008B00059434FF47A73B1FBF3F12368491C196271
:1008C000616891420BD84900B0FBF1F2C2F30B0210
:1008D000042A01D2042019E0B0FBF1F016E0A3686D
:1008E0009BB301EBC10202EB0112B0FBF2F242F446
:1008F0008042120530D04BB301EBC10202EB011173
:10090000B0FBF1F040F4804040F400402168C86141
:10091000D4E90701084321680860D4E903100843BB
:1009200021688860D4E9050108432168C86020680F
:10093000016841F0010101602564202084F83D0038
:10094000256384F83E50002070BD00E006E001EB16
:100950004102B0FBF2F2CCE70120D7E701EB410105
:10096000B0FBF1F0D0E7000040420F00A08601008C
:100970002DE9F84F1F4690468A460446DDF8289038
:10098000FFF76CFF064694F83D0020287ED119231E
:10099000012243492046009600F073FE00287DD1D5
:1009A00094F83C00012879D0012084F83C002068AC
:1009B0000168C90703D1016841F0010101602068A5
:1009C000016821F400610160212084F83D001020BD
:1009D00084F83E0000252564C4F8248067853148EA
:1009E000E062608D208533464A465146204600F03D
:1009F000D7FD28B1206C84F83C5004284CD00DE081
:100A0000206841698069009030E0324649462046BE
:100A100000F0ACFE28B1206C042838D00320BDE8DB
:100A2000F88F606A411C6162216800780861608DFE
:100A3000401E6085208D401E80B2208521684A6955
:100A4000D24352070BD450B1606A421C62620078F4
:100A50000861608D401E6085208D401E20853246D5
:100A60004946204600F0E6FD0028D4D1208D00281C
:100A7000CBD154F83D0B016841F400710160202096
:100A800004F81E09E57765770020C8E706E02068CE
:100A9000016841F4007101600120C0E70220BEE757
:100AA000020010000000FFFF00B500680C4985B08F
:100AB000884212D1C02000901220019003200390A0
:100AC00069460848FFF7CCFD0748C16941F40011A9
:100AD000C161C06900F40010049005B000BD0000C1
:100AE00000540040000C0140001002400248016820
:100AF000491C01607047000040000020074810B505
:100B0000016841F010010160032000F093F800201B
:100B100000F006F800F018F8002010BD0020024098
:100B200010B5044607484FF47A710068B0FBF1F045
:100B300000F027FB00222146501E00F05BF8002049
:100B400010BD000044000020224808B5816941F032
:100B500001018161816901F001010091C16941F0E8
:100B60008051C161C06900F080500090032000F006
:100B700061F8002211466FF00B0000F03BF80022F4
:100B800011466FF00A0000F035F8002211466FF0B0
:100B9000090000F02FF800221146501F00F02AF83B
:100BA00000221146101F00F025F800221146901E69
:100BB00000F020F800221146501E00F01BF80648F5
:100BC000416821F0E0614160416841F0007141609D
:100BD00008BD0000001002400000014000F01F02AC
:100BE000012191404009800000F1E020C0F800118F
:100BF00070470000F0B40E4B1B680C46C3F3022391
:100C0000C3F10705042D00D90425191D072901D2B8
:100C1000002300E0DB1E012606FA05F1491E2140F3
:100C200099409E40761E16403143F0BC00F0A2BEB3
:100C30000CED00E0064900F0070208684FF6FF03DC
:100C4000184040EA0220034A104308607047000041
:100C50000CED00E00000FA052DE9F047DFF83C81DB
:100C600005460E46D8F8000000F00700B0420CD24E
:100C7000D8F8001021F007013143C8F80010D8F867
:100C8000000000F00700B04263D12878444C800790
:100C900005D56068A96820F0F000084360602878F6
:100CA000C00745D06868012816D02168022816D0F0
:100CB000890700294DDA616821F003010143616071
:100CC000FFF7CCFD6968074641F2883001290FD053
:100CD0000229814619D027E021688903E9E78901C3
:100CE000E7E700BFFFF7BAFDC11B494501D918E08E
:100CF00081466068C0F381000128F3D118E000BF8D
:100D0000FFF7ACFDC11B49450BD86068C0F38100FB
:100D10000228F5D10CE000BFFFF7A0FDC11B49453B
:100D200002D90320BDE8F087606810F00C0FF3D102
:100D3000D8F80010404601F00701B1420BD9016814
:100D400021F0070131430160006800F00700B04264
:100D500001D00120E6E72878400705D56068E968FA
:100D600020F4E060084360602878000706D56068DA
:100D7000296920F4605040EAC100606000F03CF84E
:100D80006168084AC1F30311515CC8400649086014
:100D90000020FFF7C5FE0020C4E70000002002404D
:100DA00000100240982F000844000020014800680D
:100DB0007047000044000020044805490068496865
:100DC000044AC1F30221515CC8407047440000202E
:100DD00000100240A82F000804480549006849682F
:100DE000044AC1F3C221515CC8407047440000204E
:100DF00000100240A82F000810B512A385B00FCB39
:100E00008DE80F0013A0144B006804905A68134833
:100E100002F00C0104290FD008290DD1C2F383443C
:100E2000D2031DF8041009D55A6804ABC2F340423E
:100E30009A5CB0FBF2F0484305B010BD0848484347
:100E4000FAE7000002030405060708090A0B0C0D67
:100E50000E0F1010010200000010024000127A0074
:100E600000093D002DE9F84F04460078B94DC00750
:100E700048D06868C0F38100012807D06868C0F3D3
:100E80008100022809D16868C00306D5286880035C
:100E900038D5606800286FD034E06068B0F5803FD6
:100EA0000BD010B1B0F5A02F11D0286820F48030FD
:100EB0002860286820F4802002E0286840F4803010
:100EC0002860606888B1FFF7C9FC064609E0286819
:100ED00040F480202860F0E7FFF7C0FC801B642806
:100EE00075D828688003F7D50CE0FFF7B7FC0646F5
:100EF00005E000BFFFF7B2FC801B6428F0D828682B
:100F00008003F7D42078944E80074FF001094FF00A
:100F100000083BD5686810F00C0F07D06868C0F374
:100F20008100022809D16868C00306D428688007B8
:100F300014D5206901281FD110E02069B0B1C6F88E
:100F40000090FFF78BFC074605E000BFFFF786FC2B
:100F5000C01B0228C4D828688007F7D528686169B3
:100F600020F0F80040EAC10028600FE0C6F80080D9
:100F7000FFF774FC074606E0E9E000BFFFF76EFCF0
:100F8000C01B022823D828688007F7D420780007E0
:100F90002CD57248A169D9B1C0F80090FFF75EFC6A
:100FA000074604E0FFF75AFCC01B02280FD8686A06
:100FB0008007F7D56A484FF4FA510068B0FBF1F0AA
:100FC000009000BF0098411E0091FAD20EE080E030
:100FD000C0F80080FFF742FC074604E0FFF73EFC44
:100FE000C01B022875D8686A8007F7D420784007AC
:100FF00060D5E8690027C00008D4E86940F0805057
:10100000E861E869012700F08050009055480168C8
:10101000C90513D40168834641F480710160FFF76C
:101020001DFC824606E000BFFFF718FCA0EB0A009B
:1010300064284ED8DBF80000C005F5D5E06801282B
:101040000AD008B1052813D0286A20F001002862D0
:10105000286A20F0040002E0286A40F001002862BB
:10106000E06841F2883B98B1FFF7F8FB82460BE05D
:10107000286A40F004002862EEE700BFFFF7EEFBAD
:10108000A0EB0A0159455AD8286A8007F6D50CE02A
:10109000FFF7E4FB824605E0FFF7E0FBA0EB0A0167
:1010A00059454CD8286A8007F6D41FB1E86920F06A
:1010B0008050E861E06988B36968C1F38101022961
:1010C00045D00228C6F8608004D0FFF7C7FB04466D
:1010D00038E034E0FFF7C2FB074604E0FFF7BEFB51
:1010E000C01B02282BD828688001F7D4206AB0F5ED
:1010F000803F05D16868A16820F40030084368602B
:10110000D4E908010843696821F474110843686050
:10111000C6F86090FFF7A2FB044606E015E000BFAA
:10112000FFF79CFB001B022809D828688001F7D52F
:101130000BE000BFFFF792FB001B022802D903203F
:10114000BDE8F88F28688001F4D40020F8E701207A
:10115000F6E70000001002400000424280044242D4
:1011600044000020007000404FF0E021042808698E
:1011700003D020F004000861704740F00400FAE753
:10118000704710B5401EB0F1807F01D3012010BD23
:101190004FF0E02460610F21601700F0EBFB0020AE
:1011A000A06107202061002010BD10B5FFF7E8FF07
:1011B00010BD704770B5026804461068D168536965
:1011C00010F00F0F50D003F0010501F49076354375
:1011D0005DD0C20705D0CA0503D5E26B42F001021B
:1011E000E263420705D5DA0703D0E26B42F0020260
:1011F000E263820705D5DA0703D0E26B42F004020E
:10120000E263020705D5DA0703D0E26B42F0080279
:10121000E263E26B002A33D0800604D5880602D54B
:10122000204600F095FE20684069E16BC0F3801015
:10123000090700D428B3204600F07CFE20684169ED
:1012400049061AD5416921F040014161606BA0B1A6
:101250001B494163606BFFF795F8002810D0606B65
:10126000416BBDE870400847830610D58B060ED54C
:101270002046BDE8704000F06BBE2046FFF799FFA6
:1012800070BD2046FFF795FF0020E06370BD0306A8
:1012900006D50B0604D52046BDE8704000F05CBFC3
:1012A0004006F3D54806F1D5D168204621F040012B
:1012B000D160202184F8391000F05BF970BD000086
:1012C000251F000870B5040004D094F839000025EB
:1012D00010B106E0012070BD84F83850204600F0BF
:1012E00023F8242084F839002068C16821F40051D3
:1012F000C160204600F078FE2068016921F4904129
:1013000001612068416921F02A0141612068C168BA
:1013100041F40051C160E563202084F8390084F86D
:101320003A00002070BD000010B50068154986B075
:10133000884225D11448C16941F40021C161C069C6
:10134000124C00F4002004904FF4806000900220C2
:1013500001900320039069462046FFF781F90021A0
:10136000E014CDE90001029169462046FFF778F9C3
:10137000002211463420FFF73DFC3420FFF72EFCFD
:1013800006B010BD004C00400010024000100140AB
:1013900090F83A30202B22D1F9B1F2B190F83830E0
:1013A000012B1CD081628285C2850021C16322226B
:1013B00080F83A2080F838100168CA6842F48072D8
:1013C000CA6001684A6942F001024A610068C16866
:1013D00041F02001C16000207047012070470220C9
:1013E00070470000244910B52348244BCA6900788F
:1013F00000249854521CCA613B2835D120A11846BC
:10140000FEF7C4FE20B12146284600F061FC2BE027
:101410001EA11A48FEF7BAFE20B12146284600F068
:1014200097FC21E01CA11548FEF7B0FE20B1214633
:10143000284600F0B1FB17E01AA11048FEF7A6FEFF
:1014400020B12146284600F0EBFE0DE017A10B4825
:10145000FEF79CFE40B101F083F90122110315480B
:10146000FFF7F7F901F04EF904480122BDE81040FA
:1014700001494038FFF78CBF00000020DC0000204D
:101480007365746461746574696D65007365747007
:10149000617373776F7264007265736574706173E2
:1014A00073000000756E6C6F636B00006C6F636B94
:1014B00000000000000C01402DE9F843044690F8BC
:1014C00039001F4616460D46202850D1A5B19EB1C1
:1014D00094F8380001284AD0012084F838004FF0F1
:1014E0000008C4F83C80212084F83900FFF7B6F9E1
:1014F000A6848146E68426E00120BDE8F883E08CDE
:10150000401EE084A0684B46B0F5805F4FF00002BB
:101510004FF080012046009703D000F04EFEE8B95E
:101520000DE000F04AFEC8B928882168C0F3080021
:101530004860206908B16D1C05E0AD1C03E021681E
:1015400015F8010B4860E08C0028D8D14B460022EA
:1015500040212046009700F030FE08B10320CCE780
:10156000202084F8390084F838800020C5E7022064
:10157000C3E77047FEE701684A69D24352050CD4BD
:101580006FF480624A6104210164002140F8301F39
:101590002022427301730120704700207047000031
:1015A000F8B50446C06A1E460D461746042807D003
:1015B000012805D010F5803F02D0206B122804D1FD
:1015C0002068016841F480710160134600224FF0E9
:1015D00001112046009600F054F8A0B92069B0F53A
:1015E000804F12D00620216800EAD51040F0F000AC
:1015F000086133463A460E49204600F073F838B188
:10160000206C042811D00320F8BD05F0FE0000E096
:10161000E8B221680861064933463A46891F2046E8
:1016200000F060F80028EBD1F8BD0120F8BD000003
:101630000800010070B516460D4604461AE0204623
:10164000FFF799FF08B1012070BD681C12D025B1C9
:10165000FFF704F9801BA8420CD954F8400F40F062
:10166000200044F8100900202060202161732073BD
:10167000032070BD20684069C0434007DFD40020CC
:1016800070BD2DE9F0471E4690460D460446C1F355
:101690000747DDF8209012E0701C10D02EB1FFF744
:1016A000DDF8A0EB0900B04209D9002044F8300F62
:1016B00020216173A07320730320BDE8F0872068A8
:1016C000012F0AD0806925EA00000004000C06D032
:1016D00000214145E0D00020EFE74069F3E7012118
:1016E000F7E700002DE9F0479A4691460D4604467B
:1016F00000264FF02008C1F307472AE02068406920
:10170000C043400512D42068016841F400710160B3
:1017100021686FF48060486104202064266384F8A7
:101720003D8084F83C600120BDE8F087B9F1FF3FBF
:101730000FD0B9F1000F05D0FFF790F8A0EB0A0128
:10174000494506D944F8306F84F80D80267303208C
:10175000EAE72068012F07D0D0F8180025EA00003A
:101760000004000CE0D0C9E74069F7E770B5164601
:101770000D4604461AE02046FFF7FDFE08B10120A1
:1017800070BD681C12D025B1FFF768F8801BA84215
:101790000CD954F8400F40F0200044F81009002004
:1017A0002060202161732073032070BD2068406990
:1017B000C0430006DFD4002070BD00001CB502232A
:1017C0008DF804004FF47A708DF80510009001AA8E
:1017D00078210248FFF7CCF81CBD0000480000202B
:1017E00000F090BE174810B5816986B041F0040141
:1017F0008161816901F004010491816941F008016E
:1018000081618069104C00F0080004900022F021F2
:101810002046FFF71EF8F0200090112001900220D2
:10182000039069462046FEF71BFF0F200090002022
:1018300001900120029069462046FEF711FF06B094
:1018400010BD000000100240000801402DE9F047E3
:10185000344886B0816941F004018161816901F0F9
:1018600004010491816941F008018161816901F0FD
:1018700008010491816941F0100181618069DFF8FC
:10188000A88000F01000049000220F214046FEF7CF
:10189000E0FFDFF898904FF4805700223946484621
:1018A000FEF7D7FFDFF888A00022C0215046FEF7E0
:1018B000D0FF0F20012500240226CDE90005CDE947
:1018C000024669464046FEF7CBFEF02000901948DC
:1018D000CDE9010469464046FEF7C2FE0097039633
:1018E000CDE9015469464846FEF7BAFEC020CDE96D
:1018F0000005CDE9024669465046FEF7B1FE0022DA
:1019000011460A20FFF776F90A20FFF767F900224F
:1019100011461720FFF76EF91720FFF75FF906B0A1
:10192000BDE8F0870010024000080140000C0140B3
:1019300000100140000011100B4810B5094901606A
:101940000A49416000214FF480428160C0E90312DE
:1019500041618161C1610162FEF786FF002800D00C
:10196000FEE710BD0054004048000020801A060029
:10197000FEE770470907090E002806DA00F00F009D
:1019800000F1E02080F8141D704700F1E02080F89D
:101990000014704710B500F005F8BDE8104000F0E5
:1019A00073BD000010B50021074C0A46002004EB6F
:1019B000C1131A54401CC0B28028FAD3491CC9B2C2
:1019C0000829F3D310BD00006C0100202DE9FF4F62
:1019D00092468146002624E001984C4600EBC6075B
:1019E0000AEB040819E006FB0A400025A0EB090BEE
:1019F000802C0CD2402F0AD20D9911F80B00E84030
:101A000000F001027819C1B2204600F069F86D1C9F
:101A1000EDB2082DECD3641CE4B2A045E3D8761CEB
:101A2000F6B203988642D7D3BDE8FF8F10B5642085
:101A3000FEF740FDAE2000F04AFC202000F047FCFD
:101A4000102000F044FCB02000F041FCC82000F061
:101A50003EFC002000F03BFC102000F038FC402051
:101A600000F035FC812000F032FCFF2000F02FFC5C
:101A7000A12000F02CFCA62000F029FCA82000F0FA
:101A800026FC3F2000F023FCA42000F020FCD32003
:101A900000F01DFC002000F01AFCD52000F017FC1F
:101AA000F02000F014FCD92000F011FC222000F0FE
:101AB0000EFCDA2000F00BFC122000F008FCDB200A
:101AC00000F005FC202000F002FC8D2000F0FFFB60
:101AD000142000F0FCFBBDE81040AF2000F0F7BB85
:101AE00030B5402910D880280ED801F00704012312
:101AF000064DA340C90805EBC111002A0A5C01D0BC
:101B00001A4300E09A430A5430BD00006C010020E3
:101B10002DE9F8410024164688460546802833D82A
:101B2000B8F13F0F30D8012B2AD0022B2CD1174F00
:101B3000305D002828D020280AD307EB0010A0F53C
:101B4000007000900223082241462846FFF73EFF1E
:101B5000641C0835E4B2EDB2EAE720280BD300EBB1
:101B6000400007EB4000C0380090012306224146A8
:101B70002846FFF72BFF641CAD1DE4B2EDB200E078
:101B8000034F305D0028E8D1BDE8F881A82900089E
:101B9000802700087047000070B5374C02200025F0
:101BA000206236480E4636A145618561C5610562F1
:101BB0006C38FEF7EBFA314A1432083002E09155E6
:101BC000401C761C01782C2901D03B29F7D12A48EA
:101BD0002D30FEF7EDFA0246274928482D31143002
:101BE000FEF7F6FA18B100F0BBFD28A11EE023486D
:101BF000C4F839500026A4F83D5028A16C38FEF7EF
:101C0000C5FA1D4A3932083002E09155401C761C55
:101C100001782C2901D03B29F7D117483930FEF73C
:101C2000C7FA062807D000F09BFD1FA113481C38F7
:101C3000FEF7C5FA1BE0104944F82D5F3931A58045
:101C4000A1F10C00FEF7BBFA0B482D30FEF7B0FAFD
:101C500082B20949094864232D31AC38FFF72CFCC6
:101C6000064815A11C38FEF7AAFA00F059FDBDE898
:101C7000704000F047BD0000000000204801002037
:101C80006B6579706173733D0000000077726F6E51
:101C90006720706173737764210000006E65777050
:101CA0006173733D0000000036206E756D20726513
:101CB000717569726564210070737764206861735F
:101CC000206368616E676564210000007047000052
:101CD0002DE9F0438BB00D46002414216846FEF731
:101CE0004AFA17A11948FEF751FA6E46093002E088
:101CF0007155401C6D1C01782C2901D03B29F7D16E
:101D000000273D466FF02F080DF114090DE0705DBE
:101D10002D2805D004EB840208EB4201441803E0AF
:101D200049F8274000247F1C6D1C6846FEF740FAE6
:101D3000A842ECD800F0E6FC0BB0BDE8F083000050
:101D40006461746574696D653D000000DC0000200D
:101D50007CB5314D0220002428620E4600942FA14C
:101D60002F480194FEF712FA6A46C01C02E0915512
:101D7000401C761C01782C2901D03B29F7D126493B
:101D8000052228316846FEF723FA50B1244825A1E0
:101D90005030FEF714FA40212148FEF7ECF9EC61CF
:101DA00023E01F4800266C3021A144618461C46196
:101DB00004626C38FEF7EAF9194A8032093002E011
:101DC0009155401C761C01782C2901D03B29F7D174
:101DD00013488030FEF7ECF9062809D0104817A107
:101DE0005030FEF7ECF900F08DFC00F0B9FC7CBD42
:101DF00045F82D4F0A490848AC8080312D30FEF758
:101E0000DEF9074811A15030FEF7D9F900F07AFC4D
:101E100000F086FC7CBD00000000002069643D00ED
:101E2000DC00002069642077726F6E67210000007B
:101E300070617373776F72643D00000036206E75B9
:101E40006D207265717569726564210070737764C5
:101E500020686173207365742100000010B5FEF7DF
:101E600045FEBDE81040FFF7A0B930B58FB00225A0
:101E70000120049000951020059000244FF460107C
:101E8000CDE9084007956846FEF7ECFF00B1FEE794
:101E90000F20CDE90A054FF48060CDE90C40022106
:101EA0000AA80E94FEF7D8FE00B1FEE7FEF77EFF0B
:101EB0004FF47A71B0FBF1F0FFF763F90420FFF7FC
:101EC00053F900221146501EFEF794FE0FB030BDAC
:101ED0000D48016841F00101016041680B4A114061
:101EE000416001680A4A11400160016821F48021C3
:101EF0000160416821F4FE0141604FF41F018160DF
:101F00000449C00308607047001002400000FFF859
:101F1000FFFFF6FE08ED00E00148FFF74BB90000B7
:101F20009C00002010B5406A0021C185C184FFF7E4
:101F300040F910BD0168CA6822F49072CA60016855
:101F40004A6922F001024A61202180F83A10704764
:101F500010B590F83A10222901D0022010BD8168F6
:101F6000B1F5805F11D00169002901681FD049686F
:101F700001F07F03816A4A1C82620B70C18D491E89
:101F80000904090CC18518D02BE00269816A002A76
:101F90000268526805D0D2B20A80816A491C816207
:101FA000ECE7C2F308020A80816A891CF7E74A68F5
:101FB000816A4B1C83620A70E0E70168CA6822F0FC
:101FC0002002CA600168CA6822F48072CA6001688F
:101FD0004A6922F001024A61202180F83A10FFF795
:101FE00001FA002010BD00002DE9F0410446006810
:101FF0000169E26821F44051114301612169A0683F
:102000000843616908432168CA6841F20C639A4336
:102010000243CA6020684169A26921F440711143FA
:1020200041614C4920686425322688423CD1FEF744
:10203000D3FE00EBC00101EB001061688900B0FB2A
:10204000F1F7FEF7C9FE00EBC00101EB001061687B
:10205000B0468900B0FBF1F0B0FBF5F06FF018016D
:10206000484307EB800106EB0110B0FBF5F000F0F0
:10207000F006FEF7B1FE00EBC00101EB0010616855
:102080008900B0FBF1F0B0FBF5F006EB0016FEF7AF
:10209000A3FE00EBC00101EB001061688900B0FBFA
:1020A000F1F7FEF799FE3BE0FEF786FE00EBC0017C
:1020B00001EB001061688900B0FBF1F7FEF77CFED0
:1020C00000EBC00101EB00106168B0468900B0FB75
:1020D000F1F0B0FBF5F06FF01801484307EB800119
:1020E00006EB0110B0FBF5F000F0F006FEF764FE21
:1020F00000EBC00101EB001061688900B0FBF1F05A
:10210000B0FBF5F006EB0016FEF756FE00EBC00143
:1021100001EB001061688900B0FBF1F7FEF74CFE9F
:1021200000EBC00101EB001061688900B0FBF1F029
:10213000B0FBF5F06FF01801484307EB800108EBA6
:102140000110B0FBF5F0216800F00F00304488600A
:10215000BDE8F0810038014090F83910212901D004
:10216000022070478168B1F5805F016A0BD04A1C7C
:102170000262026809785160C18C491E0904090C89
:10218000C1840ED017E009880268C1F308015160CC
:1021900001690029016A02D0491C0162ECE7891C2F
:1021A000FBE70168CA6822F08002CA600068C16863
:1021B00041F04001C160002070472DE9F041984690
:1021C00017460E460446069D1DE0681C1BD02DB127
:1021D000FEF744FBA0EB0800A84214D92068C168B0
:1021E00021F4D071C1602068416921F00101416191
:1021F000202084F8390084F83A00002084F8380060
:102200000320BDE8F0812068006836EA000004D0B1
:102210000020B842D9D00020F3E70120F9E7000000
:1022200010B50C461C49022008621C48002141617F
:102230008161C16101621AA16C38FDF7A7FF174ADD
:102240001432083002E01155401C641C01782C291E
:1022500001D03B29F7D11049104806222D31143006
:10226000FDF7B6FF50B10D4810A11C38FDF7A7FFD0
:1022700000F076FABDE8104000F044BA00F050FAE1
:1022800000224FF480510C48FEF7E3FA03480BA1FB
:102290001C38FDF794FFEDE7000000204801002006
:1022A0006B6579706173733D000000006C6F636B48
:1022B000206661696C656400000C01406C6F636BA3
:1022C000207375636365737300000000FEE70146C9
:1022D0000020FFF773BA01464020FFF76FBA0000F5
:1022E0000FB4084B10B504A902AA039800F01CF81B
:1022F000044602A9002000F0C1F8204610BC5DF899
:1023000014FB00007D24000802E008C8121F08C169
:10231000002AFAD170477047002001E001C1121F66
:10232000002AFBD1704700002DE9FF4F89B09B4682
:102330000446002506E025280BD05A460B99904705
:10234000641C6D1C20780028F5D10DB02846BDE82E
:10235000F08F0027B8460122474900E0074314F8F0
:10236000013F203B02FA03F00842F7D120782E28E3
:1023700019D114F8010F47F004072A280ED06FF086
:102380002F022078A0F1300109290CD808EB880130
:1023900002EB410100EB0108641CF2E70A98641C9F
:1023A00050F8048B0A9020780028CED0642808D0FA
:1023B000692806D075281ED05A460B9990476D1C87
:1023C00058E00A994FF00A0901C90A91002802DA77
:1023D00040422D2102E0390504D52B218DF8201033
:1023E000012103E0F90704D02021F7E78A4608AE6F
:1023F0000DE00021FAE70A994FF00A0901C90A9194
:10240000F7E74946FDF7F3FE303106F8011D0028D5
:10241000F7D1ADEB060000F12009780701D44FF0A9
:102420000108C84502DDA8EB090000E00020804655
:10243000002706E008A85A46C05D0B9990476D1C1E
:102440007F1C5745F6DB04E030205A460B99904735
:102450006D1CB8F10001A8F10108F5DC05E016F8E3
:10246000010B5A460B9990476D1CB9F10001A9F177
:102470000109F4DC641C65E7092801000A68531CA3
:102480000B601070704700002DE9F0410E4F0024E2
:1024900004F1B000C0B2FFF71AFF0020FFF717FFEA
:1024A0001020FFF714FF002507EBC416705DFFF73F
:1024B00012FF6D1CEDB2802DF8D3641CE4B2082C21
:1024C000E6D3BDE8F08100006C01002010B50021CA
:1024D000022307A20846FFF71BFB0223084A10212C
:1024E0000020FFF715FBBDE81040FFF7CDBF00004F
:1024F000706C6561736520696E73207073643A0057
:102500001C010020174810B5816986B041F0040114
:102510008161816901F004010491816941F0080140
:1025200081618069104C00F00800049000220F21A6
:102530002046FEF78EF90F20009011200190022016
:10254000039069462046FEF78BF8F020009007487C
:1025500001900120029069462046FEF781F806B0FE
:1025600010BD0000001002400008014000002110D2
:10257000FEF7C4FAFFF779FCFFF768F9254824490C
:10258000002401604FF4E131C0E901140C21C46062
:10259000C0E904418461C461FEF794FE00B1FEE726
:1025A000FFF7CAF901221C491A48FEF7F1FE1B4D3C
:1025B000012280212846FEF74CF9012240212846BD
:1025C000FEF747F9FFF732FAFFF7ECF9FFF7E2F908
:1025D000FFF706F9012211031148FEF73AF90E4DF3
:1025E00040F6B836286A18B1012804D0022805D070
:1025F00000F018F8F6E7FFF769FFF3E700F0A0F83E
:102600003046FDF757FFFFF7C5F92C62EAE70000F7
:10261000004C00409C000020000000200010014001
:10262000000C014038B5012211032948FEF711F9C9
:10263000284C012280212046FEF70BF9012240217F
:102640002046FEF706F94FF47A70FDF733FF224C6F
:102650000020A169491CA1613C2901D0616903E006
:10266000A0616169491C61613C2901D0216903E0D5
:1026700060612169491C21610C2900D12061E06859
:102680000090D4E9012315A11748FFF729FEA0699E
:1026900000901548D4E9042314A11030FFF720FE60
:1026A00000210223104A0846FFF732FA0E4A02239D
:1026B000103210210020FFF72BFA02230EA2202156
:1026C0000020FFF725FABDE83840FFF7DDBE000027
:1026D000000C0140001001400000002025642D2561
:1026E000642D2564000000003C01002025643A258B
:1026F000643A256400000000736D617274206C6F91
:10270000636B210010B540210348FDF734FD0349F8
:102710000020C86110BD0000DC0000200000002087
:1027200010B5064C002280212046FEF792F8204684
:102730000122BDE810404021FEF78BB80010014097
:1027400010B5FFF727F900210223044A0846FFF7D6
:10275000DFF9BDE81040FFF797BE00002C01002014
:1027600010B5064C012280212046FEF772F8204663
:102770000022BDE810404021FEF76BB80010014078
:102780000000000000000000002F00000000070013
:10279000070000147F147F1400242A7F2A1200628D
:1027A0006408132300364955225000000503000039
:1027B00000001C224100000041221C000014083EC1
:1027C00008140008083E0808000000A06000000887
:1027D00008080808000060600000002010080402DB
:1027E000003E5149453E0000427F40000042615199
:1027F0004946002141454B31001814127F10002733
:1028000045454539003C4A494930000171090503F5
:1028100000364949493600064949291E0000363626
:102820000000000056360000000814224100001489
:102830001414141400004122140800020151090666
:1028400000324959513E007C1211127C007F4949E7
:102850004936003E41414122007F4141221C007F18
:1028600049494941007F09090901003E4149497A26
:10287000007F0808087F0000417F410000204041A0
:102880003F01007F08142241007F40404040007F0C
:10289000020C027F007F0408107F003E4141413E50
:1028A000007F09090906003E4151215E007F091998
:1028B00029460046494949310001017F0101003F95
:1028C0004040403F001F2040201F003F4038403F15
:1028D0000063140814630007087008070061514979
:1028E000454300007F41410000552A552A5500000C
:1028F00041417F000004020102040040404040408A
:10290000000001020400002054545478007F484421
:10291000443800384444442000384444487F003858
:102920005454541800087E0901020018A4A4A47C81
:10293000007F080404780000447D4000004080844B
:102940007D00007F102844000000417F4000007C93
:1029500004180478007C080404780038444444389F
:1029600000FC242424180018242418FC007C0804EB
:10297000040800485454542000043F444020003CC4
:102980004040207C001C2040201C003C4030403C4B
:10299000004428102844001CA0A0A07C00446454DB
:1029A0004C4414141414141400000000000000001F
:1029B0000000000000000000000000F8000000001F
:1029C000000000333000000000100C06100C060060
:1029D000000000000000000040C07840C0784000C7
:1029E000043F04043F040400007088FC0830000029
:1029F000001820FF211E0000F008F000E018000081
:102A000000211C031E211E0000F008887000000039
:102A10001E2123241927211010160E00000000008B
:102A20000000000000000000000000E018040200A8
:102A3000000000071820400000020418E000000019
:102A40000040201807000000404080F08040400017
:102A50000202010F01020200000000F0000000006D
:102A60000101011F01010100000000000000000041
:102A700080B07000000000000000000000000000B6
:102A8000000101010101010100000000000000003F
:102A900000303000000000000000000080601804DA
:102AA000006018060100000000E010080810E000B7
:102AB000000F102020100F00001010F80000000080
:102AC0000020203F202000000070080808887000C7
:102AD0000030282422213000003008888848300047
:102AE0000018202020110E000000C02010F8000067
:102AF00000070424243F240000F808888808080000
:102B00000019212020110E0000E010888818000014
:102B1000000F112020110E0000380808C8380800E6
:102B20000000003F00000000007088080888700066
:102B3000001C222121221C0000E010080810E000E7
:102B40000000312222110F00000000C0C000000070
:102B50000000003030000000000000800000000095
:102B6000000080600000000000008040201008008D
:102B70000001020408102000404040404040400056
:102B80000404040404040400000810204080000031
:102B90000020100804020100007048080808F00036
:102BA0000000003036010000C030C828E810E00006
:102BB0000718272423140B000000C038E000000091
:102BC000203C23020227382008F8888888700000FB
:102BD000203F202020110E00C030080808083800CF
:102BE000071820202010080008F808080810E00046
:102BF000203F202020100F0008F88888E8081000E7
:102C0000203F20202320180008F88888E8081000BA
:102C1000203F200003000000C030080808380000F2
:102C200007182020221E020008F808000008F808F3
:102C3000203F210101213F20000808F8080800007A
:102C40000020203F2020000000000808F8080800AD
:102C5000C08080807F00000008F888C02818080025
:102C6000203F20012638200008F80800000000005E
:102C7000203F20202020300008F8F800F8F8080055
:102C8000203F003F003F200008F830C00008F8084F
:102C9000203F200007183F00E01008080810E0005F
:102CA0000F10202020100F0008F808080808F00076
:102CB000203F210101010000E01008080810E00099
:102CC0000F18242438504F0008F88888888870002E
:102CD000203F2000030C30200070880808083800CE
:102CE0000038202121221C00180808F808081800C4
:102CF0000000203F2000000008F808000008F80845
:102D0000001F202020201F000878880000C83808F5
:102D1000000007380E010000F80800F80008F8006D
:102D2000033C0700073C0300081868808068180807
:102D300020302C03032C30200838C800C838080085
:102D40000000203F2000000010080808C8380800D4
:102D50002038262120201800000000FE0202020078
:102D60000000007F40404000000C30C00000000028
:102D7000000000010638C00000020202FE00000050
:102D8000004040407F0000000000040202020400F6
:102D90000000000000000000000000000000000033
:102DA000808080808080808000020204000000001B
:102DB0000000000000000000000080808080000013
:102DC0000019242222223F2008F800808000000001
:102DD000003F112020110E000000008080800000C4
:102DE000000E112020201100000000808088F800D3
:102DF000000E112020103F20000080808080000005
:102E0000001F222222221300008080F08888881868
:102E10000020203F20200000000080808080800073
:102E2000006B94949493600008F800808080000008
:102E3000203F210000203F200080989800000000E3
:102E40000020203F20200000000000809898000013
:102E500000C08080807F000008F800008080800033
:102E6000203F24022D302000000808F80000000058
:102E70000020203F20200000808080808080800013
:102E8000203F20003F20003F8080008080800000A5
:102E9000203F210000203F20000080808080000033
:102EA000001F202020201F00808000808000000064
:102EB00080FFA12020110E00000000808080800093
:102EC000000E112020A0FF80808080008080800084
:102ED00020203F21200001000000808080808000B1
:102EE0000033242424241900008080E08080000026
:102EF0000000001F20200000808000000080800073
:102F0000001F202020103F208080800000808080D3
:102F100000010E3008060100808000800080808063
:102F20000F300C030C300F00008080008080800088
:102F30000020312E0E3120008080800000808080B3
:102F400080818E7018060100008080808080800063
:102F50000021302C2221300000000000807C020281
:102F600000000000003F404000000000FF000000A3
:102F700000000000FF0000000002027C8000000052
:102F80000040403F0000000000060101020204046E
:102F90000000000000000000000000000000000031
:102FA00001020304060708090000000001020304EF
:102FB000D02F00080000002048000000082300086F
:102FC00018300008480000202809000018230008D5
:102FD0000000000013000000070000000E000000C9
:102FE0000A000000110000000000000000000000C6
:102FF000000000000000000061646D696E31323332
:103000003435360000000000000000000000000021
:083010000000000000A24A04C8
:0400000508000131BD
:00000001FF
