:020000040800F2
:10000000200900204501000877180008D1150008D4
:1000100075180008C10100082F1E0008000000002C
:100020000000000000000000000000008719000828
:10003000FB0100080000000085190008891900086C
:100040005F0100085F0100085F0100085F01000810
:100050005F0100085F0100085F0100085F01000800
:100060005F0100085F0100085F0100085F010008F0
:100070005F0100085F0100085F0100085F010008E0
:100080005F0100085F0100085F0100085F010008D0
:100090005F0100085F0100085F0100085F010008C0
:1000A0005F0100085F0100085F0100085F010008B0
:1000B0005F0100085F0100085F0100085F010008A0
:1000C0005F0100085F0100085F0100085F01000890
:1000D0005F0100085F0100085F0100085F01000880
:1000E0005F0100085F0100085F0100085F01000870
:1000F0005F0100085F0100085F0100085F01000860
:100100005F0100085F0100085F0100085F0100084F
:10011000451A00085F0100085F0100085F01000840
:100120005F0100085F010008C50100085F010008C9
:10013000DFF80CD000F032F800480047A51E000898
:10014000200900200648804706480047FEE7FEE7F2
:10015000FEE7FEE7FEE7FEE7FEE7FEE7FEE7FEE777
:10016000FD19000831010008D2B201E000F8012BAE
:10017000491EFBD270470022F6E710B513460A4627
:1001800004461946FFF7F0FF204610BD421C10F848
:10019000011B0029FBD1801A70470000064C074D57
:1001A00006E0E06840F0010394E807009847103447
:1001B000AC42F6D3FFF7C0FF701F0008901F000885
:1001C000FEE70000014800F0C9B80000DC00002094
:1001D00030B590F840500124AC40C56B6C600468A9
:1001E00063604368102B036803D099600068C260A5
:1001F00030BD9A600068C16030BD704701680A6810
:1002000022F00E020A6001680A6822F001020A6008
:1002100090F84020C36B012101FA02F25A6080F885
:100220002110002180F82010084670472DE9F05F6A
:1002300090F821100024022903D0042181630124B5
:1002400085E001680A6822F00E020A6001680A6807
:1002500022F001020A603F4E3E4FB215DFF8F4C0B3
:10026000DFF8F090DFF8ECA0DFF8E8B0DFF8E4E0CA
:100270000168783F13011502ACF1640CA9F1500933
:10028000AAF13C0AABF1280BAEF1140E4FF4801822
:10029000B14227D9B9420ED0614512D049451DD08F
:1002A000514518D0594518D0714501D1424615E045
:1002B000294EB14201D1012210E0274E1436B1423D
:1002C00001D110220AE0244E2836B14206D0224A3B
:1002D0003C32914201D11A4600E02A461E49091FCC
:1002E0000A602BE0B94213D0614517D0494522D0AE
:1002F00051451DD059451DD0714501D142461AE0E6
:10030000B14202D14FF0807215E0134EB14201D1DB
:10031000012210E0104E1436B14201D110220AE041
:100320000D4E2836B14206D00B4A3C32914201D1E3
:100330001A4600E02A46074980394A60012180F8C0
:100340002110002180F82010416B01B18847204620
:10035000BDE8F09F80000240080402402DE9F05FF4
:10036000C16B0A6801680B68046C4FF0040808FA56
:1003700004F8844D844E854FDFF814C2DFF81492E0
:10038000DFF814A2DFF814B2DFF814E218EA020F63
:1003900065D05FEA437862D50A68920603D40A689A
:1003A00022F004020A60DFF8F0814FF480620168F5
:1003B00008F1140813011402414524D9A9420DD0B3
:1003C000B1420FD0B9421AD0614515D0494515D078
:1003D000514501D1120312E0594501D104220EE02A
:1003E000714501D140220AE06D4D1435A94206D075
:1003F0006B4A2832914201D11A4600E022466749F1
:10040000091F0A6029E0A94213D0B14215D0B942B0
:1004100020D061451BD049451BD0514502D14FF436
:10042000800217E0414502D14FF0806212E0594549
:1004300001D104220EE0714501D140220AE0584D5D
:100440001435A94206D0564A2832914201D11A46A3
:1004500000E022464B4908394A60C16A71E04FF01A
:10046000020808FA04F818EA020F70D05FEA8378ED
:100470006DD50A68920606D40A6822F00A020A605C
:10048000012180F82110DFF810814FF4007201681B
:1004900008F1140813011402414524D9A9420DD0D2
:1004A000B1420FD0B9421AD0614515D0494515D097
:1004B000514501D1120312E0594501D102220EE04B
:1004C000714501D120220AE0354D1435A94206D0EC
:1004D000334A2832914201D11A4600E022462F4980
:1004E000091F0A6029E0A94213D0B14215D0B942D0
:1004F00020D061451BD049451BD0514502D14FF456
:10050000001217E0414502D14FF0007212E0594548
:1005100001D102220EE0714501D120220AE0204DD6
:100520001435A94206D01E4A2832914201D11A46FA
:1005300000E02246134908394A60002180F8201063
:10054000816A00291CD0BDE8F05F0847FFE7082555
:10055000A540154214D01A0712D50A6822F00E02DF
:100560000A6090F84020C36B012101FA02F25A6040
:10057000816380F82110002180F82010016BE0E7F2
:10058000BDE8F09F080002401C000240300002401D
:1005900044000240580002406C000240080402403F
:1005A0001C04024030B560B11C4A03681421934218
:1005B00009D21B4A1A44B2FBF1F1890001641949BE
:1005C0000AE0012030BD154A52421A44B2FBF1F153
:1005D0008900016411490839C163022180F82110A2
:1005E0001A6843F6F0718A43F0E901142143D0E917
:1005F00002452C4321430469214344692143846912
:10060000214311431960002141628162C16201638B
:100610004163012242770177084630BD0804024059
:10062000F8FFFDBF0000024070B5044690F82000BE
:10063000002501280CD0012084F8200094F82160C6
:100640000020012E06D084F820000225284670BD27
:10065000022070BD022684F82160A063206806682D
:1006600026F0010606602046FFF7B2FDE06A00288A
:100670002068016802D041F00E0106E021F004017B
:1006800001602068016841F00A010160206801688A
:1006900041F001010160D9E731B500F0FFF8009C9D
:1006A0000546601C00D0641C00F0F8F8401BA04216
:1006B000FAD338BD2DE9F84FDFF8B8A100220AF1CE
:1006C000040B144601274FF00F090BF1040E00BF75
:1006D0000B6807FA04F52B40AB4274D1DFF898C1E0
:1006E0004E68A6EB0C0866452BD00DDC032E34D0EB
:1006F00005DC36B3012E19D0022E2FD11BE0112EAE
:1007000016D0122E2AD119E0B8F5881F19D006DCB0
:10071000B8F5803F15D0B8F5801F1FD111E0B8F5AE
:10072000001F0ED0B8F5041F18D10AE0CA6815E002
:10073000CA68121D12E0CA6808320FE0CA680C329B
:100740000CE08A682AB1012A4FF0080203D0456103
:1007500004E0042202E0056100E00022FF2B01D842
:10076000064601E000F104064FEA840501D9A5F12F
:100770002005D6F800C009FA05F82CEA080C02FAA0
:1007800005F54CEA050CC6F800C04D68ED006AD5C9
:100790003A4DAE6946F00106AE61AD6924F003063C
:1007A00005F001050095364D06EB050CDCF8085008
:1007B000A6074FEA167809FA08F6B543314EB0425B
:1007C00002D100261AE04EE02F4EB04201D10126A0
:1007D00014E02E4EB04201D102260FE02C4EB04262
:1007E00001D103260AE02B4EB04201D1042605E0D8
:1007F000294EB04201D1052600E0062606FA08F689
:100800002E43CCF808604D68DAF80060ED035546D9
:1008100001D51E4300E09E432E604D68AD0305D513
:10082000DBF800601E43CBF8006004E0DBF800500A
:100830009D43CBF800504D68DEF80060ED02754630
:1008400001D51E4300E09E432E604D68AD0205D5E4
:10085000084D0C352E681E432E6004E0054E0C3604
:1008600035689D433560641C102CFFF431AFBDE842
:10087000F88F000000040140000011100010024039
:100880000000014000080140000C01400010014040
:100890000014014000180140001C0140014800689C
:1008A000704700000000002070B5040004D094F8E8
:1008B0003D00002510B106E0012070BD84F83C50D9
:1008C000204600F011F9242084F83D0020680168DA
:1008D00021F00101016000F08FFA33492268B0FB7A
:1008E000F1F15160314A6368934206D94FF496732F
:1008F00059434FF47A73B1FBF3F12368491C196231
:10090000616891420BD84900B0FBF1F2C2F30B02CF
:10091000042A01D2042019E0B0FBF1F016E0A3682C
:100920009BB301EBC10202EB0112B0FBF2F242F405
:100930008042120530D04BB301EBC10202EB011132
:10094000B0FBF1F040F4804040F400402168C86101
:10095000D4E90701084321680860D4E9031008437B
:1009600021688860D4E9050108432168C8602068CF
:10097000016841F0010101602564202084F83D00F8
:10098000256384F83E50002070BD00E006E001EBD6
:100990004102B0FBF2F2CCE70120D7E701EB4101C5
:1009A000B0FBF1F0D0E7000040420F00A08601004C
:1009B0002DE9F84F1F4690468A460446DDF82890F8
:1009C000FFF76CFF064694F83D0020287ED11923DE
:1009D000012243492046009600F081FE00287DD187
:1009E00094F83C00012879D0012084F83C0020686C
:1009F0000168C90703D1016841F001010160206865
:100A0000016821F400610160212084F83D0010207C
:100A100084F83E0000252564C4F8248067853148A9
:100A2000E062608D208533464A465146204600F0FC
:100A3000E5FD28B1206C84F83C5004284CD00DE032
:100A4000206841698069009030E03246494620467E
:100A500000F0BAFE28B1206C042838D00320BDE88D
:100A6000F88F606A411C6162216800780861608DBE
:100A7000401E6085208D401E80B2208521684A6915
:100A8000D24352070BD450B1606A421C62620078B4
:100A90000861608D401E6085208D401E2085324695
:100AA0004946204600F0F4FD0028D4D1208D0028CE
:100AB000CBD154F83D0B016841F400710160202056
:100AC00004F81E09E57765770020C8E706E020688E
:100AD000016841F4007101600120C0E70220BEE717
:100AE000020010000000FFFF00B500680C4985B04F
:100AF000884212D1C0200090122001900320039060
:100B000069460848FFF7D6FD0748C16941F400115E
:100B1000C161C06900F40010049005B000BD000080
:100B200000540040000C01400010024002480168DF
:100B3000491C01607047000000000020074810B504
:100B4000016841F010010160032000F093F80020DB
:100B500000F006F800F018F8002010BD0020024058
:100B600010B5044607484FF47A710068B0FBF1F005
:100B700000F027FB00222146501E00F05BF8002009
:100B800010BD000004000020224808B5816941F032
:100B900001018161816901F001010091C16941F0A8
:100BA0008051C161C06900F080500090032000F0C6
:100BB00061F8002211466FF00B0000F03BF80022B4
:100BC00011466FF00A0000F035F8002211466FF070
:100BD000090000F02FF800221146501F00F02AF8FB
:100BE00000221146101F00F025F800221146901E29
:100BF00000F020F800221146501E00F01BF80648B5
:100C0000416821F0E0614160416841F0007141605C
:100C100008BD0000001002400000014000F01F026B
:100C2000012191404009800000F1E020C0F800114E
:100C300070470000F0B40E4B1B680C46C3F3022350
:100C4000C3F10705042D00D90425191D072901D278
:100C5000002300E0DB1E012606FA05F1491E2140B3
:100C600099409E40761E16403143F0BC00F004BE11
:100C70000CED00E0064900F0070208684FF6FF039C
:100C8000184040EA0220034A104308607047000001
:100C90000CED00E00000FA052DE9F047DFF83C819B
:100CA00005460E46D8F8000000F00700B0420CD20E
:100CB000D8F8001021F007013143C8F80010D8F827
:100CC000000000F00700B04263D12878444C800750
:100CD00005D56068A96820F0F000084360602878B6
:100CE000C00745D06868012816D02168022816D0B0
:100CF000890700294DDA616821F003010143616031
:100D0000FFF7CCFD6968074641F2883001290FD012
:100D10000229814619D027E021688903E9E7890182
:100D2000E7E700BFFFF7BAFDC11B494501D918E04D
:100D300081466068C0F381000128F3D118E000BF4C
:100D4000FFF7ACFDC11B49450BD86068C0F38100BB
:100D50000228F5D10CE000BFFFF7A0FDC11B4945FB
:100D600002D90320BDE8F087606810F00C0FF3D1C2
:100D7000D8F80010404601F00701B1420BD90168D4
:100D800021F0070131430160006800F00700B04224
:100D900001D00120E6E72878400705D56068E968BA
:100DA00020F4E060084360602878000706D560689A
:100DB000296920F4605040EAC100606000F03CF80E
:100DC0006168084AC1F30311515CC84006490860D4
:100DD0000020FFF7C5FE0020C4E70000002002400D
:100DE00000100240581F000804000020014800685D
:100DF0007047000004000020044805490068496865
:100E0000044AC1F30221515CC8407047040000202D
:100E100000100240681F000804480549006849683E
:100E2000044AC1F3C221515CC8407047040000204D
:100E300000100240681F000810B512A385B00FCB48
:100E40008DE80F0013A0144B006804905A681348F3
:100E500002F00C0104290FD008290DD1C2F38344FC
:100E6000D2031DF8041009D55A6804ABC2F34042FE
:100E70009A5CB0FBF2F0484305B010BD0848484307
:100E8000FAE7000002030405060708090A0B0C0D27
:100E90000E0F1010010200000010024000127A0034
:100EA00000093D002DE9F84F04460078B94DC00710
:100EB00048D06868C0F38100012807D06868C0F393
:100EC0008100022809D16868C00306D5286880031C
:100ED00038D5606800286FD034E06068B0F5803F96
:100EE0000BD010B1B0F5A02F11D0286820F48030BD
:100EF0002860286820F4802002E0286840F48030D0
:100F00002860606888B1FFF7C9FC064609E02868D8
:100F100040F480202860F0E7FFF7C0FC801B6428C5
:100F200075D828688003F7D50CE0FFF7B7FC0646B4
:100F300005E000BFFFF7B2FC801B6428F0D82868EA
:100F40008003F7D42078944E80074FF001094FF0CA
:100F500000083BD5686810F00C0F07D06868C0F334
:100F60008100022809D16868C00306D42868800778
:100F700014D5206901281FD110E02069B0B1C6F84E
:100F80000090FFF78BFC074605E000BFFFF786FCEB
:100F9000C01B0228C4D828688007F7D52868616973
:100FA00020F0F80040EAC10028600FE0C6F8008099
:100FB000FFF774FC074606E0E9E000BFFFF76EFCB0
:100FC000C01B022823D828688007F7D420780007A0
:100FD0002CD57248A169D9B1C0F80090FFF75EFC2A
:100FE000074604E0FFF75AFCC01B02280FD8686AC6
:100FF0008007F7D56A484FF4FA510068B0FBF1F06A
:10100000009000BF0098411E0091FAD20EE080E0EF
:10101000C0F80080FFF742FC074604E0FFF73EFC03
:10102000C01B022875D8686A8007F7D4207840076B
:1010300060D5E8690027C00008D4E86940F0805016
:10104000E861E869012700F0805000905548016888
:10105000C90513D40168834641F480710160FFF72C
:101060001DFC824606E000BFFFF718FCA0EB0A005B
:1010700064284ED8DBF80000C005F5D5E0680128EB
:101080000AD008B1052813D0286A20F00100286290
:10109000286A20F0040002E0286A40F0010028627B
:1010A000E06841F2883B98B1FFF7F8FB82460BE01D
:1010B000286A40F004002862EEE700BFFFF7EEFB6D
:1010C000A0EB0A0159455AD8286A8007F6D50CE0EA
:1010D000FFF7E4FB824605E0FFF7E0FBA0EB0A0127
:1010E00059454CD8286A8007F6D41FB1E86920F02A
:1010F0008050E861E06988B36968C1F38101022921
:1011000045D00228C6F8608004D0FFF7C7FB04462C
:1011100038E034E0FFF7C2FB074604E0FFF7BEFB10
:10112000C01B02282BD828688001F7D4206AB0F5AC
:10113000803F05D16868A16820F4003008436860EA
:10114000D4E908010843696821F474110843686010
:10115000C6F86090FFF7A2FB044606E015E000BF6A
:10116000FFF79CFB001B022809D828688001F7D5EF
:101170000BE000BFFFF792FB001B022802D90320FF
:10118000BDE8F88F28688001F4D40020F8E701203A
:10119000F6E7000000100240000042428004424294
:1011A00004000020007000404FF0E021042808698E
:1011B00003D020F004000861704740F00400FAE713
:1011C000704710B5401EB0F1807F01D3012010BDE3
:1011D0004FF0E02460610F21601700F04DFB00200C
:1011E000A06107202061002010BD10B5FFF7E8FFC7
:1011F00010BD10B504460068416994F83920C1F368
:10120000C011212A0BD151B1416921F08001416106
:10121000206B08B1FEF7F2FF204600F099FC206831
:10122000416994F83A20C1F38011222A0BD151B1BF
:10123000416921F040014161606B08B1FEF7DEFFBA
:10124000204600F077FC002010BD704770B50268A2
:1012500004461068D168536910F00F0F50D003F0A6
:10126000010501F4907635435DD0C20705D0CA056B
:1012700003D5E26B42F00102E263420705D5DA07CB
:1012800003D0E26B42F00202E263820705D5DA077F
:1012900003D0E26B42F00402E263020705D5DA07ED
:1012A00003D0E26B42F00802E263E26B002A33D023
:1012B000800604D5880602D5204600F052FC20683E
:1012C0004069E16BC0F38010090700D428B32046C1
:1012D00000F030FC2068416949061AD5416921F0C7
:1012E00040014161606BA0B11B494163606BFEF737
:1012F0009DFF002810D0606B416BBDE8704008472F
:10130000830610D58B060ED52046BDE8704000F050
:1013100028BC2046FFF799FF70BD2046FFF795FFD8
:101320000020E06370BD030606D50B0604D52046F9
:10133000BDE8704000F018BD4006F3D54806F1D571
:10134000D168204621F04001D160202184F8391075
:1013500000F03DF970BD0000951A000870B504005A
:1013600004D094F83900002510B106E0012070BDCA
:1013700084F83850204600F023F8242084F83900FF
:101380002068C16821F40051C160204600F034FC9F
:101390002068016921F4904101612068416921F0D0
:1013A0002A0141612068C16841F40051C160E563D0
:1013B000202084F8390084F83A00002070BD000035
:1013C00070B506460068204986B088423AD11F4869
:1013D000C16941F40021C161C0691D4C00F40020C5
:1013E00004904FF48060009002200190032003904D
:1013F00069462046FFF75EF90025E014CDE90005B7
:10140000694620460295FFF755F9134C1148C4E987
:1014100000058020C4E9025025616561A561204670
:10142000E561FFF7BFF818B1B0210CA000F008FD8E
:1014300074630022114634206662FFF7FBFB342000
:10144000FFF7ECFB06B070BD004C004000100240FE
:101450000010014030040240DC0000202E2E2F53EB
:1014600072632F73746D3332663178785F68616CA4
:101470005F6D73702E630000F8B5044690F83A0073
:1014800020283CD1C1B3BAB394F83800012836D033
:10149000012084F83800A162A2850025E56322209E
:1014A00084F83A00636B17489862636B1648D862F9
:1014B000636B16481863606B134645630846666B9A
:1014C000216802463046091DFFF7AEF82068016822
:1014D0004168009184F83850C16841F48071C1605E
:1014E0002068416941F0010141612068416941F092
:1014F000400141610020F8BDFFE70120FBE7022029
:10150000F9E70000EF1A00082B1B0008A51A0008D5
:10151000704770472DE9F843044690F839001F469C
:1015200016460D46202850D1A5B19EB194F838003A
:1015300001284AD0012084F838004FF00008C4F890
:101540003C80212084F83900FFF7A8F9A684814661
:10155000E68426E00120BDE8F883E08C401EE084AC
:10156000A0684B46B0F5805F4FF000024FF080015D
:101570002046009703D000F028FCE8B90DE000F009
:1015800024FCC8B928882168C0F308004860206995
:1015900008B16D1C05E0AD1C03E0216815F8010BD6
:1015A0004860E08C0028D8D14B46002240212046DC
:1015B000009700F00AFC08B10320CCE7202084F853
:1015C000390084F838800020C5E70220C3E770475F
:1015D000FEE701684A69D24352050CD46FF4806279
:1015E0004A6104210164002140F8301F2022427327
:1015F000017301207047002070470000F8B50446D1
:10160000C06A1E460D461746042807D0012805D09B
:1016100010F5803F02D0206B122804D120680168A9
:1016200041F480710160134600224FF00111204601
:10163000009600F054F8A0B92069B0F5804F12D0A0
:101640000620216800EAD51040F0F000086133461A
:101650003A460E49204600F073F838B1206C042851
:1016600011D00320F8BD05F0FE0000E0E8B22168CB
:101670000861064933463A46891F204600F060F863
:101680000028EBD1F8BD0120F8BD000008000100E2
:1016900070B516460D4604461AE02046FFF799FF3E
:1016A00008B1012070BD681C12D025B1FFF7F6F813
:1016B000801BA8420CD954F8400F40F0200044F899
:1016C000100900202060202161732073032070BD69
:1016D00020684069C0434007DFD4002070BD2DE979
:1016E000F0471E4690460D460446C1F30747DDF815
:1016F000209012E0701C10D02EB1FFF7CFF8A0EBB5
:101700000900B04209D9002044F8300F202161734C
:10171000A07320730320BDE8F0872068012F0AD052
:10172000806925EA00000004000C06D00021414534
:10173000E0D00020EFE74069F3E70121F7E7000080
:101740002DE9F0479A4691460D46044600264FF093
:101750002008C1F307472AE020684069C0434005DC
:1017600012D42068016841F40071016021686FF4AF
:101770008060486104202064266384F83D8084F8FA
:101780003C600120BDE8F087B9F1FF3F0FD0B9F10F
:10179000000F05D0FFF782F8A0EB0A01494506D9F2
:1017A00044F8306F84F80D8026730320EAE7206840
:1017B000012F07D0D0F8180025EA00000004000C23
:1017C000E0D0C9E74069F7E770B516460D46044614
:1017D0001AE02046FFF7FDFE08B1012070BD681C2D
:1017E00012D025B1FFF75AF8801BA8420CD954F843
:1017F000400F40F0200044F8100900202060202114
:1018000061732073032070BD20684069C0430006E7
:10181000DFD4002070BD00001CB502238DF8040049
:101820004FF47A708DF80510009001AA78210248D3
:10183000FFF7BEF81CBD0000080000200B4810B5E3
:10184000094901600A49416000214FF480428160EA
:10185000C0E9031241618161C1610162FFF724F8AF
:10186000002800D0FEE710BD005400400800002012
:10187000A0860100FEE770470907090E002806DA76
:1018800000F00F0000F1E02080F8141D704700F117
:10189000E02080F80014704710B500F005F8BDE8AE
:1018A000104000F0DDBA000010B50021074C0A46D8
:1018B000002004EBC1131A54401CC0B28028FAD394
:1018C000491CC9B20829F3D310BD00002001002033
:1018D00010B56420FEF7E0FEAE2000F0A9FA20204B
:1018E00000F0A6FA102000F0A3FAB02000F0A0FA51
:1018F000C82000F09DFA002000F09AFA102000F0B5
:1019000097FA402000F094FA812000F091FAFF202D
:1019100000F08EFAA12000F08BFAA62000F088FAE1
:10192000A82000F085FA3F2000F082FAA42000F001
:101930007FFAD32000F07CFA002000F079FAD5205D
:1019400000F076FAF02000F073FAD92000F070FA77
:10195000222000F06DFADA2000F06AFA122000F07E
:1019600067FADB2000F064FA202000F061FA8D2095
:1019700000F05EFA142000F05BFABDE81040AF20E2
:1019800000F056BA7047704710B5FFF7CFF8BDE8C2
:101990001040FFF72ABC30B58FB00225012004901B
:1019A00000951020059000244FF46010CDE9084008
:1019B00007956846FFF776FA00B1FEE70F20CDE9FC
:1019C0000A054FF48060CDE90C4002210AA80E946C
:1019D000FFF762F900B1FEE7FFF708FA4FF47A71FA
:1019E000B0FBF1F0FFF7EDFB0420FFF7DDFB002279
:1019F0001146501EFFF71EF90FB030BD0D480168AB
:101A000041F00101016041680B4A114041600168E9
:101A10000A4A11400160016821F480210160416897
:101A200021F4FE0141604FF41F0181600449C003AD
:101A300008607047001002400000FFF8FFFFF6FE4C
:101A400008ED00E0114808B500680168C1F3001115
:101A5000B9B10168406800900C48FFF7CAFB0C4818
:101A6000FEF794FB82B2642309490848FFF752FD50
:101A700040210748FEF77FFB402205490348FFF756
:101A8000FBFCBDE808400148FFF7E0BB5C0000201C
:101A90009C00002010B5406A0021C185C184FFF779
:101AA000D4FB10BD70B5446A2068406994F83910C1
:101AB000C0F3C0100025212904D118B1E5842046C7
:101AC00000F046F82068406994F83A10C0F380109E
:101AD000222904D118B1E585204600F02BF8E06BEF
:101AE00040F01000E0632046FFF7AFFB70BD10B57B
:101AF0000146406A09680968890613D40021C18536
:101B00000168CA6822F48072CA6001684A6922F0DA
:101B100001024A6101684A6922F040024A612021BB
:101B200080F83A10FFF7F4FC10BD10B5406AFFF7DB
:101B3000F0FC10BD0168CA6822F49072CA600168A6
:101B40004A6922F001024A61202180F83A10704768
:101B50000168CA6822F0C002CA60202180F83910EA
:101B6000704710B590F83A10222901D0022010BD1C
:101B70008168B1F5805F11D00169002901681FD02B
:101B8000496801F07F03816A4A1C82620B70C18D33
:101B9000491E0904090CC18518D02BE00269816A2D
:101BA000002A0268526805D0D2B20A80816A491CB4
:101BB0008162ECE7C2F308020A80816A891CF7E7B8
:101BC0004A68816A4B1C83620A70E0E70168CA6850
:101BD00022F02002CA600168CA6822F48072CA60DA
:101BE00001684A6922F001024A61202180F83A1016
:101BF000FFF78EFC002010BD2DE9F041044600687F
:101C00000169E26821F44051114301612169A06832
:101C10000843616908432168CA6841F20C639A432A
:101C20000243CA6020684169A26921F440711143EE
:101C300041614C4920686425322688423CD1FFF737
:101C4000EBF800EBC00101EB001061688900B0FB0C
:101C5000F1F7FFF7E1F800EBC00101EB001061685C
:101C6000B0468900B0FBF1F0B0FBF5F06FF0180161
:101C7000484307EB800106EB0110B0FBF5F000F0E4
:101C8000F006FFF7C9F800EBC00101EB0010616836
:101C90008900B0FBF1F0B0FBF5F006EB0016FFF7A2
:101CA000BBF800EBC00101EB001061688900B0FBDC
:101CB000F1F7FFF7B1F83BE0FFF79EF800EBC0014A
:101CC00001EB001061688900B0FBF1F7FFF794F8B1
:101CD00000EBC00101EB00106168B0468900B0FB69
:101CE000F1F0B0FBF5F06FF01801484307EB80010D
:101CF00006EB0110B0FBF5F000F0F006FFF77CF802
:101D000000EBC00101EB001061688900B0FBF1F04D
:101D1000B0FBF5F006EB0016FFF76EF800EBC00124
:101D200001EB001061688900B0FBF1F7FFF764F880
:101D300000EBC00101EB001061688900B0FBF1F01D
:101D4000B0FBF5F06FF01801484307EB800108EB9A
:101D50000110B0FBF5F0216800F00F0030448860FE
:101D6000BDE8F0810038014090F83910212901D0F8
:101D7000022070478168B1F5805F016A0BD04A1C70
:101D80000262026809785160C18C491E0904090C7D
:101D9000C1840ED017E009880268C1F308015160C0
:101DA00001690029016A02D0491C0162ECE7891C23
:101DB000FBE70168CA6822F08002CA600068C16857
:101DC00041F04001C160002070472DE9F041984684
:101DD00017460E460446069D1DE0681C1BD02DB11B
:101DE000FEF75CFDA0EB0800A84214D92068C1688A
:101DF00021F4D071C1602068416921F00101416185
:101E0000202084F8390084F83A00002084F8380053
:101E10000320BDE8F0812068006836EA000004D0A5
:101E20000020B842D9D00020F3E70120F9E7FEE70F
:101E300001460020FFF7F0BC01464020FFF7ECBC54
:101E4000FEE702E008C8121F08C1002AFAD1704755
:101E50007047002001E001C1121F002AFBD170472A
:101E60002DE9F0410E4F002404F1B000C0B2FFF79D
:101E7000DFFF0020FFF7DCFF1020FFF7D9FF002570
:101E800007EBC416705DFFF7D7FF6D1CEDB2802D18
:101E9000F8D3641CE4B2082CE6D3BDE8F08100005E
:101EA0002001002008B5FEF749FEFFF774FD274822
:101EB000816941F004018161816901F004010091AF
:101EC000816941F010018161816901F01001009187
:101ED000816941F008018161816901F00801009187
:101EE000416941F0020141614069002200F00200B5
:101EF000009011463A20FEF79DFE3A20FEF78EFE36
:101F0000144C13480C2120604FF4E1306060002035
:101F1000A060E060C4E90401A061E0612046FFF731
:101F20001DFA00B1FEE7FFF789FCFFF7D1FCFFF7D0
:101F3000B3FC2068C16841F01001C160054940222E
:101F400040310448FFF798FAFEE700000010024015
:101F5000004C00405C000020000000000000000079
:101F6000010203040607080900000000010203043F
:101F7000901F00080000002008000000421E00081A
:101F8000981F00080800002018090000521E0008D1
:081F90000000000000A24A0459
:0400000508000131BD
:00000001FF
