:020000040800F2
:100000000804002045010008730A0008070A0008D8
:10001000710A00088D010008490B0008000000006B
:10002000000000000000000000000000970A000827
:100030008F01000800000000950A0008990A0008D6
:100040005F0100085F0100085F0100085F01000810
:100050005F0100085F0100085F0100085F01000800
:100060005F0100085F0100085F0100085F010008F0
:100070005F0100085F0100085F0100085F010008E0
:100080005F0100085F0100085F0100085F010008D0
:100090005F0100085F0100085F0100085F010008C0
:1000A0005F0100085F0100085F0100085F010008B0
:1000B0005F0100085F0100085F0100085F010008A0
:1000C0005F0100085F0100085F0100085F01000890
:1000D0005F0100085F0100085F0100085F01000880
:1000E0005F0100085F0100085F0100085F01000870
:1000F0005F0100085F0100085F0100085F01000860
:100100005F0100085F0100085F0100085F0100084F
:100110005F0100085F0100085F0100085F0100083F
:100120005F0100085F0100085F0100085F0100082F
:10013000DFF80CD000F018F800480047690B000801
:10014000080400200648804706480047FEE7FEE70F
:10015000FEE7FEE7FEE7FEE7FEE7FEE7FEE7FEE777
:10016000010B000831010008064C074D06E0E0686D
:1001700040F0010394E8070098471034AC42F6D3EE
:10018000FFF7DAFFD00B0008F00B0008FEE770471E
:100190002DE9F84FDFF8B8A100220AF1040B14464C
:1001A00001274FF00F090BF1040E00BF0B6807FA8F
:1001B00004F52B40AB4274D1DFF898C14E68A6EB32
:1001C0000C0866452BD00DDC032E34D005DC36B38D
:1001D000012E19D0022E2FD11BE0112E16D0122E77
:1001E0002AD119E0B8F5881F19D006DCB8F5803F90
:1001F00015D0B8F5801F1FD111E0B8F5001F0ED043
:10020000B8F5041F18D10AE0CA6815E0CA68121DC3
:1002100012E0CA6808320FE0CA680C320CE08A6843
:100220002AB1012A4FF0080203D0456104E00422FC
:1002300002E0056100E00022FF2B01D8064601E044
:1002400000F104064FEA840501D9A5F12005D6F88E
:1002500000C009FA05F82CEA080C02FA05F54CEA88
:10026000050CC6F800C04D68ED006AD53A4DAE6980
:1002700046F00106AE61AD6924F0030605F0010504
:100280000095364D06EB050CDCF80850A6074FEA42
:10029000167809FA08F6B543314EB04202D100266D
:1002A0001AE04EE02F4EB04201D1012614E02E4E4E
:1002B000B04201D102260FE02C4EB04201D10326FC
:1002C0000AE02B4EB04201D1042605E0294EB0428F
:1002D00001D1052600E0062606FA08F62E43CCF8E2
:1002E00008604D68DAF80060ED03554601D51E43FD
:1002F00000E09E432E604D68AD0305D5DBF800603D
:100300001E43CBF8006004E0DBF800509D43CBF8BF
:1003100000504D68DEF80060ED02754601D51E43C1
:1003200000E09E432E604D68AD0205D5084D0C35AA
:100330002E681E432E6004E0054E0C3635689D4342
:100340003560641C102CFFF431AFBDE8F88F00005D
:1003500000040140000011100010024000000140A4
:1003600000080140000C0140001001400014014051
:1003700000180140001C01408068084000D00120A6
:1003800070470AB1016170470904FBE70148006842
:10039000704700000000002002480168491C01600D
:1003A0007047000000000020074810B5016841F0C8
:1003B00010010160032000F087F8002000F006F82B
:1003C00000F018F8002010BD0020024010B50446CF
:1003D00007484FF47A710068B0FBF1F000F0FBFAC7
:1003E00000222146501E00F04FF8002010BD0000F2
:1003F00004000020224808B5816941F001018161B3
:10040000816901F001010091C16941F08051C16130
:10041000C06900F080500090032000F055F80022E1
:1004200011466FF00B0000F02FF8002211466FF01C
:100430000A0000F029F8002211466FF0090000F0D0
:1004400023F800221146501F00F01EF8002211462A
:10045000101F00F019F800221146901E00F014F849
:1004600000221146501E00F00FF80648416821F0A6
:10047000E0614160416841F00071416008BD0000E9
:100480000010024000000140F0B40E4B1B680C4607
:10049000C3F30223C3F10705042D00D90425191D58
:1004A000072901D2002300E0DB1E012606FA05F130
:1004B000491E214099409E40761E16403143F0BCB3
:1004C00000F0D8BA0CED00E0064900F00702086819
:1004D0004FF6FF03184040EA0220034A1043086029
:1004E000704700000CED00E00000FA052DE9F04730
:1004F000DFF83C8105460E46D8F8000000F0070002
:10050000B0420CD2D8F8001021F007013143C8F8EE
:100510000010D8F8000000F00700B04263D128783E
:10052000444C800705D56068A96820F0F0000843B6
:1005300060602878C00745D06868012816D0216817
:10054000022816D0890700294DDA616821F00301DD
:1005500001436160FFF71AFF6968074641F288307E
:1005600001290FD00229814619D027E0216889038B
:10057000E9E78901E7E700BFFFF708FFC11B49452D
:1005800001D918E081466068C0F381000128F3D1E9
:1005900018E000BFFFF7FAFEC11B49450BD86068A1
:1005A000C0F381000228F5D10CE000BFFFF7EEFE9A
:1005B000C11B494502D90320BDE8F087606810F0EF
:1005C0000C0FF3D1D8F80010404601F00701B142FA
:1005D0000BD9016821F0070131430160006800F088
:1005E0000700B04201D00120E6E72878400705D592
:1005F0006068E96820F4E0600843606028780007DC
:1006000006D56068296920F4605040EAC100606046
:1006100000F01CF86168084AC1F30311515CC8403E
:10062000064908600020FFF7D1FE0020C4E7000063
:100630000020024000100240C00B0008040000200F
:1006400001480068704700000400002010B512A3A4
:1006500085B00FCB8DE80F0013A0144B00680490F9
:100660005A68134802F00C0104290FD008290DD153
:10067000C2F38344D2031DF8041009D55A6804ABB1
:10068000C2F340429A5CB0FBF2F0484305B010BDA3
:1006900008484843FAE70000020304050607080972
:1006A0000A0B0C0D0E0F101001020000001002408A
:1006B00000127A0000093D002DE9F84F0446007849
:1006C000B94DC00748D06868C0F38100012807D041
:1006D0006868C0F38100022809D16868C00306D5A4
:1006E0002868800338D5606800286FD034E06068DF
:1006F000B0F5803F0BD010B1B0F5A02F11D0286815
:1007000020F480302860286820F4802002E02868E7
:1007100040F480302860606888B1FFF737FE0646F5
:1007200009E0286840F480202860F0E7FFF72EFEFB
:10073000801B642875D828688003F7D50CE0FFF784
:1007400025FE064605E000BFFFF720FE801B64285B
:10075000F0D828688003F7D42078944E80074FF0B3
:1007600001094FF000083BD5686810F00C0F07D066
:100770006868C0F38100022809D16868C00306D404
:100780002868800714D5206901281FD110E020694E
:10079000B0B1C6F80090FFF7F9FD074605E000BFCD
:1007A000FFF7F4FDC01B0228C4D828688007F7D5DE
:1007B0002868616920F0F80040EAC10028600FE075
:1007C000C6F80080FFF7E2FD074606E0E9E000BF5B
:1007D000FFF7DCFDC01B022823D828688007F7D468
:1007E000207800072CD57248A169D9B1C0F80090D3
:1007F000FFF7CCFD074604E0FFF7C8FDC01B022849
:100800000FD8686A8007F7D56A484FF4FA51006834
:10081000B0FBF1F0009000BF0098411E0091FAD2A9
:100820000EE080E0C0F80080FFF7B0FD074604E06E
:10083000FFF7ACFDC01B022875D8686A8007F7D4A3
:100840002078400760D5E8690027C00008D4E8692F
:1008500040F08050E861E869012700F08050009086
:1008600055480168C90513D40168834641F4807175
:100870000160FFF78BFD824606E000BFFFF786FDB3
:10088000A0EB0A0064284ED8DBF80000C005F5D5BF
:10089000E06801280AD008B1052813D0286A20F0A2
:1008A00001002862286A20F0040002E0286A40F073
:1008B00001002862E06841F2883B98B1FFF766FDCD
:1008C00082460BE0286A40F004002862EEE700BF91
:1008D000FFF75CFDA0EB0A0159455AD8286A80074A
:1008E000F6D50CE0FFF752FD824605E0FFF74EFD1E
:1008F000A0EB0A0159454CD8286A8007F6D41FB1ED
:10090000E86920F08050E861E06988B36968C1F364
:100910008101022945D00228C6F8608004D0FFF783
:1009200035FD044638E034E0FFF730FD074604E0CB
:10093000FFF72CFDC01B02282BD828688001F7D4B4
:10094000206AB0F5803F05D16868A16820F40030C6
:1009500008436860D4E908010843696821F4741108
:1009600008436860C6F86090FFF710FD044606E093
:1009700015E000BFFFF70AFD001B022809D8286810
:100980008001F7D50BE000BFFFF700FD001B022838
:1009900002D90320BDE8F88F28688001F4D4002034
:1009A000F8E70120F6E70000001002400000424294
:1009B0008004424204000020007000404FF0E0211B
:1009C0000428086903D020F004000861704740F053
:1009D0000400FAE7704710B5401EB0F1807F01D3E4
:1009E000012010BD4FF0E02460610F21601700F07E
:1009F00041F80020A06107202061002010BD10B543
:100A0000FFF7E8FF10BDFEE770B5174886B08169B3
:100A100041F010018161816901F010010491816947
:100A200041F0040181618069104E00F004004FF430
:100A3000E0750490002229463046FFF7A2FC00240E
:100A40000420CDE90004694630460294FFF7A0FB7C
:100A500001200095CDE9010402200390694630464B
:100A6000FFF796FB06B070BD001002400010014079
:100A7000FEE770470907090E002806DA00F00F00AC
:100A800000F1E02080F8141D704700F1E02080F8AC
:100A9000001470477047704710B5FFF77DFCBDE844
:100AA0001040FFF7ACBF10B590B0022000900120BD
:100AB000049010200024059007946846FFF7FCFD81
:100AC00000B1FEE70F20CDE90A040C940D9400213B
:100AD0000AA80E94FFF70AFD00B1FEE7FFF7B0FD8C
:100AE0004FF47A71B0FBF1F0FFF775FF0420FFF7C8
:100AF00065FF00221146501EFFF7C6FC10B010BD66
:100B00000D48016841F00101016041680B4A114044
:100B1000416001680A4A11400160016821F48021A6
:100B20000160416821F4FE0141604FF41F018160C2
:100B30000449C00308607047001002400000FFF83D
:100B4000FFFFF6FE08ED00E0FEE702E008C8121F16
:100B500008C1002AFAD170477047002001E001C1A6
:100B6000121F002AFBD17047FFF71EFCFFF79BFF07
:100B7000FFF74AFF114CA51504212046FFF7FCFBA7
:100B800078B1012240212046FFF7FBFB01228021A2
:100B90002046FFF7F6FB012229462046FFF7F1FB2E
:100BA000EAE7002240212046FFF7EBFB00228021EC
:100BB0002046FFF7E6FB0022EEE7000000100140B0
:100BC00000000000000000000102030406070809FD
:100BD000F00B000800000020080000004A0B00088D
:100BE000F80B000808000020000400005A0B000861
:080BF0000000000000A24A040D
:0400000508000131BD
:00000001FF
